{
    "contractName": "MerkleMintCore",
    "abi": [
        {
            "constant": true,
            "inputs": [
                {
                    "internalType": "bytes4",
                    "name": "interfaceId",
                    "type": "bytes4"
                }
            ],
            "name": "supportsInterface",
            "outputs": [
                {
                    "internalType": "bool",
                    "name": "",
                    "type": "bool"
                }
            ],
            "payable": false,
            "stateMutability": "view",
            "type": "function"
        },
        {
            "constant": true,
            "inputs": [],
            "name": "name",
            "outputs": [
                {
                    "internalType": "string",
                    "name": "",
                    "type": "string"
                }
            ],
            "payable": false,
            "stateMutability": "view",
            "type": "function"
        },
        {
            "constant": true,
            "inputs": [
                {
                    "internalType": "uint256",
                    "name": "tokenId",
                    "type": "uint256"
                }
            ],
            "name": "getApproved",
            "outputs": [
                {
                    "internalType": "address",
                    "name": "",
                    "type": "address"
                }
            ],
            "payable": false,
            "stateMutability": "view",
            "type": "function"
        },
        {
            "constant": false,
            "inputs": [
                {
                    "internalType": "address",
                    "name": "to",
                    "type": "address"
                },
                {
                    "internalType": "uint256",
                    "name": "tokenId",
                    "type": "uint256"
                }
            ],
            "name": "approve",
            "outputs": [],
            "payable": false,
            "stateMutability": "nonpayable",
            "type": "function"
        },
        {
            "constant": true,
            "inputs": [],
            "name": "totalSupply",
            "outputs": [
                {
                    "internalType": "uint256",
                    "name": "",
                    "type": "uint256"
                }
            ],
            "payable": false,
            "stateMutability": "view",
            "type": "function"
        },
        {
            "constant": false,
            "inputs": [
                {
                    "internalType": "address",
                    "name": "from",
                    "type": "address"
                },
                {
                    "internalType": "address",
                    "name": "to",
                    "type": "address"
                },
                {
                    "internalType": "uint256",
                    "name": "tokenId",
                    "type": "uint256"
                }
            ],
            "name": "transferFrom",
            "outputs": [],
            "payable": false,
            "stateMutability": "nonpayable",
            "type": "function"
        },
        {
            "constant": true,
            "inputs": [
                {
                    "internalType": "address",
                    "name": "owner",
                    "type": "address"
                },
                {
                    "internalType": "uint256",
                    "name": "index",
                    "type": "uint256"
                }
            ],
            "name": "tokenOfOwnerByIndex",
            "outputs": [
                {
                    "internalType": "uint256",
                    "name": "",
                    "type": "uint256"
                }
            ],
            "payable": false,
            "stateMutability": "view",
            "type": "function"
        },
        {
            "constant": false,
            "inputs": [],
            "name": "unpause",
            "outputs": [],
            "payable": false,
            "stateMutability": "nonpayable",
            "type": "function"
        },
        {
            "constant": false,
            "inputs": [
                {
                    "internalType": "address",
                    "name": "from",
                    "type": "address"
                },
                {
                    "internalType": "address",
                    "name": "to",
                    "type": "address"
                },
                {
                    "internalType": "uint256",
                    "name": "tokenId",
                    "type": "uint256"
                }
            ],
            "name": "safeTransferFrom",
            "outputs": [],
            "payable": false,
            "stateMutability": "nonpayable",
            "type": "function"
        },
        {
            "constant": true,
            "inputs": [
                {
                    "internalType": "address",
                    "name": "account",
                    "type": "address"
                }
            ],
            "name": "isPauser",
            "outputs": [
                {
                    "internalType": "bool",
                    "name": "",
                    "type": "bool"
                }
            ],
            "payable": false,
            "stateMutability": "view",
            "type": "function"
        },
        {
            "constant": false,
            "inputs": [
                {
                    "internalType": "string",
                    "name": "name",
                    "type": "string"
                },
                {
                    "internalType": "string",
                    "name": "symbol",
                    "type": "string"
                }
            ],
            "name": "initialize",
            "outputs": [],
            "payable": false,
            "stateMutability": "nonpayable",
            "type": "function"
        },
        {
            "constant": true,
            "inputs": [
                {
                    "internalType": "uint256",
                    "name": "index",
                    "type": "uint256"
                }
            ],
            "name": "tokenByIndex",
            "outputs": [
                {
                    "internalType": "uint256",
                    "name": "",
                    "type": "uint256"
                }
            ],
            "payable": false,
            "stateMutability": "view",
            "type": "function"
        },
        {
            "constant": false,
            "inputs": [
                {
                    "internalType": "address",
                    "name": "to",
                    "type": "address"
                },
                {
                    "internalType": "uint256",
                    "name": "tokenId",
                    "type": "uint256"
                },
                {
                    "internalType": "string",
                    "name": "tokenURI",
                    "type": "string"
                }
            ],
            "name": "mintWithTokenURI",
            "outputs": [
                {
                    "internalType": "bool",
                    "name": "",
                    "type": "bool"
                }
            ],
            "payable": false,
            "stateMutability": "nonpayable",
            "type": "function"
        },
        {
            "constant": true,
            "inputs": [],
            "name": "paused",
            "outputs": [
                {
                    "internalType": "bool",
                    "name": "",
                    "type": "bool"
                }
            ],
            "payable": false,
            "stateMutability": "view",
            "type": "function"
        },
        {
            "constant": true,
            "inputs": [
                {
                    "internalType": "uint256",
                    "name": "tokenId",
                    "type": "uint256"
                }
            ],
            "name": "ownerOf",
            "outputs": [
                {
                    "internalType": "address",
                    "name": "",
                    "type": "address"
                }
            ],
            "payable": false,
            "stateMutability": "view",
            "type": "function"
        },
        {
            "constant": false,
            "inputs": [],
            "name": "renouncePauser",
            "outputs": [],
            "payable": false,
            "stateMutability": "nonpayable",
            "type": "function"
        },
        {
            "constant": true,
            "inputs": [
                {
                    "internalType": "address",
                    "name": "owner",
                    "type": "address"
                }
            ],
            "name": "balanceOf",
            "outputs": [
                {
                    "internalType": "uint256",
                    "name": "",
                    "type": "uint256"
                }
            ],
            "payable": false,
            "stateMutability": "view",
            "type": "function"
        },
        {
            "constant": false,
            "inputs": [],
            "name": "initialize",
            "outputs": [],
            "payable": false,
            "stateMutability": "nonpayable",
            "type": "function"
        },
        {
            "constant": false,
            "inputs": [
                {
                    "internalType": "address",
                    "name": "account",
                    "type": "address"
                }
            ],
            "name": "addPauser",
            "outputs": [],
            "payable": false,
            "stateMutability": "nonpayable",
            "type": "function"
        },
        {
            "constant": false,
            "inputs": [],
            "name": "pause",
            "outputs": [],
            "payable": false,
            "stateMutability": "nonpayable",
            "type": "function"
        },
        {
            "constant": true,
            "inputs": [],
            "name": "symbol",
            "outputs": [
                {
                    "internalType": "string",
                    "name": "",
                    "type": "string"
                }
            ],
            "payable": false,
            "stateMutability": "view",
            "type": "function"
        },
        {
            "constant": false,
            "inputs": [
                {
                    "internalType": "address",
                    "name": "account",
                    "type": "address"
                }
            ],
            "name": "addMinter",
            "outputs": [],
            "payable": false,
            "stateMutability": "nonpayable",
            "type": "function"
        },
        {
            "constant": false,
            "inputs": [],
            "name": "renounceMinter",
            "outputs": [],
            "payable": false,
            "stateMutability": "nonpayable",
            "type": "function"
        },
        {
            "constant": false,
            "inputs": [
                {
                    "internalType": "address",
                    "name": "to",
                    "type": "address"
                },
                {
                    "internalType": "bool",
                    "name": "approved",
                    "type": "bool"
                }
            ],
            "name": "setApprovalForAll",
            "outputs": [],
            "payable": false,
            "stateMutability": "nonpayable",
            "type": "function"
        },
        {
            "constant": true,
            "inputs": [
                {
                    "internalType": "address",
                    "name": "account",
                    "type": "address"
                }
            ],
            "name": "isMinter",
            "outputs": [
                {
                    "internalType": "bool",
                    "name": "",
                    "type": "bool"
                }
            ],
            "payable": false,
            "stateMutability": "view",
            "type": "function"
        },
        {
            "constant": false,
            "inputs": [
                {
                    "internalType": "address",
                    "name": "from",
                    "type": "address"
                },
                {
                    "internalType": "address",
                    "name": "to",
                    "type": "address"
                },
                {
                    "internalType": "uint256",
                    "name": "tokenId",
                    "type": "uint256"
                },
                {
                    "internalType": "bytes",
                    "name": "_data",
                    "type": "bytes"
                }
            ],
            "name": "safeTransferFrom",
            "outputs": [],
            "payable": false,
            "stateMutability": "nonpayable",
            "type": "function"
        },
        {
            "constant": false,
            "inputs": [
                {
                    "internalType": "address",
                    "name": "sender",
                    "type": "address"
                }
            ],
            "name": "initialize",
            "outputs": [],
            "payable": false,
            "stateMutability": "nonpayable",
            "type": "function"
        },
        {
            "constant": true,
            "inputs": [
                {
                    "internalType": "uint256",
                    "name": "tokenId",
                    "type": "uint256"
                }
            ],
            "name": "tokenURI",
            "outputs": [
                {
                    "internalType": "string",
                    "name": "",
                    "type": "string"
                }
            ],
            "payable": false,
            "stateMutability": "view",
            "type": "function"
        },
        {
            "constant": false,
            "inputs": [
                {
                    "internalType": "string",
                    "name": "TokenName",
                    "type": "string"
                },
                {
                    "internalType": "string",
                    "name": "TokenSymbol",
                    "type": "string"
                },
                {
                    "internalType": "address[]",
                    "name": "minters",
                    "type": "address[]"
                },
                {
                    "internalType": "address[]",
                    "name": "pausers",
                    "type": "address[]"
                }
            ],
            "name": "initialize",
            "outputs": [],
            "payable": false,
            "stateMutability": "nonpayable",
            "type": "function"
        },
        {
            "constant": true,
            "inputs": [
                {
                    "internalType": "address",
                    "name": "owner",
                    "type": "address"
                },
                {
                    "internalType": "address",
                    "name": "operator",
                    "type": "address"
                }
            ],
            "name": "isApprovedForAll",
            "outputs": [
                {
                    "internalType": "bool",
                    "name": "",
                    "type": "bool"
                }
            ],
            "payable": false,
            "stateMutability": "view",
            "type": "function"
        },
        {
            "anonymous": false,
            "inputs": [
                {
                    "indexed": false,
                    "internalType": "address",
                    "name": "account",
                    "type": "address"
                }
            ],
            "name": "Paused",
            "type": "event"
        },
        {
            "anonymous": false,
            "inputs": [
                {
                    "indexed": false,
                    "internalType": "address",
                    "name": "account",
                    "type": "address"
                }
            ],
            "name": "Unpaused",
            "type": "event"
        },
        {
            "anonymous": false,
            "inputs": [
                {
                    "indexed": true,
                    "internalType": "address",
                    "name": "account",
                    "type": "address"
                }
            ],
            "name": "PauserAdded",
            "type": "event"
        },
        {
            "anonymous": false,
            "inputs": [
                {
                    "indexed": true,
                    "internalType": "address",
                    "name": "account",
                    "type": "address"
                }
            ],
            "name": "PauserRemoved",
            "type": "event"
        },
        {
            "anonymous": false,
            "inputs": [
                {
                    "indexed": true,
                    "internalType": "address",
                    "name": "account",
                    "type": "address"
                }
            ],
            "name": "MinterAdded",
            "type": "event"
        },
        {
            "anonymous": false,
            "inputs": [
                {
                    "indexed": true,
                    "internalType": "address",
                    "name": "account",
                    "type": "address"
                }
            ],
            "name": "MinterRemoved",
            "type": "event"
        },
        {
            "anonymous": false,
            "inputs": [
                {
                    "indexed": true,
                    "internalType": "address",
                    "name": "from",
                    "type": "address"
                },
                {
                    "indexed": true,
                    "internalType": "address",
                    "name": "to",
                    "type": "address"
                },
                {
                    "indexed": true,
                    "internalType": "uint256",
                    "name": "tokenId",
                    "type": "uint256"
                }
            ],
            "name": "Transfer",
            "type": "event"
        },
        {
            "anonymous": false,
            "inputs": [
                {
                    "indexed": true,
                    "internalType": "address",
                    "name": "owner",
                    "type": "address"
                },
                {
                    "indexed": true,
                    "internalType": "address",
                    "name": "approved",
                    "type": "address"
                },
                {
                    "indexed": true,
                    "internalType": "uint256",
                    "name": "tokenId",
                    "type": "uint256"
                }
            ],
            "name": "Approval",
            "type": "event"
        },
        {
            "anonymous": false,
            "inputs": [
                {
                    "indexed": true,
                    "internalType": "address",
                    "name": "owner",
                    "type": "address"
                },
                {
                    "indexed": true,
                    "internalType": "address",
                    "name": "operator",
                    "type": "address"
                },
                {
                    "indexed": false,
                    "internalType": "bool",
                    "name": "approved",
                    "type": "bool"
                }
            ],
            "name": "ApprovalForAll",
            "type": "event"
        }
    ],
    "bytecode": "6080604052612beb806100136000396000f3fe608060405234801561001057600080fd5b50600436106101da5760003560e01c80636ef8d66d1161010457806398650275116100a2578063c4d66de811610071578063c4d66de8146107b4578063c87b56dd146107da578063d94cc0e0146107f7578063e985e9c514610a24576101da565b80639865027514610694578063a22cb4651461069c578063aa271e1a146106ca578063b88d4fde146106f0576101da565b806382dc1ec4116100de57806382dc1ec4146106385780638456cb591461065e57806395d89b4114610666578063983b2d561461066e576101da565b80636ef8d66d1461060257806370a082311461060a5780638129fc1c14610630576101da565b80633f4ba83a1161017c5780634f6ccce71161014b5780634f6ccce71461050757806350bb4e7f146105245780635c975abb146105dd5780636352211e146105e5576101da565b80633f4ba83a1461037a57806342842e0e1461038257806346fbf68e146103b85780634cd88b76146103de576101da565b8063095ea7b3116101b8578063095ea7b3146102d057806318160ddd146102fe57806323b872dd146103185780632f745c591461034e576101da565b806301ffc9a7146101df57806306fdde031461021a578063081812fc14610297575b600080fd5b610206600480360360208110156101f557600080fd5b50356001600160e01b031916610a52565b604080519115158252519081900360200190f35b610222610a71565b6040805160208082528351818301528351919283929083019185019080838360005b8381101561025c578181015183820152602001610244565b50505050905090810190601f1680156102895780820380516001836020036101000a031916815260200191505b509250505060405180910390f35b6102b4600480360360208110156102ad57600080fd5b5035610b08565b604080516001600160a01b039092168252519081900360200190f35b6102fc600480360360408110156102e657600080fd5b506001600160a01b038135169060200135610b6a565b005b610306610bc4565b60408051918252519081900360200190f35b6102fc6004803603606081101561032e57600080fd5b506001600160a01b03813581169160208101359091169060400135610bca565b6103066004803603604081101561036457600080fd5b506001600160a01b038135169060200135610c26565b6102fc610ca5565b6102fc6004803603606081101561039857600080fd5b506001600160a01b03813581169160208101359091169060400135610d90565b610206600480360360208110156103ce57600080fd5b50356001600160a01b0316610dab565b6102fc600480360360408110156103f457600080fd5b810190602081018135600160201b81111561040e57600080fd5b82018360208201111561042057600080fd5b803590602001918460018302840111600160201b8311171561044157600080fd5b91908080601f0160208091040260200160405190810160405280939291908181526020018383808284376000920191909152509295949360208101935035915050600160201b81111561049357600080fd5b8201836020820111156104a557600080fd5b803590602001918460018302840111600160201b831117156104c657600080fd5b91908080601f016020809104026020016040519081016040528093929190818152602001838380828437600092019190915250929550610dc5945050505050565b6103066004803603602081101561051d57600080fd5b5035610eb1565b6102066004803603606081101561053a57600080fd5b6001600160a01b0382351691602081013591810190606081016040820135600160201b81111561056957600080fd5b82018360208201111561057b57600080fd5b803590602001918460018302840111600160201b8311171561059c57600080fd5b91908080601f016020809104026020016040519081016040528093929190818152602001838380828437600092019190915250929550610f17945050505050565b610206610f82565b6102b4600480360360208110156105fb57600080fd5b5035610f8c565b6102fc610fe0565b6103066004803603602081101561062057600080fd5b50356001600160a01b0316610ff2565b6102fc61105a565b6102fc6004803603602081101561064e57600080fd5b50356001600160a01b031661111d565b6102fc61116c565b610222611235565b6102fc6004803603602081101561068457600080fd5b50356001600160a01b0316611296565b6102fc6112e5565b6102fc600480360360408110156106b257600080fd5b506001600160a01b03813516906020013515156112f5565b610206600480360360208110156106e057600080fd5b50356001600160a01b031661134b565b6102fc6004803603608081101561070657600080fd5b6001600160a01b03823581169260208101359091169160408201359190810190608081016060820135600160201b81111561074057600080fd5b82018360208201111561075257600080fd5b803590602001918460018302840111600160201b8311171561077357600080fd5b91908080601f01602080910402602001604051908101604052809392919081815260200183838082843760009201919091525092955061135f945050505050565b6102fc600480360360208110156107ca57600080fd5b50356001600160a01b03166113b7565b610222600480360360208110156107f057600080fd5b5035611473565b6102fc6004803603608081101561080d57600080fd5b810190602081018135600160201b81111561082757600080fd5b82018360208201111561083957600080fd5b803590602001918460018302840111600160201b8311171561085a57600080fd5b91908080601f0160208091040260200160405190810160405280939291908181526020018383808284376000920191909152509295949360208101935035915050600160201b8111156108ac57600080fd5b8201836020820111156108be57600080fd5b803590602001918460018302840111600160201b831117156108df57600080fd5b91908080601f0160208091040260200160405190810160405280939291908181526020018383808284376000920191909152509295949360208101935035915050600160201b81111561093157600080fd5b82018360208201111561094357600080fd5b803590602001918460208302840111600160201b8311171561096457600080fd5b9190808060200260200160405190810160405280939291908181526020018383602002808284376000920191909152509295949360208101935035915050600160201b8111156109b357600080fd5b8201836020820111156109c557600080fd5b803590602001918460208302840111600160201b831117156109e657600080fd5b919080806020026020016040519081016040528093929190818152602001838360200280828437600092019190915250929550611558945050505050565b61020660048036036040811015610a3a57600080fd5b506001600160a01b038135811691602001351661169e565b6001600160e01b03191660009081526033602052604090205460ff1690565b60d28054604080516020601f6002600019610100600188161502019095169490940493840181900481028201810190925282815260609390929091830182828015610afd5780601f10610ad257610100808354040283529160200191610afd565b820191906000526020600020905b815481529060010190602001808311610ae057829003601f168201915b505050505090505b90565b6000610b13826116cc565b610b4e5760405162461bcd60e51b815260040180806020018281038252602c815260200180612a39602c913960400191505060405180910390fd5b506000908152606760205260409020546001600160a01b031690565b61019f5460ff1615610bb6576040805162461bcd60e51b815260206004820152601060248201526f14185d5cd8589b194e881c185d5cd95960821b604482015290519081900360640190fd5b610bc082826116e9565b5050565b609e5490565b61019f5460ff1615610c16576040805162461bcd60e51b815260206004820152601060248201526f14185d5cd8589b194e881c185d5cd95960821b604482015290519081900360640190fd5b610c21838383611811565b505050565b6000610c3183610ff2565b8210610c6e5760405162461bcd60e51b815260040180806020018281038252602b815260200180612880602b913960400191505060405180910390fd5b6001600160a01b0383166000908152609c60205260409020805483908110610c9257fe5b9060005260206000200154905092915050565b610cb5610cb0611868565b610dab565b610cf05760405162461bcd60e51b81526004018080602001828103825260308152602001806128dd6030913960400191505060405180910390fd5b61019f5460ff16610d3f576040805162461bcd60e51b815260206004820152601460248201527314185d5cd8589b194e881b9bdd081c185d5cd95960621b604482015290519081900360640190fd5b61019f805460ff191690557f5db9ee0a495bf2e6ff9c91a7834c1ba4fdd244a5e8aa4e537bd38aeae4b073aa610d73611868565b604080516001600160a01b039092168252519081900360200190a1565b610c218383836040518060200160405280600081525061135f565b6000610dbf61016c8363ffffffff61186c16565b92915050565b600054610100900460ff1680610dde5750610dde6118d3565b80610dec575060005460ff16155b610e275760405162461bcd60e51b815260040180806020018281038252602e815260200180612ab3602e913960400191505060405180910390fd5b600054610100900460ff16158015610e52576000805460ff1961ff0019909116610100171660011790555b610e5a6118d9565b610e6357600080fd5b8251610e769060d29060208601906127c7565b508151610e8a9060d39060208501906127c7565b50610e9b635b5e139f60e01b6118f0565b8015610c21576000805461ff0019169055505050565b6000610ebb610bc4565b8210610ef85760405162461bcd60e51b815260040180806020018281038252602c815260200180612b8b602c913960400191505060405180910390fd5b609e8281548110610f0557fe5b90600052602060002001549050919050565b6000610f29610f24611868565b61134b565b610f645760405162461bcd60e51b81526004018080602001828103825260308152602001806129e86030913960400191505060405180910390fd5b610f6e8484611974565b610f788383611991565b5060019392505050565b61019f5460ff1690565b6000818152606660205260408120546001600160a01b031680610dbf5760405162461bcd60e51b81526004018080602001828103825260298152602001806129bf6029913960400191505060405180910390fd5b610ff0610feb611868565b6119f4565b565b60006001600160a01b0382166110395760405162461bcd60e51b815260040180806020018281038252602a815260200180612995602a913960400191505060405180910390fd5b6001600160a01b0382166000908152606860205260409020610dbf90611a3d565b600054610100900460ff168061107357506110736118d3565b80611081575060005460ff16155b6110bc5760405162461bcd60e51b815260040180806020018281038252602e815260200180612ab3602e913960400191505060405180910390fd5b600054610100900460ff161580156110e7576000805460ff1961ff0019909116610100171660011790555b6110ef6118d9565b6110f857600080fd5b61110863780e9d6360e01b6118f0565b801561111a576000805461ff00191690555b50565b611128610cb0611868565b6111635760405162461bcd60e51b81526004018080602001828103825260308152602001806128dd6030913960400191505060405180910390fd5b61111a81611a41565b611177610cb0611868565b6111b25760405162461bcd60e51b81526004018080602001828103825260308152602001806128dd6030913960400191505060405180910390fd5b61019f5460ff16156111fe576040805162461bcd60e51b815260206004820152601060248201526f14185d5cd8589b194e881c185d5cd95960821b604482015290519081900360640190fd5b61019f805460ff191660011790557f62e78cea01bee320cd4e420270b5ea74000d11b0c9f74754ebdbfc544b05a258610d73611868565b60d38054604080516020601f6002600019610100600188161502019095169490940493840181900481028201810190925282815260609390929091830182828015610afd5780601f10610ad257610100808354040283529160200191610afd565b6112a1610f24611868565b6112dc5760405162461bcd60e51b81526004018080602001828103825260308152602001806129e86030913960400191505060405180910390fd5b61111a81611a8a565b610ff06112f0611868565b611ad3565b61019f5460ff1615611341576040805162461bcd60e51b815260206004820152601060248201526f14185d5cd8589b194e881c185d5cd95960821b604482015290519081900360640190fd5b610bc08282611b1c565b6000610dbf6101078363ffffffff61186c16565b61136a848484610bca565b61137684848484611c21565b6113b15760405162461bcd60e51b81526004018080602001828103825260328152602001806128ab6032913960400191505060405180910390fd5b50505050565b600054610100900460ff16806113d057506113d06118d3565b806113de575060005460ff16155b6114195760405162461bcd60e51b815260040180806020018281038252602e815260200180612ab3602e913960400191505060405180910390fd5b600054610100900460ff16158015611444576000805460ff1961ff0019909116610100171660011790555b61144c6118d9565b61145557600080fd5b61145e82611d79565b8015610bc0576000805461ff00191690555050565b606061147e826116cc565b6114b95760405162461bcd60e51b815260040180806020018281038252602f815260200180612b0a602f913960400191505060405180910390fd5b600082815260d4602090815260409182902080548351601f60026000196101006001861615020190931692909204918201849004840281018401909452808452909183018282801561154c5780601f106115215761010080835404028352916020019161154c565b820191906000526020600020905b81548152906001019060200180831161152f57829003601f168201915b50505050509050919050565b600054610100900460ff168061157157506115716118d3565b8061157f575060005460ff16155b6115ba5760405162461bcd60e51b815260040180806020018281038252602e815260200180612ab3602e913960400191505060405180910390fd5b600054610100900460ff161580156115e5576000805460ff1961ff0019909116610100171660011790555b6115ed611e2f565b6115f561105a565b6115ff8585610dc5565b61160830611ed4565b61161130611ad3565b61161a306113b7565b611623306119f4565b60005b83518110156116535761164b84828151811061163e57fe5b6020026020010151611a8a565b600101611626565b5060005b82518110156116845761167c83828151811061166f57fe5b6020026020010151611a41565b600101611657565b508015611697576000805461ff00191690555b5050505050565b6001600160a01b03918216600090815260696020908152604080832093909416825291909152205460ff1690565b6000908152606660205260409020546001600160a01b0316151590565b60006116f482610f8c565b9050806001600160a01b0316836001600160a01b031614156117475760405162461bcd60e51b8152600401808060200182810382526021815260200180612b396021913960400191505060405180910390fd5b806001600160a01b0316611759611868565b6001600160a01b0316148061177a575061177a81611775611868565b61169e565b6117b55760405162461bcd60e51b815260040180806020018281038252603881526020018061295d6038913960400191505060405180910390fd5b60008281526067602052604080822080546001600160a01b0319166001600160a01b0387811691821790925591518593918516917f8c5be1e5ebec7d5bd14f71427d1e84f3dd0314c0f7b2291e5b200ac8c7c3b92591a4505050565b61182261181c611868565b82611f8c565b61185d5760405162461bcd60e51b8152600401808060200182810382526031815260200180612b5a6031913960400191505060405180910390fd5b610c21838383612028565b3390565b60006001600160a01b0382166118b35760405162461bcd60e51b8152600401808060200182810382526022815260200180612a916022913960400191505060405180910390fd5b506001600160a01b03166000908152602091909152604090205460ff1690565b303b1590565b60006118eb6380ac58cd60e01b610a52565b905090565b6001600160e01b0319808216141561194f576040805162461bcd60e51b815260206004820152601c60248201527f4552433136353a20696e76616c696420696e7465726661636520696400000000604482015290519081900360640190fd5b6001600160e01b0319166000908152603360205260409020805460ff19166001179055565b61197e8282612047565b6119888282612178565b610bc0816121b6565b61199a826116cc565b6119d55760405162461bcd60e51b815260040180806020018281038252602c815260200180612a65602c913960400191505060405180910390fd5b600082815260d4602090815260409091208251610c21928401906127c7565b611a0661016c8263ffffffff6121fa16565b6040516001600160a01b038216907fcd265ebaf09df2871cc7bd4133404a235ba12eff2041bb89d9c714a2621c7c7e90600090a250565b5490565b611a5361016c8263ffffffff61226116565b6040516001600160a01b038216907f6719d08c1888103bea251a4ed56406bd0c3e69723c8a1686e017e7bbe159b6f890600090a250565b611a9c6101078263ffffffff61226116565b6040516001600160a01b038216907f6ae172837ea30b801fbfcdd4108aa1d5bf8ff775444fd70256b44e6bf3dfc3f690600090a250565b611ae56101078263ffffffff6121fa16565b6040516001600160a01b038216907fe94479a9f7e1952cc78f2d6baab678adc1b772d936c6583def489e524cb6669290600090a250565b611b24611868565b6001600160a01b0316826001600160a01b03161415611b8a576040805162461bcd60e51b815260206004820152601960248201527f4552433732313a20617070726f766520746f2063616c6c657200000000000000604482015290519081900360640190fd5b8060696000611b97611868565b6001600160a01b03908116825260208083019390935260409182016000908120918716808252919093529120805460ff191692151592909217909155611bdb611868565b60408051841515815290516001600160a01b0392909216917f17307eab39ab6107e8899845ad3d59bd9653f200f220920489ca2b5937696c319181900360200190a35050565b6000611c35846001600160a01b03166122e2565b611c4157506001611d71565b6000846001600160a01b031663150b7a02611c5a611868565b8887876040518563ffffffff1660e01b815260040180856001600160a01b03166001600160a01b03168152602001846001600160a01b03166001600160a01b0316815260200183815260200180602001828103825283818151815260200191508051906020019080838360005b83811015611cdf578181015183820152602001611cc7565b50505050905090810190601f168015611d0c5780820380516001836020036101000a031916815260200191505b5095505050505050602060405180830381600087803b158015611d2e57600080fd5b505af1158015611d42573d6000803e3d6000fd5b505050506040513d6020811015611d5857600080fd5b50516001600160e01b031916630a85bd0160e11b149150505b949350505050565b600054610100900460ff1680611d925750611d926118d3565b80611da0575060005460ff16155b611ddb5760405162461bcd60e51b815260040180806020018281038252602e815260200180612ab3602e913960400191505060405180910390fd5b600054610100900460ff16158015611e06576000805460ff1961ff0019909116610100171660011790555b611e0f826122e8565b61019f805460ff191690558015610bc0576000805461ff00191690555050565b600054610100900460ff1680611e485750611e486118d3565b80611e56575060005460ff16155b611e915760405162461bcd60e51b815260040180806020018281038252602e815260200180612ab3602e913960400191505060405180910390fd5b600054610100900460ff16158015611ebc576000805460ff1961ff0019909116610100171660011790555b611ec461238b565b6111086380ac58cd60e01b6118f0565b600054610100900460ff1680611eed5750611eed6118d3565b80611efb575060005460ff16155b611f365760405162461bcd60e51b815260040180806020018281038252602e815260200180612ab3602e913960400191505060405180910390fd5b600054610100900460ff16158015611f61576000805460ff1961ff0019909116610100171660011790555b611f696118d9565b611f7257600080fd5b611f7a612428565b611f8357600080fd5b61145e8261243a565b6000611f97826116cc565b611fd25760405162461bcd60e51b815260040180806020018281038252602c815260200180612931602c913960400191505060405180910390fd5b6000611fdd83610f8c565b9050806001600160a01b0316846001600160a01b031614806120185750836001600160a01b031661200d84610b08565b6001600160a01b0316145b80611d715750611d71818561169e565b6120338383836124dd565b61203d8382612621565b610c218282612178565b6001600160a01b0382166120a2576040805162461bcd60e51b815260206004820181905260248201527f4552433732313a206d696e7420746f20746865207a65726f2061646472657373604482015290519081900360640190fd5b6120ab816116cc565b156120fd576040805162461bcd60e51b815260206004820152601c60248201527f4552433732313a20746f6b656e20616c7265616479206d696e74656400000000604482015290519081900360640190fd5b600081815260666020908152604080832080546001600160a01b0319166001600160a01b03871690811790915583526068909152902061213c9061270f565b60405181906001600160a01b038416906000907fddf252ad1be2c89b69c2b068fc378daa952ba7f163c4a11628f55a4df523b3ef908290a45050565b6001600160a01b039091166000908152609c602081815260408084208054868652609d84529185208290559282526001810183559183529091200155565b609e80546000838152609f60205260408120829055600182018355919091527fcfe2a20ff701a1f3e14f63bd70d6c6bc6fba8172ec6d5a505cdab3927c0a9de60155565b612204828261186c565b61223f5760405162461bcd60e51b8152600401808060200182810382526021815260200180612a186021913960400191505060405180910390fd5b6001600160a01b0316600090815260209190915260409020805460ff19169055565b61226b828261186c565b156122bd576040805162461bcd60e51b815260206004820152601f60248201527f526f6c65733a206163636f756e7420616c72656164792068617320726f6c6500604482015290519081900360640190fd5b6001600160a01b0316600090815260209190915260409020805460ff19166001179055565b3b151590565b600054610100900460ff168061230157506123016118d3565b8061230f575060005460ff16155b61234a5760405162461bcd60e51b815260040180806020018281038252602e815260200180612ab3602e913960400191505060405180910390fd5b600054610100900460ff16158015612375576000805460ff1961ff0019909116610100171660011790555b61237e82610dab565b61145e5761145e82611a41565b600054610100900460ff16806123a457506123a46118d3565b806123b2575060005460ff16155b6123ed5760405162461bcd60e51b815260040180806020018281038252602e815260200180612ab3602e913960400191505060405180910390fd5b600054610100900460ff16158015612418576000805460ff1961ff0019909116610100171660011790555b6111086301ffc9a760e01b6118f0565b60006118eb635b5e139f60e01b610a52565b600054610100900460ff168061245357506124536118d3565b80612461575060005460ff16155b61249c5760405162461bcd60e51b815260040180806020018281038252602e815260200180612ab3602e913960400191505060405180910390fd5b600054610100900460ff161580156124c7576000805460ff1961ff0019909116610100171660011790555b6124d08261134b565b61145e5761145e82611a8a565b826001600160a01b03166124f082610f8c565b6001600160a01b0316146125355760405162461bcd60e51b8152600401808060200182810382526029815260200180612ae16029913960400191505060405180910390fd5b6001600160a01b03821661257a5760405162461bcd60e51b815260040180806020018281038252602481526020018061290d6024913960400191505060405180910390fd5b61258381612718565b6001600160a01b03831660009081526068602052604090206125a490612753565b6001600160a01b03821660009081526068602052604090206125c59061270f565b60008181526066602052604080822080546001600160a01b0319166001600160a01b0386811691821790925591518493918716917fddf252ad1be2c89b69c2b068fc378daa952ba7f163c4a11628f55a4df523b3ef91a4505050565b6001600160a01b0382166000908152609c602052604081205461264b90600163ffffffff61276a16565b6000838152609d60205260409020549091508082146126e6576001600160a01b0384166000908152609c6020526040812080548490811061268857fe5b9060005260206000200154905080609c6000876001600160a01b03166001600160a01b0316815260200190815260200160002083815481106126c657fe5b6000918252602080832090910192909255918252609d9052604090208190555b6001600160a01b0384166000908152609c60205260409020805490611697906000198301612845565b80546001019055565b6000818152606760205260409020546001600160a01b03161561111a57600090815260676020526040902080546001600160a01b0319169055565b805461276690600163ffffffff61276a16565b9055565b6000828211156127c1576040805162461bcd60e51b815260206004820152601e60248201527f536166654d6174683a207375627472616374696f6e206f766572666c6f770000604482015290519081900360640190fd5b50900390565b828054600181600116156101000203166002900490600052602060002090601f016020900481019282601f1061280857805160ff1916838001178555612835565b82800160010185558215612835579182015b8281111561283557825182559160200191906001019061281a565b50612841929150612865565b5090565b815481835581811115610c2157600083815260209020610c219181019083015b610b0591905b80821115612841576000815560010161286b56fe455243373231456e756d657261626c653a206f776e657220696e646578206f7574206f6620626f756e64734552433732313a207472616e7366657220746f206e6f6e20455243373231526563656976657220696d706c656d656e746572506175736572526f6c653a2063616c6c657220646f6573206e6f742068617665207468652050617573657220726f6c654552433732313a207472616e7366657220746f20746865207a65726f20616464726573734552433732313a206f70657261746f7220717565727920666f72206e6f6e6578697374656e7420746f6b656e4552433732313a20617070726f76652063616c6c6572206973206e6f74206f776e6572206e6f7220617070726f76656420666f7220616c6c4552433732313a2062616c616e636520717565727920666f7220746865207a65726f20616464726573734552433732313a206f776e657220717565727920666f72206e6f6e6578697374656e7420746f6b656e4d696e746572526f6c653a2063616c6c657220646f6573206e6f74206861766520746865204d696e74657220726f6c65526f6c65733a206163636f756e7420646f6573206e6f74206861766520726f6c654552433732313a20617070726f76656420717565727920666f72206e6f6e6578697374656e7420746f6b656e4552433732314d657461646174613a2055524920736574206f66206e6f6e6578697374656e7420746f6b656e526f6c65733a206163636f756e7420697320746865207a65726f2061646472657373436f6e747261637420696e7374616e63652068617320616c7265616479206265656e20696e697469616c697a65644552433732313a207472616e73666572206f6620746f6b656e2074686174206973206e6f74206f776e4552433732314d657461646174613a2055524920717565727920666f72206e6f6e6578697374656e7420746f6b656e4552433732313a20617070726f76616c20746f2063757272656e74206f776e65724552433732313a207472616e736665722063616c6c6572206973206e6f74206f776e6572206e6f7220617070726f766564455243373231456e756d657261626c653a20676c6f62616c20696e646578206f7574206f6620626f756e6473a265627a7a72315820ec918cd57d30aeaa7c52348949aacda3793d1dd796ca78cfebcae3dd472262e664736f6c634300050b0032",
    "sourcePath": "/Users/dennison/Documents/MerkleMint/contracts/MerkleMintCore.sol",
    "compiler": {
        "name": "solc",
        "version": "0.5.11+commit.c082d0b4"
    },
    "functionHashes": {
        "addMinter(address)": "983b2d56",
        "addPauser(address)": "82dc1ec4",
        "approve(address,uint256)": "095ea7b3",
        "balanceOf(address)": "70a08231",
        "getApproved(uint256)": "081812fc",
        "initialize()": "8129fc1c",
        "initialize(address)": "c4d66de8",
        "initialize(string,string)": "4cd88b76",
        "initialize(string,string,address[],address[])": "d94cc0e0",
        "isApprovedForAll(address,address)": "e985e9c5",
        "isMinter(address)": "aa271e1a",
        "isPauser(address)": "46fbf68e",
        "mintWithTokenURI(address,uint256,string)": "50bb4e7f",
        "name()": "06fdde03",
        "ownerOf(uint256)": "6352211e",
        "pause()": "8456cb59",
        "paused()": "5c975abb",
        "renounceMinter()": "98650275",
        "renouncePauser()": "6ef8d66d",
        "safeTransferFrom(address,address,uint256)": "42842e0e",
        "safeTransferFrom(address,address,uint256,bytes)": "b88d4fde",
        "setApprovalForAll(address,bool)": "a22cb465",
        "supportsInterface(bytes4)": "01ffc9a7",
        "symbol()": "95d89b41",
        "tokenByIndex(uint256)": "4f6ccce7",
        "tokenOfOwnerByIndex(address,uint256)": "2f745c59",
        "tokenURI(uint256)": "c87b56dd",
        "totalSupply()": "18160ddd",
        "transferFrom(address,address,uint256)": "23b872dd",
        "unpause()": "3f4ba83a"
    },
    "gasEstimates": {
        "creation": {
            "codeDepositCost": "2248600",
            "executionCost": "2381",
            "totalCost": "2250981"
        },
        "external": {
            "addMinter(address)": "infinite",
            "addPauser(address)": "infinite",
            "approve(address,uint256)": "infinite",
            "balanceOf(address)": "infinite",
            "getApproved(uint256)": "infinite",
            "initialize()": "infinite",
            "initialize(address)": "infinite",
            "initialize(string,string)": "infinite",
            "initialize(string,string,address[],address[])": "infinite",
            "isApprovedForAll(address,address)": "772",
            "isMinter(address)": "infinite",
            "isPauser(address)": "infinite",
            "mintWithTokenURI(address,uint256,string)": "infinite",
            "name()": "infinite",
            "ownerOf(uint256)": "infinite",
            "pause()": "infinite",
            "paused()": "499",
            "renounceMinter()": "infinite",
            "renouncePauser()": "infinite",
            "safeTransferFrom(address,address,uint256)": "infinite",
            "safeTransferFrom(address,address,uint256,bytes)": "infinite",
            "setApprovalForAll(address,bool)": "infinite",
            "supportsInterface(bytes4)": "607",
            "symbol()": "infinite",
            "tokenByIndex(uint256)": "infinite",
            "tokenOfOwnerByIndex(address,uint256)": "infinite",
            "tokenURI(uint256)": "infinite",
            "totalSupply()": "466",
            "transferFrom(address,address,uint256)": "infinite",
            "unpause()": "infinite"
        }
    }
}