{
    "contractName": "Verify",
    "abi": [
        {
            "constant": true,
            "inputs": [
                {
                    "internalType": "bytes32",
                    "name": "root",
                    "type": "bytes32"
                },
                {
                    "internalType": "bytes32",
                    "name": "leaf",
                    "type": "bytes32"
                },
                {
                    "internalType": "bytes32[]",
                    "name": "proof",
                    "type": "bytes32[]"
                },
                {
                    "internalType": "uint256[]",
                    "name": "positions",
                    "type": "uint256[]"
                }
            ],
            "name": "merkleVerify",
            "outputs": [
                {
                    "internalType": "bool",
                    "name": "",
                    "type": "bool"
                }
            ],
            "payable": false,
            "stateMutability": "pure",
            "type": "function"
        },
        {
            "constant": true,
            "inputs": [
                {
                    "internalType": "string",
                    "name": "_word",
                    "type": "string"
                },
                {
                    "internalType": "bytes32",
                    "name": "_root",
                    "type": "bytes32"
                },
                {
                    "internalType": "bytes32",
                    "name": "_leaf",
                    "type": "bytes32"
                },
                {
                    "internalType": "bytes32[]",
                    "name": "_proof",
                    "type": "bytes32[]"
                },
                {
                    "internalType": "uint256[]",
                    "name": "_positions",
                    "type": "uint256[]"
                }
            ],
            "name": "isValidData",
            "outputs": [
                {
                    "internalType": "bool",
                    "name": "",
                    "type": "bool"
                }
            ],
            "payable": false,
            "stateMutability": "pure",
            "type": "function"
        }
    ],
    "bytecode": "608060405234801561001057600080fd5b506104bd806100206000396000f3fe608060405234801561001057600080fd5b50600436106100365760003560e01c80630e499d201461003b57806387b8d1e21461017e575b600080fd5b61016a6004803603608081101561005157600080fd5b813591602081013591810190606081016040820135600160201b81111561007757600080fd5b82018360208201111561008957600080fd5b803590602001918460208302840111600160201b831117156100aa57600080fd5b9190808060200260200160405190810160405280939291908181526020018383602002808284376000920191909152509295949360208101935035915050600160201b8111156100f957600080fd5b82018360208201111561010b57600080fd5b803590602001918460208302840111600160201b8311171561012c57600080fd5b919080806020026020016040519081016040528093929190818152602001838360200280828437600092019190915250929550610332945050505050565b604080519115158252519081900360200190f35b61016a600480360360a081101561019457600080fd5b810190602081018135600160201b8111156101ae57600080fd5b8201836020820111156101c057600080fd5b803590602001918460018302840111600160201b831117156101e157600080fd5b91908080601f0160208091040260200160405190810160405280939291908181526020018383808284376000920191909152509295843595602086013595919450925060608101915060400135600160201b81111561023f57600080fd5b82018360208201111561025157600080fd5b803590602001918460208302840111600160201b8311171561027257600080fd5b9190808060200260200160405190810160405280939291908181526020018383602002808284376000920191909152509295949360208101935035915050600160201b8111156102c157600080fd5b8201836020820111156102d357600080fd5b803590602001918460208302840111600160201b831117156102f457600080fd5b9190808060200260200160405190810160405280939291908181526020018383602002808284376000920191909152509295506103f1945050505050565b600083815b84518110156103e557600085828151811061034e57fe5b6020026020010151905084828151811061036457fe5b6020026020010151600114156103aa57828160405160200180838152602001828152602001925050506040516020818303038152906040528051906020012092506103dc565b808360405160200180838152602001828152602001925050506040516020818303038152906040528051906020012092505b50600101610337565b50909414949350505050565b600083866040516020018082805190602001908083835b602083106104275780518252601f199092019160209182019101610408565b6001836020036101000a03801982511681845116808217855250505050505090500191505060405160208183030381529060405280519060200120141561047b5761047485858585610332565b905061047f565b5060005b9594505050505056fea265627a7a72315820d20f32fdf925ddee25c59dcee118aecd147a1287755213c8cc1fc355c882b1ca64736f6c634300050b0032",
    "sourcePath": "/Users/dennison/Documents/MerkleMint/contracts/merkleProof/Verify.sol",
    "compiler": {
        "name": "solc",
        "version": "0.5.11+commit.c082d0b4"
    },
    "functionHashes": {
        "isValidData(string,bytes32,bytes32,bytes32[],uint256[])": "87b8d1e2",
        "merkleVerify(bytes32,bytes32,bytes32[],uint256[])": "0e499d20"
    },
    "gasEstimates": {
        "creation": {
            "codeDepositCost": "242600",
            "executionCost": "281",
            "totalCost": "242881"
        },
        "external": {
            "isValidData(string,bytes32,bytes32,bytes32[],uint256[])": "infinite",
            "merkleVerify(bytes32,bytes32,bytes32[],uint256[])": "infinite"
        }
    }
}