{
  "fileName": "ERC721Metadata.sol",
  "contractName": "ERC721Metadata",
  "source": "pragma solidity ^0.5.0;\n\nimport \"@openzeppelin/upgrades/contracts/Initializable.sol\";\n\nimport \"../../GSN/Context.sol\";\nimport \"./ERC721.sol\";\nimport \"./IERC721Metadata.sol\";\nimport \"../../introspection/ERC165.sol\";\n\ncontract ERC721Metadata is Initializable, Context, ERC165, ERC721, IERC721Metadata {\n    // Token name\n    string private _name;\n\n    // Token symbol\n    string private _symbol;\n\n    // Optional mapping for token URIs\n    mapping(uint256 => string) private _tokenURIs;\n\n    /*\n     *     bytes4(keccak256('name()')) == 0x06fdde03\n     *     bytes4(keccak256('symbol()')) == 0x95d89b41\n     *     bytes4(keccak256('tokenURI(uint256)')) == 0xc87b56dd\n     *\n     *     => 0x06fdde03 ^ 0x95d89b41 ^ 0xc87b56dd == 0x5b5e139f\n     */\n    bytes4 private constant _INTERFACE_ID_ERC721_METADATA = 0x5b5e139f;\n\n    /**\n     * @dev Constructor function\n     */\n    function initialize(string memory name, string memory symbol) public initializer {\n        require(ERC721._hasBeenInitialized());\n\n        _name = name;\n        _symbol = symbol;\n\n        // register the supported interfaces to conform to ERC721 via ERC165\n        _registerInterface(_INTERFACE_ID_ERC721_METADATA);\n    }\n\n    function _hasBeenInitialized() internal view returns (bool) {\n        return supportsInterface(_INTERFACE_ID_ERC721_METADATA);\n    }\n\n    /**\n     * @dev Gets the token name.\n     * @return string representing the token name\n     */\n    function name() external view returns (string memory) {\n        return _name;\n    }\n\n    /**\n     * @dev Gets the token symbol.\n     * @return string representing the token symbol\n     */\n    function symbol() external view returns (string memory) {\n        return _symbol;\n    }\n\n    /**\n     * @dev Returns an URI for a given token ID.\n     * Throws if the token ID does not exist. May return an empty string.\n     * @param tokenId uint256 ID of the token to query\n     */\n    function tokenURI(uint256 tokenId) external view returns (string memory) {\n        require(_exists(tokenId), \"ERC721Metadata: URI query for nonexistent token\");\n        return _tokenURIs[tokenId];\n    }\n\n    /**\n     * @dev Internal function to set the token URI for a given token.\n     * Reverts if the token ID does not exist.\n     * @param tokenId uint256 ID of the token to set its URI\n     * @param uri string URI to assign\n     */\n    function _setTokenURI(uint256 tokenId, string memory uri) internal {\n        require(_exists(tokenId), \"ERC721Metadata: URI set of nonexistent token\");\n        _tokenURIs[tokenId] = uri;\n    }\n\n    /**\n     * @dev Internal function to burn a specific token.\n     * Reverts if the token does not exist.\n     * Deprecated, use _burn(uint256) instead.\n     * @param owner owner of the token to burn\n     * @param tokenId uint256 ID of the token being burned by the msg.sender\n     */\n    function _burn(address owner, uint256 tokenId) internal {\n        super._burn(owner, tokenId);\n\n        // Clear metadata (if any)\n        if (bytes(_tokenURIs[tokenId]).length != 0) {\n            delete _tokenURIs[tokenId];\n        }\n    }\n\n    uint256[50] private ______gap;\n}\n",
  "sourcePath": "@openzeppelin/contracts-ethereum-package/contracts/token/ERC721/ERC721Metadata.sol",
  "abi": [
    {
      "anonymous": false,
      "inputs": [
        {
          "indexed": true,
          "internalType": "address",
          "name": "owner",
          "type": "address"
        },
        {
          "indexed": true,
          "internalType": "address",
          "name": "approved",
          "type": "address"
        },
        {
          "indexed": true,
          "internalType": "uint256",
          "name": "tokenId",
          "type": "uint256"
        }
      ],
      "name": "Approval",
      "type": "event"
    },
    {
      "anonymous": false,
      "inputs": [
        {
          "indexed": true,
          "internalType": "address",
          "name": "owner",
          "type": "address"
        },
        {
          "indexed": true,
          "internalType": "address",
          "name": "operator",
          "type": "address"
        },
        {
          "indexed": false,
          "internalType": "bool",
          "name": "approved",
          "type": "bool"
        }
      ],
      "name": "ApprovalForAll",
      "type": "event"
    },
    {
      "anonymous": false,
      "inputs": [
        {
          "indexed": true,
          "internalType": "address",
          "name": "from",
          "type": "address"
        },
        {
          "indexed": true,
          "internalType": "address",
          "name": "to",
          "type": "address"
        },
        {
          "indexed": true,
          "internalType": "uint256",
          "name": "tokenId",
          "type": "uint256"
        }
      ],
      "name": "Transfer",
      "type": "event"
    },
    {
      "constant": false,
      "inputs": [
        {
          "internalType": "address",
          "name": "to",
          "type": "address"
        },
        {
          "internalType": "uint256",
          "name": "tokenId",
          "type": "uint256"
        }
      ],
      "name": "approve",
      "outputs": [],
      "payable": false,
      "stateMutability": "nonpayable",
      "type": "function"
    },
    {
      "constant": true,
      "inputs": [
        {
          "internalType": "address",
          "name": "owner",
          "type": "address"
        }
      ],
      "name": "balanceOf",
      "outputs": [
        {
          "internalType": "uint256",
          "name": "",
          "type": "uint256"
        }
      ],
      "payable": false,
      "stateMutability": "view",
      "type": "function"
    },
    {
      "constant": true,
      "inputs": [
        {
          "internalType": "uint256",
          "name": "tokenId",
          "type": "uint256"
        }
      ],
      "name": "getApproved",
      "outputs": [
        {
          "internalType": "address",
          "name": "",
          "type": "address"
        }
      ],
      "payable": false,
      "stateMutability": "view",
      "type": "function"
    },
    {
      "constant": false,
      "inputs": [
        {
          "internalType": "string",
          "name": "name",
          "type": "string"
        },
        {
          "internalType": "string",
          "name": "symbol",
          "type": "string"
        }
      ],
      "name": "initialize",
      "outputs": [],
      "payable": false,
      "stateMutability": "nonpayable",
      "type": "function"
    },
    {
      "constant": false,
      "inputs": [],
      "name": "initialize",
      "outputs": [],
      "payable": false,
      "stateMutability": "nonpayable",
      "type": "function"
    },
    {
      "constant": true,
      "inputs": [
        {
          "internalType": "address",
          "name": "owner",
          "type": "address"
        },
        {
          "internalType": "address",
          "name": "operator",
          "type": "address"
        }
      ],
      "name": "isApprovedForAll",
      "outputs": [
        {
          "internalType": "bool",
          "name": "",
          "type": "bool"
        }
      ],
      "payable": false,
      "stateMutability": "view",
      "type": "function"
    },
    {
      "constant": true,
      "inputs": [],
      "name": "name",
      "outputs": [
        {
          "internalType": "string",
          "name": "",
          "type": "string"
        }
      ],
      "payable": false,
      "stateMutability": "view",
      "type": "function"
    },
    {
      "constant": true,
      "inputs": [
        {
          "internalType": "uint256",
          "name": "tokenId",
          "type": "uint256"
        }
      ],
      "name": "ownerOf",
      "outputs": [
        {
          "internalType": "address",
          "name": "",
          "type": "address"
        }
      ],
      "payable": false,
      "stateMutability": "view",
      "type": "function"
    },
    {
      "constant": false,
      "inputs": [
        {
          "internalType": "address",
          "name": "from",
          "type": "address"
        },
        {
          "internalType": "address",
          "name": "to",
          "type": "address"
        },
        {
          "internalType": "uint256",
          "name": "tokenId",
          "type": "uint256"
        }
      ],
      "name": "safeTransferFrom",
      "outputs": [],
      "payable": false,
      "stateMutability": "nonpayable",
      "type": "function"
    },
    {
      "constant": false,
      "inputs": [
        {
          "internalType": "address",
          "name": "from",
          "type": "address"
        },
        {
          "internalType": "address",
          "name": "to",
          "type": "address"
        },
        {
          "internalType": "uint256",
          "name": "tokenId",
          "type": "uint256"
        },
        {
          "internalType": "bytes",
          "name": "_data",
          "type": "bytes"
        }
      ],
      "name": "safeTransferFrom",
      "outputs": [],
      "payable": false,
      "stateMutability": "nonpayable",
      "type": "function"
    },
    {
      "constant": false,
      "inputs": [
        {
          "internalType": "address",
          "name": "to",
          "type": "address"
        },
        {
          "internalType": "bool",
          "name": "approved",
          "type": "bool"
        }
      ],
      "name": "setApprovalForAll",
      "outputs": [],
      "payable": false,
      "stateMutability": "nonpayable",
      "type": "function"
    },
    {
      "constant": true,
      "inputs": [
        {
          "internalType": "bytes4",
          "name": "interfaceId",
          "type": "bytes4"
        }
      ],
      "name": "supportsInterface",
      "outputs": [
        {
          "internalType": "bool",
          "name": "",
          "type": "bool"
        }
      ],
      "payable": false,
      "stateMutability": "view",
      "type": "function"
    },
    {
      "constant": true,
      "inputs": [],
      "name": "symbol",
      "outputs": [
        {
          "internalType": "string",
          "name": "",
          "type": "string"
        }
      ],
      "payable": false,
      "stateMutability": "view",
      "type": "function"
    },
    {
      "constant": true,
      "inputs": [
        {
          "internalType": "uint256",
          "name": "tokenId",
          "type": "uint256"
        }
      ],
      "name": "tokenURI",
      "outputs": [
        {
          "internalType": "string",
          "name": "",
          "type": "string"
        }
      ],
      "payable": false,
      "stateMutability": "view",
      "type": "function"
    },
    {
      "constant": false,
      "inputs": [
        {
          "internalType": "address",
          "name": "from",
          "type": "address"
        },
        {
          "internalType": "address",
          "name": "to",
          "type": "address"
        },
        {
          "internalType": "uint256",
          "name": "tokenId",
          "type": "uint256"
        }
      ],
      "name": "transferFrom",
      "outputs": [],
      "payable": false,
      "stateMutability": "nonpayable",
      "type": "function"
    }
  ],
  "bytecode": "0x60806040525b5b61000b565b6123d38061001a6000396000f3fe60806040523480156100115760006000fd5b50600436106100fa5760003560e01c80636352211e11610098578063a22cb46511610067578063a22cb4651461063d578063b88d4fde1461068e578063c87b56dd1461079b578063e985e9c514610844576100fa565b80636352211e146104e757806370a08231146105565780638129fc1c146105af57806395d89b41146105b9576100fa565b8063095ea7b3116100d4578063095ea7b31461025957806323b872dd146102a857806342842e0e146103175780634cd88b7614610386576100fa565b806301ffc9a71461010057806306fdde0314610166578063081812fc146101ea576100fa565b60006000fd5b61014c600480360360208110156101175760006000fd5b8101908080357bffffffffffffffffffffffffffffffffffffffffffffffffffffffff191690602001909291905050506108c1565b604051808215151515815260200191505060405180910390f35b61016e610931565b6040518080602001828103825283818151815260200191508051906020019080838360005b838110156101af5780820151818401525b602081019050610193565b50505050905090810190601f1680156101dc5780820380516001836020036101000a031916815260200191505b509250505060405180910390f35b610217600480360360208110156102015760006000fd5b81019080803590602001909291905050506109db565b604051808273ffffffffffffffffffffffffffffffffffffffff1673ffffffffffffffffffffffffffffffffffffffff16815260200191505060405180910390f35b6102a6600480360360408110156102705760006000fd5b81019080803573ffffffffffffffffffffffffffffffffffffffff16906020019092919080359060200190929190505050610a86565b005b610315600480360360608110156102bf5760006000fd5b81019080803573ffffffffffffffffffffffffffffffffffffffff169060200190929190803573ffffffffffffffffffffffffffffffffffffffff16906020019092919080359060200190929190505050610c8d565b005b6103846004803603606081101561032e5760006000fd5b81019080803573ffffffffffffffffffffffffffffffffffffffff169060200190929190803573ffffffffffffffffffffffffffffffffffffffff16906020019092919080359060200190929190505050610d18565b005b6104e56004803603604081101561039d5760006000fd5b81019080803590602001906401000000008111156103bb5760006000fd5b8201836020820111156103ce5760006000fd5b803590602001918460018302840111640100000000831117156103f15760006000fd5b91908080601f016020809104026020016040519081016040528093929190818152602001838380828437600081840152601f19601f82011690508083019250505050505050909091929090919290803590602001906401000000008111156104595760006000fd5b82018360208201111561046c5760006000fd5b8035906020019184600183028401116401000000008311171561048f5760006000fd5b91908080601f016020809104026020016040519081016040528093929190818152602001838380828437600081840152601f19601f82011690508083019250505050505050909091929090919290505050610d42565b005b610514600480360360208110156104fe5760006000fd5b8101908080359060200190929190505050610eb5565b604051808273ffffffffffffffffffffffffffffffffffffffff1673ffffffffffffffffffffffffffffffffffffffff16815260200191505060405180910390f35b6105996004803603602081101561056d5760006000fd5b81019080803573ffffffffffffffffffffffffffffffffffffffff169060200190929190505050610f89565b6040518082815260200191505060405180910390f35b6105b7611074565b005b6105c16111a5565b6040518080602001828103825283818151815260200191508051906020019080838360005b838110156106025780820151818401525b6020810190506105e6565b50505050905090810190601f16801561062f5780820380516001836020036101000a031916815260200191505b509250505060405180910390f35b61068c600480360360408110156106545760006000fd5b81019080803573ffffffffffffffffffffffffffffffffffffffff16906020019092919080351515906020019092919050505061124f565b005b610799600480360360808110156106a55760006000fd5b81019080803573ffffffffffffffffffffffffffffffffffffffff169060200190929190803573ffffffffffffffffffffffffffffffffffffffff169060200190929190803590602001909291908035906020019064010000000081111561070d5760006000fd5b8201836020820111156107205760006000fd5b803590602001918460018302840111640100000000831117156107435760006000fd5b91908080601f016020809104026020016040519081016040528093929190818152602001838380828437600081840152601f19601f82011690508083019250505050505050909091929090919290505050611425565b005b6107c8600480360360208110156107b25760006000fd5b81019080803590602001909291905050506114a6565b6040518080602001828103825283818151815260200191508051906020019080838360005b838110156108095780820151818401525b6020810190506107ed565b50505050905090810190601f1680156108365780820380516001836020036101000a031916815260200191505b509250505060405180910390f35b6108a76004803603604081101561085b5760006000fd5b81019080803573ffffffffffffffffffffffffffffffffffffffff169060200190929190803573ffffffffffffffffffffffffffffffffffffffff1690602001909291905050506115cc565b604051808215151515815260200191505060405180910390f35b600060336000506000837bffffffffffffffffffffffffffffffffffffffffffffffffffffffff19167bffffffffffffffffffffffffffffffffffffffffffffffffffffffff1916815260200190815260200160002060009054906101000a900460ff16905061092c565b919050565b6060609c6000508054600181600116156101000203166002900480601f0160208091040260200160405190810160405280929190818152602001828054600181600116156101000203166002900480156109cc5780601f106109a1576101008083540402835291602001916109cc565b820191906000526020600020905b8154815290600101906020018083116109af57829003601f168201915b505050505090506109d8565b90565b60006109ec8261166b63ffffffff16565b1515610a43576040517f08c379a000000000000000000000000000000000000000000000000000000000815260040180806020018281038252602c81526020018061229b602c913960400191505060405180910390fd5b6067600050600083815260200190815260200160002060009054906101000a900473ffffffffffffffffffffffffffffffffffffffff169050610a81565b919050565b6000610a9782610eb563ffffffff16565b90508073ffffffffffffffffffffffffffffffffffffffff168373ffffffffffffffffffffffffffffffffffffffff1614151515610b20576040517f08c379a000000000000000000000000000000000000000000000000000000000815260040180806020018281038252602181526020018061234d6021913960400191505060405180910390fd5b8073ffffffffffffffffffffffffffffffffffffffff16610b456116e763ffffffff16565b73ffffffffffffffffffffffffffffffffffffffff161480610b805750610b7f81610b746116e763ffffffff16565b6115cc63ffffffff16565b5b1515610bd7576040517f08c379a00000000000000000000000000000000000000000000000000000000081526004018080602001828103825260388152602001806122106038913960400191505060405180910390fd5b826067600050600084815260200190815260200160002060006101000a81548173ffffffffffffffffffffffffffffffffffffffff021916908373ffffffffffffffffffffffffffffffffffffffff160217905550818373ffffffffffffffffffffffffffffffffffffffff168273ffffffffffffffffffffffffffffffffffffffff167f8c5be1e5ebec7d5bd14f71427d1e84f3dd0314c0f7b2291e5b200ac8c7c3b92560405160405180910390a4505b5050565b610caa610c9e6116e763ffffffff16565b826116f463ffffffff16565b1515610d01576040517f08c379a000000000000000000000000000000000000000000000000000000000815260040180806020018281038252603181526020018061236e6031913960400191505060405180910390fd5b610d1283838361180863ffffffff16565b5b505050565b610d3c8383836040518060200160405280600081526020015061142563ffffffff16565b5b505050565b600060019054906101000a900460ff1680610d675750610d66611a9363ffffffff16565b5b80610d7f5750600060009054906101000a900460ff16155b1515610dd6576040517f08c379a000000000000000000000000000000000000000000000000000000000815260040180806020018281038252602e8152602001806122c7602e913960400191505060405180910390fd5b6000600060019054906101000a900460ff161590508015610e28576001600060016101000a81548160ff0219169083151502179055506001600060006101000a81548160ff0219169083151502179055505b610e36611aab63ffffffff16565b1515610e425760006000fd5b82609c6000509080519060200190610e5b9291906120dd565b5081609d6000509080519060200190610e759291906120dd565b50610e8c635b5e139f60e01b611acd63ffffffff16565b5b8015610eaf576000600060016101000a81548160ff0219169083151502179055505b505b5050565b600060006066600050600084815260200190815260200160002060009054906101000a900473ffffffffffffffffffffffffffffffffffffffff169050600073ffffffffffffffffffffffffffffffffffffffff168173ffffffffffffffffffffffffffffffffffffffff1614151515610f7a576040517f08c379a00000000000000000000000000000000000000000000000000000000081526004018080602001828103825260298152602001806122726029913960400191505060405180910390fd5b80915050610f8456505b919050565b6000600073ffffffffffffffffffffffffffffffffffffffff168273ffffffffffffffffffffffffffffffffffffffff1614151515611013576040517f08c379a000000000000000000000000000000000000000000000000000000000815260040180806020018281038252602a815260200180612248602a913960400191505060405180910390fd5b611068606860005060008473ffffffffffffffffffffffffffffffffffffffff1673ffffffffffffffffffffffffffffffffffffffff168152602001908152602001600020600050611bdf909063ffffffff16565b905061106f565b919050565b600060019054906101000a900460ff16806110995750611098611a9363ffffffff16565b5b806110b15750600060009054906101000a900460ff16155b1515611108576040517f08c379a000000000000000000000000000000000000000000000000000000000815260040180806020018281038252602e8152602001806122c7602e913960400191505060405180910390fd5b6000600060019054906101000a900460ff16159050801561115a576001600060016101000a81548160ff0219169083151502179055506001600060006101000a81548160ff0219169083151502179055505b611168611bf563ffffffff16565b61117e6380ac58cd60e01b611acd63ffffffff16565b5b80156111a1576000600060016101000a81548160ff0219169083151502179055505b505b565b6060609d6000508054600181600116156101000203166002900480601f0160208091040260200160405190810160405280929190818152602001828054600181600116156101000203166002900480156112405780601f1061121557610100808354040283529160200191611240565b820191906000526020600020905b81548152906001019060200180831161122357829003601f168201915b5050505050905061124c565b90565b61125d6116e763ffffffff16565b73ffffffffffffffffffffffffffffffffffffffff168273ffffffffffffffffffffffffffffffffffffffff1614151515611303576040517f08c379a00000000000000000000000000000000000000000000000000000000081526004018080602001828103825260198152602001807f4552433732313a20617070726f766520746f2063616c6c65720000000000000081526020015060200191505060405180910390fd5b80606960005060006113196116e763ffffffff16565b73ffffffffffffffffffffffffffffffffffffffff1673ffffffffffffffffffffffffffffffffffffffff16815260200190815260200160002060005060008473ffffffffffffffffffffffffffffffffffffffff1673ffffffffffffffffffffffffffffffffffffffff16815260200190815260200160002060006101000a81548160ff0219169083151502179055508173ffffffffffffffffffffffffffffffffffffffff166113cf6116e763ffffffff16565b73ffffffffffffffffffffffffffffffffffffffff167f17307eab39ab6107e8899845ad3d59bd9653f200f220920489ca2b5937696c3183604051808215151515815260200191505060405180910390a35b5050565b611436848484610c8d63ffffffff16565b61144884848484611d1863ffffffff16565b151561149f576040517f08c379a000000000000000000000000000000000000000000000000000000000815260040180806020018281038252603281526020018061218e6032913960400191505060405180910390fd5b5b50505050565b60606114b78261166b63ffffffff16565b151561150e576040517f08c379a000000000000000000000000000000000000000000000000000000000815260040180806020018281038252602f81526020018061231e602f913960400191505060405180910390fd5b609e60005060008381526020019081526020016000206000508054600181600116156101000203166002900480601f0160208091040260200160405190810160405280929190818152602001828054600181600116156101000203166002900480156115bb5780601f10611590576101008083540402835291602001916115bb565b820191906000526020600020905b81548152906001019060200180831161159e57829003601f168201915b505050505090506115c7565b919050565b6000606960005060008473ffffffffffffffffffffffffffffffffffffffff1673ffffffffffffffffffffffffffffffffffffffff16815260200190815260200160002060005060008373ffffffffffffffffffffffffffffffffffffffff1673ffffffffffffffffffffffffffffffffffffffff16815260200190815260200160002060009054906101000a900460ff169050611665565b92915050565b600060006066600050600084815260200190815260200160002060009054906101000a900473ffffffffffffffffffffffffffffffffffffffff169050600073ffffffffffffffffffffffffffffffffffffffff168173ffffffffffffffffffffffffffffffffffffffff1614159150506116e256505b919050565b60003390506116f1565b90565b60006117058261166b63ffffffff16565b151561175c576040517f08c379a000000000000000000000000000000000000000000000000000000000815260040180806020018281038252602c8152602001806121e4602c913960400191505060405180910390fd5b600061176d83610eb563ffffffff16565b90508073ffffffffffffffffffffffffffffffffffffffff168473ffffffffffffffffffffffffffffffffffffffff1614806117e257508373ffffffffffffffffffffffffffffffffffffffff166117ca846109db63ffffffff16565b73ffffffffffffffffffffffffffffffffffffffff16145b806117f957506117f881856115cc63ffffffff16565b5b91505061180256505b92915050565b8273ffffffffffffffffffffffffffffffffffffffff1661182e82610eb563ffffffff16565b73ffffffffffffffffffffffffffffffffffffffff1614151561189c576040517f08c379a00000000000000000000000000000000000000000000000000000000081526004018080602001828103825260298152602001806122f56029913960400191505060405180910390fd5b600073ffffffffffffffffffffffffffffffffffffffff168273ffffffffffffffffffffffffffffffffffffffff1614151515611924576040517f08c379a00000000000000000000000000000000000000000000000000000000081526004018080602001828103825260248152602001806121c06024913960400191505060405180910390fd5b61193381611f2163ffffffff16565b611988606860005060008573ffffffffffffffffffffffffffffffffffffffff1673ffffffffffffffffffffffffffffffffffffffff168152602001908152602001600020600050611fe8909063ffffffff16565b6119dd606860005060008473ffffffffffffffffffffffffffffffffffffffff1673ffffffffffffffffffffffffffffffffffffffff168152602001908152602001600020600050612014909063ffffffff16565b816066600050600083815260200190815260200160002060006101000a81548173ffffffffffffffffffffffffffffffffffffffff021916908373ffffffffffffffffffffffffffffffffffffffff160217905550808273ffffffffffffffffffffffffffffffffffffffff168473ffffffffffffffffffffffffffffffffffffffff167fddf252ad1be2c89b69c2b068fc378daa952ba7f163c4a11628f55a4df523b3ef60405160405180910390a45b505050565b60006000303b905060008114915050611aa856505b90565b6000611ac36380ac58cd60e01b6108c163ffffffff16565b9050611aca565b90565b63ffffffff60e01b817bffffffffffffffffffffffffffffffffffffffffffffffffffffffff191614151515611b6e576040517f08c379a000000000000000000000000000000000000000000000000000000000815260040180806020018281038252601c8152602001807f4552433136353a20696e76616c696420696e746572666163652069640000000081526020015060200191505060405180910390fd5b600160336000506000837bffffffffffffffffffffffffffffffffffffffffffffffffffffffff19167bffffffffffffffffffffffffffffffffffffffffffffffffffffffff1916815260200190815260200160002060006101000a81548160ff0219169083151502179055505b50565b600081600001600050549050611bf0565b919050565b600060019054906101000a900460ff1680611c1a5750611c19611a9363ffffffff16565b5b80611c325750600060009054906101000a900460ff16155b1515611c89576040517f08c379a000000000000000000000000000000000000000000000000000000000815260040180806020018281038252602e8152602001806122c7602e913960400191505060405180910390fd5b6000600060019054906101000a900460ff161590508015611cdb576001600060016101000a81548160ff0219169083151502179055506001600060006101000a81548160ff0219169083151502179055505b611cf16301ffc9a760e01b611acd63ffffffff16565b5b8015611d14576000600060016101000a81548160ff0219169083151502179055505b505b565b6000611d418473ffffffffffffffffffffffffffffffffffffffff1661202f909063ffffffff16565b1515611d505760019050611f19565b60008473ffffffffffffffffffffffffffffffffffffffff1663150b7a02611d7c6116e763ffffffff16565b8887876040518563ffffffff1660e01b8152600401808573ffffffffffffffffffffffffffffffffffffffff1673ffffffffffffffffffffffffffffffffffffffff1681526020018473ffffffffffffffffffffffffffffffffffffffff1673ffffffffffffffffffffffffffffffffffffffff16815260200183815260200180602001828103825283818151815260200191508051906020019080838360005b83811015611e395780820151818401525b602081019050611e1d565b50505050905090810190601f168015611e665780820380516001836020036101000a031916815260200191505b5095505050505050602060405180830381600087803b158015611e895760006000fd5b505af1158015611e9e573d600060003e3d6000fd5b505050506040513d6020811015611eb55760006000fd5b8101908080519060200190929190505050905063150b7a0260e01b7bffffffffffffffffffffffffffffffffffffffffffffffffffffffff1916817bffffffffffffffffffffffffffffffffffffffffffffffffffffffff191614915050611f1956505b949350505050565b600073ffffffffffffffffffffffffffffffffffffffff166067600050600083815260200190815260200160002060009054906101000a900473ffffffffffffffffffffffffffffffffffffffff1673ffffffffffffffffffffffffffffffffffffffff16141515611fe45760006067600050600083815260200190815260200160002060006101000a81548173ffffffffffffffffffffffffffffffffffffffff021916908373ffffffffffffffffffffffffffffffffffffffff1602179055505b5b50565b6120036001826000016000505461204990919063ffffffff16565b816000016000508190909055505b50565b60018160000160008282825054019250508190909055505b50565b60006000823b90506000811191505061204456505b919050565b60008282111515156120c6576040517f08c379a000000000000000000000000000000000000000000000000000000000815260040180806020018281038252601e8152602001807f536166654d6174683a207375627472616374696f6e206f766572666c6f77000081526020015060200191505060405180910390fd5b60008284039050809150506120d756505b92915050565b828054600181600116156101000203166002900490600052602060002090601f016020900481019282601f1061211e57805160ff1916838001178555612151565b82800160010185558215612151579182015b828111156121505782518260005090905591602001919060010190612130565b5b50905061215e9190612162565b5090565b61218a919061216c565b80821115612186576000818150600090555060010161216c565b5090565b9056fe4552433732313a207472616e7366657220746f206e6f6e20455243373231526563656976657220696d706c656d656e7465724552433732313a207472616e7366657220746f20746865207a65726f20616464726573734552433732313a206f70657261746f7220717565727920666f72206e6f6e6578697374656e7420746f6b656e4552433732313a20617070726f76652063616c6c6572206973206e6f74206f776e6572206e6f7220617070726f76656420666f7220616c6c4552433732313a2062616c616e636520717565727920666f7220746865207a65726f20616464726573734552433732313a206f776e657220717565727920666f72206e6f6e6578697374656e7420746f6b656e4552433732313a20617070726f76656420717565727920666f72206e6f6e6578697374656e7420746f6b656e436f6e747261637420696e7374616e63652068617320616c7265616479206265656e20696e697469616c697a65644552433732313a207472616e73666572206f6620746f6b656e2074686174206973206e6f74206f776e4552433732314d657461646174613a2055524920717565727920666f72206e6f6e6578697374656e7420746f6b656e4552433732313a20617070726f76616c20746f2063757272656e74206f776e65724552433732313a207472616e736665722063616c6c6572206973206e6f74206f776e6572206e6f7220617070726f766564a265627a7a7231582019ed0d9f48fbd9aac9f7b2f74b313359cb361238b3277718a012707beeebb02164736f6c634300050c0032",
  "compiler": {
    "name": "solc",
    "version": "0.5.12+commit.7709ece9.Darwin.appleclang",
    "optimizer": {},
    "evmVersion": "constantinople"
  }
}