{
  "fileName": "MerkleProof.sol",
  "contractName": "MerkleProof",
  "source": "pragma solidity ^0.5.0;\n\n/**\n * @dev These functions deal with verification of Merkle trees (hash trees),\n */\ncontract MerkleProof {\n    /**\n     * @dev Returns true if a `leaf` can be proved to be a part of a Merkle tree\n     * defined by `root`. For this, a `proof` must be provided, containing\n     * sibling hashes on the branch from the leaf to the root of the tree. Each\n     * pair of leaves and each pair of pre-images are assumed to be sorted.\n     */\n    function merkleVerify(\n        bytes32 root,\n        bytes32 leaf,\n        bytes32[] memory proof,\n        uint256[] memory positions\n    ) public pure returns (bool) {\n        bytes32 computedHash = leaf;\n\n        for (uint256 i = 0; i < proof.length; i++) {\n            bytes32 proofElement = proof[i];\n\n            if (positions[i] == 1) {\n                computedHash = keccak256(abi.encodePacked(computedHash, proofElement));\n            } else {\n                computedHash = keccak256(abi.encodePacked(proofElement, computedHash));\n            }\n        }\n\n        return computedHash == root;\n    }\n}\n",
  "sourcePath": "contracts/merkleProof/MerkleProof.sol",
  "abi": [
    {
      "constant": true,
      "inputs": [
        {
          "internalType": "bytes32",
          "name": "root",
          "type": "bytes32"
        },
        {
          "internalType": "bytes32",
          "name": "leaf",
          "type": "bytes32"
        },
        {
          "internalType": "bytes32[]",
          "name": "proof",
          "type": "bytes32[]"
        },
        {
          "internalType": "uint256[]",
          "name": "positions",
          "type": "uint256[]"
        }
      ],
      "name": "merkleVerify",
      "outputs": [
        {
          "internalType": "bool",
          "name": "",
          "type": "bool"
        }
      ],
      "payable": false,
      "stateMutability": "pure",
      "type": "function"
    }
  ],
  "bytecode": "0x60806040523480156100115760006000fd5b50610017565b610301806100266000396000f3fe60806040523480156100115760006000fd5b50600436106100305760003560e01c80630e499d201461003657610030565b60006000fd5b6101ab6004803603608081101561004d5760006000fd5b8101908080356000191690602001909291908035600019169060200190929190803590602001906401000000008111156100875760006000fd5b82018360208201111561009a5760006000fd5b803590602001918460208302840111640100000000831117156100bd5760006000fd5b919080806020026020016040519081016040528093929190818152602001838360200280828437600081840152601f19601f82011690508083019250505050505050909091929090919290803590602001906401000000008111156101225760006000fd5b8201836020820111156101355760006000fd5b803590602001918460208302840111640100000000831117156101585760006000fd5b919080806020026020016040519081016040528093929190818152602001838360200280828437600081840152601f19601f820116905080830192505050505050509090919290909192905050506101c5565b604051808215151515815260200191505060405180910390f35b600060008490506000600090505b84518110156102af57600085828151811015156101ec57fe5b602002602001015190506001858381518110151561020657fe5b6020026020010151141561025c57828160405160200180836000191660001916815260200182600019166000191681526020019250505060405160208183030381529060405280519060200120925082506102a0565b808360405160200180836000191660001916815260200182600019166000191681526020019250505060405160208183030381529060405280519060200120925082505b505b80806001019150506101d3565b5085600019168160001916149150506102c456505b94935050505056fea265627a7a7231582058e7d0522597a07e07dadc5779725419fe48c6a35796b4063207068d30c6873164736f6c634300050c0032",
  "compiler": {
    "name": "solc",
    "version": "0.5.12+commit.7709ece9.Darwin.appleclang",
    "optimizer": {},
    "evmVersion": "constantinople"
  }
}