{
  "fileName": "MerkleMint.sol",
  "contractName": "MerkleMint",
  "source": "pragma solidity ^0.5.0;\n\nimport '@openzeppelin/upgrades/contracts/Initializable.sol';\nimport '@openzeppelin/contracts-ethereum-package/contracts/token/ERC721/StandaloneERC721.sol';\nimport '@openzeppelin/contracts-ethereum-package/contracts/token/ERC721/IERC721Full.sol';\n\n\ncontract MerkleMint is Initializable {\n\nStandaloneERC721 token;\n\nfunction initialize(StandaloneERC721 tokenAddress) public initializer {\n  token = tokenAddress;\n}\n\n\n    /**\n     * @dev Returns the number of NFTs in `owner`'s account.\n     */\n    function balanceOf(address owner) public view returns (uint256 balance){\n      return token.balanceOf(owner);\n    }\n\n    /**\n     * @dev Returns the owner of the NFT specified by `tokenId`.\n     */\n    function ownerOf(uint256 tokenId) public view returns (address owner){\n      return token.ownerOf(tokenId);\n    }\n\n    /**\n     * @dev Transfers a specific NFT (`tokenId`) from one account (`from`) to\n     * another (`to`).\n     *\n     * \n     *\n     * Requirements:\n     * - `from`, `to` cannot be zero.\n     * - `tokenId` must be owned by `from`.\n     * - If the caller is not `from`, it must be have been allowed to move this\n     * NFT by either `approve` or `setApproveForAll`.\n     */\n    function safeTransferFrom(address from, address to, uint256 tokenId) public{\n      token.safeTransferFrom(from, to, tokenId);\n    }\n    /**\n     * @dev Transfers a specific NFT (`tokenId`) from one account (`from`) to\n     * another (`to`).\n     *\n     * Requirements:\n     * - If the caller is not `from`, it must be approved to move this NFT by\n     * either `approve` or `setApproveForAll`.\n     */\n    function transferFrom(address from, address to, uint256 tokenId) public{\n      token.transferFrom(from, to, tokenId);\n    }\n    function approve(address to, uint256 tokenId) public{\n      token.approve(to,tokenId);\n    }\n    function getApproved(uint256 tokenId) public view returns (address operator){\n      return token.getApproved(tokenId);\n    }\n\n    function setApprovalForAll(address operator, bool _approved) public{\n      token.setApprovalForAll(operator,_approved);\n    }\n    function isApprovedForAll(address owner, address operator) public view returns (bool){\n      return isApprovedForAll(owner, operator);\n    }\n\n\n    function safeTransferFrom(address from, address to, uint256 tokenId, bytes memory data) public{\n      token.safeTransferFrom(from,to,tokenId, data);\n    }\n\n        function totalSupply() public view returns (uint256){\n          return token.totalSupply();\n        }   \n        \n        function tokenOfOwnerByIndex(address owner, uint256 index) public view returns (uint256 tokenId){\n            return token.tokenOfOwnerByIndex(owner, index);\n        }\n\n    function tokenByIndex(uint256 index) public view returns (uint256){\n      return token.tokenByIndex(index);\n    }\n\n        function name() external view returns (string memory){\n          return token.name();\n        }\n    function symbol() external view returns (string memory){\n      return token.symbol();\n    }\n    function tokenURI(uint256 tokenId) external view returns (string memory){\n      return token.tokenURI(tokenId);\n    }\n\n}",
  "sourcePath": "contracts/MerkleMint.sol",
  "abi": [
    {
      "constant": false,
      "inputs": [
        {
          "internalType": "address",
          "name": "to",
          "type": "address"
        },
        {
          "internalType": "uint256",
          "name": "tokenId",
          "type": "uint256"
        }
      ],
      "name": "approve",
      "outputs": [],
      "payable": false,
      "stateMutability": "nonpayable",
      "type": "function"
    },
    {
      "constant": true,
      "inputs": [
        {
          "internalType": "address",
          "name": "owner",
          "type": "address"
        }
      ],
      "name": "balanceOf",
      "outputs": [
        {
          "internalType": "uint256",
          "name": "balance",
          "type": "uint256"
        }
      ],
      "payable": false,
      "stateMutability": "view",
      "type": "function"
    },
    {
      "constant": true,
      "inputs": [
        {
          "internalType": "uint256",
          "name": "tokenId",
          "type": "uint256"
        }
      ],
      "name": "getApproved",
      "outputs": [
        {
          "internalType": "address",
          "name": "operator",
          "type": "address"
        }
      ],
      "payable": false,
      "stateMutability": "view",
      "type": "function"
    },
    {
      "constant": false,
      "inputs": [
        {
          "internalType": "contract StandaloneERC721",
          "name": "tokenAddress",
          "type": "address"
        }
      ],
      "name": "initialize",
      "outputs": [],
      "payable": false,
      "stateMutability": "nonpayable",
      "type": "function"
    },
    {
      "constant": true,
      "inputs": [
        {
          "internalType": "address",
          "name": "owner",
          "type": "address"
        },
        {
          "internalType": "address",
          "name": "operator",
          "type": "address"
        }
      ],
      "name": "isApprovedForAll",
      "outputs": [
        {
          "internalType": "bool",
          "name": "",
          "type": "bool"
        }
      ],
      "payable": false,
      "stateMutability": "view",
      "type": "function"
    },
    {
      "constant": true,
      "inputs": [],
      "name": "name",
      "outputs": [
        {
          "internalType": "string",
          "name": "",
          "type": "string"
        }
      ],
      "payable": false,
      "stateMutability": "view",
      "type": "function"
    },
    {
      "constant": true,
      "inputs": [
        {
          "internalType": "uint256",
          "name": "tokenId",
          "type": "uint256"
        }
      ],
      "name": "ownerOf",
      "outputs": [
        {
          "internalType": "address",
          "name": "owner",
          "type": "address"
        }
      ],
      "payable": false,
      "stateMutability": "view",
      "type": "function"
    },
    {
      "constant": false,
      "inputs": [
        {
          "internalType": "address",
          "name": "from",
          "type": "address"
        },
        {
          "internalType": "address",
          "name": "to",
          "type": "address"
        },
        {
          "internalType": "uint256",
          "name": "tokenId",
          "type": "uint256"
        }
      ],
      "name": "safeTransferFrom",
      "outputs": [],
      "payable": false,
      "stateMutability": "nonpayable",
      "type": "function"
    },
    {
      "constant": false,
      "inputs": [
        {
          "internalType": "address",
          "name": "from",
          "type": "address"
        },
        {
          "internalType": "address",
          "name": "to",
          "type": "address"
        },
        {
          "internalType": "uint256",
          "name": "tokenId",
          "type": "uint256"
        },
        {
          "internalType": "bytes",
          "name": "data",
          "type": "bytes"
        }
      ],
      "name": "safeTransferFrom",
      "outputs": [],
      "payable": false,
      "stateMutability": "nonpayable",
      "type": "function"
    },
    {
      "constant": false,
      "inputs": [
        {
          "internalType": "address",
          "name": "operator",
          "type": "address"
        },
        {
          "internalType": "bool",
          "name": "_approved",
          "type": "bool"
        }
      ],
      "name": "setApprovalForAll",
      "outputs": [],
      "payable": false,
      "stateMutability": "nonpayable",
      "type": "function"
    },
    {
      "constant": true,
      "inputs": [],
      "name": "symbol",
      "outputs": [
        {
          "internalType": "string",
          "name": "",
          "type": "string"
        }
      ],
      "payable": false,
      "stateMutability": "view",
      "type": "function"
    },
    {
      "constant": true,
      "inputs": [
        {
          "internalType": "uint256",
          "name": "index",
          "type": "uint256"
        }
      ],
      "name": "tokenByIndex",
      "outputs": [
        {
          "internalType": "uint256",
          "name": "",
          "type": "uint256"
        }
      ],
      "payable": false,
      "stateMutability": "view",
      "type": "function"
    },
    {
      "constant": true,
      "inputs": [
        {
          "internalType": "address",
          "name": "owner",
          "type": "address"
        },
        {
          "internalType": "uint256",
          "name": "index",
          "type": "uint256"
        }
      ],
      "name": "tokenOfOwnerByIndex",
      "outputs": [
        {
          "internalType": "uint256",
          "name": "tokenId",
          "type": "uint256"
        }
      ],
      "payable": false,
      "stateMutability": "view",
      "type": "function"
    },
    {
      "constant": true,
      "inputs": [
        {
          "internalType": "uint256",
          "name": "tokenId",
          "type": "uint256"
        }
      ],
      "name": "tokenURI",
      "outputs": [
        {
          "internalType": "string",
          "name": "",
          "type": "string"
        }
      ],
      "payable": false,
      "stateMutability": "view",
      "type": "function"
    },
    {
      "constant": true,
      "inputs": [],
      "name": "totalSupply",
      "outputs": [
        {
          "internalType": "uint256",
          "name": "",
          "type": "uint256"
        }
      ],
      "payable": false,
      "stateMutability": "view",
      "type": "function"
    },
    {
      "constant": false,
      "inputs": [
        {
          "internalType": "address",
          "name": "from",
          "type": "address"
        },
        {
          "internalType": "address",
          "name": "to",
          "type": "address"
        },
        {
          "internalType": "uint256",
          "name": "tokenId",
          "type": "uint256"
        }
      ],
      "name": "transferFrom",
      "outputs": [],
      "payable": false,
      "stateMutability": "nonpayable",
      "type": "function"
    }
  ],
  "bytecode": "0x60806040523480156100115760006000fd5b50610017565b611827806100266000396000f3fe60806040523480156100115760006000fd5b50600436106101055760003560e01c80636352211e11610098578063b88d4fde11610067578063b88d4fde1461058c578063c4d66de814610699578063c87b56dd146106de578063e985e9c51461078757610105565b80636352211e146103ef57806370a082311461045e57806395d89b41146104b7578063a22cb4651461053b57610105565b806323b872dd116100d457806323b872dd1461026b5780632f745c59146102da57806342842e0e1461033d5780634f6ccce7146103ac57610105565b806306fdde031461010b578063081812fc1461018f578063095ea7b3146101fe57806318160ddd1461024d57610105565b60006000fd5b610113610804565b6040518080602001828103825283818151815260200191508051906020019080838360005b838110156101545780820151818401525b602081019050610138565b50505050905090810190601f1680156101815780820380516001836020036101000a031916815260200191505b509250505060405180910390f35b6101bc600480360360208110156101a65760006000fd5b810190808035906020019092919050505061097b565b604051808273ffffffffffffffffffffffffffffffffffffffff1673ffffffffffffffffffffffffffffffffffffffff16815260200191505060405180910390f35b61024b600480360360408110156102155760006000fd5b81019080803573ffffffffffffffffffffffffffffffffffffffff16906020019092919080359060200190929190505050610a3a565b005b610255610b02565b6040518082815260200191505060405180910390f35b6102d8600480360360608110156102825760006000fd5b81019080803573ffffffffffffffffffffffffffffffffffffffff169060200190929190803573ffffffffffffffffffffffffffffffffffffffff16906020019092919080359060200190929190505050610bb4565b005b610327600480360360408110156102f15760006000fd5b81019080803573ffffffffffffffffffffffffffffffffffffffff16906020019092919080359060200190929190505050610cb1565b6040518082815260200191505060405180910390f35b6103aa600480360360608110156103545760006000fd5b81019080803573ffffffffffffffffffffffffffffffffffffffff169060200190929190803573ffffffffffffffffffffffffffffffffffffffff16906020019092919080359060200190929190505050610da5565b005b6103d9600480360360208110156103c35760006000fd5b8101908080359060200190929190505050610ea2565b6040518082815260200191505060405180910390f35b61041c600480360360208110156104065760006000fd5b8101908080359060200190929190505050610f61565b604051808273ffffffffffffffffffffffffffffffffffffffff1673ffffffffffffffffffffffffffffffffffffffff16815260200191505060405180910390f35b6104a1600480360360208110156104755760006000fd5b81019080803573ffffffffffffffffffffffffffffffffffffffff169060200190929190505050611020565b6040518082815260200191505060405180910390f35b6104bf61110b565b6040518080602001828103825283818151815260200191508051906020019080838360005b838110156105005780820151818401525b6020810190506104e4565b50505050905090810190601f16801561052d5780820380516001836020036101000a031916815260200191505b509250505060405180910390f35b61058a600480360360408110156105525760006000fd5b81019080803573ffffffffffffffffffffffffffffffffffffffff169060200190929190803515159060200190929190505050611282565b005b610697600480360360808110156105a35760006000fd5b81019080803573ffffffffffffffffffffffffffffffffffffffff169060200190929190803573ffffffffffffffffffffffffffffffffffffffff169060200190929190803590602001909291908035906020019064010000000081111561060b5760006000fd5b82018360208201111561061e5760006000fd5b803590602001918460018302840111640100000000831117156106415760006000fd5b91908080601f016020809104026020016040519081016040528093929190818152602001838380828437600081840152601f19601f8201169050808301925050505050505090909192909091929050505061134e565b005b6106dc600480360360208110156106b05760006000fd5b81019080803573ffffffffffffffffffffffffffffffffffffffff1690602001909291905050506114ba565b005b61070b600480360360208110156106f55760006000fd5b8101908080359060200190929190505050611609565b6040518080602001828103825283818151815260200191508051906020019080838360005b8381101561074c5780820151818401525b602081019050610730565b50505050905090810190601f1680156107795780820380516001836020036101000a031916815260200191505b509250505060405180910390f35b6107ea6004803603604081101561079e5760006000fd5b81019080803573ffffffffffffffffffffffffffffffffffffffff169060200190929190803573ffffffffffffffffffffffffffffffffffffffff16906020019092919050505061178d565b604051808215151515815260200191505060405180910390f35b6060603360009054906101000a900473ffffffffffffffffffffffffffffffffffffffff1673ffffffffffffffffffffffffffffffffffffffff166306fdde036040518163ffffffff1660e01b815260040160006040518083038186803b15801561086f5760006000fd5b505afa158015610884573d600060003e3d6000fd5b505050506040513d6000823e3d601f19601f8201168201806040525060208110156108af5760006000fd5b81019080805160405193929190846401000000008211156108d05760006000fd5b838201915060208201858111156108e75760006000fd5b82518660018202830111640100000000821117156109055760006000fd5b8083526020830192505050908051906020019080838360005b8381101561093a5780820151818401525b60208101905061091e565b50505050905090810190601f1680156109675780820380516001836020036101000a031916815260200191505b506040526020015050509050610978565b90565b6000603360009054906101000a900473ffffffffffffffffffffffffffffffffffffffff1673ffffffffffffffffffffffffffffffffffffffff1663081812fc836040518263ffffffff1660e01b81526004018082815260200191505060206040518083038186803b1580156109f15760006000fd5b505afa158015610a06573d600060003e3d6000fd5b505050506040513d6020811015610a1d5760006000fd5b81019080805190602001909291905050509050610a35565b919050565b603360009054906101000a900473ffffffffffffffffffffffffffffffffffffffff1673ffffffffffffffffffffffffffffffffffffffff1663095ea7b383836040518363ffffffff1660e01b8152600401808373ffffffffffffffffffffffffffffffffffffffff1673ffffffffffffffffffffffffffffffffffffffff16815260200182815260200192505050600060405180830381600087803b158015610ae45760006000fd5b505af1158015610af9573d600060003e3d6000fd5b505050505b5050565b6000603360009054906101000a900473ffffffffffffffffffffffffffffffffffffffff1673ffffffffffffffffffffffffffffffffffffffff166318160ddd6040518163ffffffff1660e01b815260040160206040518083038186803b158015610b6d5760006000fd5b505afa158015610b82573d600060003e3d6000fd5b505050506040513d6020811015610b995760006000fd5b81019080805190602001909291905050509050610bb1565b90565b603360009054906101000a900473ffffffffffffffffffffffffffffffffffffffff1673ffffffffffffffffffffffffffffffffffffffff166323b872dd8484846040518463ffffffff1660e01b8152600401808473ffffffffffffffffffffffffffffffffffffffff1673ffffffffffffffffffffffffffffffffffffffff1681526020018373ffffffffffffffffffffffffffffffffffffffff1673ffffffffffffffffffffffffffffffffffffffff1681526020018281526020019350505050600060405180830381600087803b158015610c925760006000fd5b505af1158015610ca7573d600060003e3d6000fd5b505050505b505050565b6000603360009054906101000a900473ffffffffffffffffffffffffffffffffffffffff1673ffffffffffffffffffffffffffffffffffffffff16632f745c5984846040518363ffffffff1660e01b8152600401808373ffffffffffffffffffffffffffffffffffffffff1673ffffffffffffffffffffffffffffffffffffffff1681526020018281526020019250505060206040518083038186803b158015610d5b5760006000fd5b505afa158015610d70573d600060003e3d6000fd5b505050506040513d6020811015610d875760006000fd5b81019080805190602001909291905050509050610d9f565b92915050565b603360009054906101000a900473ffffffffffffffffffffffffffffffffffffffff1673ffffffffffffffffffffffffffffffffffffffff166342842e0e8484846040518463ffffffff1660e01b8152600401808473ffffffffffffffffffffffffffffffffffffffff1673ffffffffffffffffffffffffffffffffffffffff1681526020018373ffffffffffffffffffffffffffffffffffffffff1673ffffffffffffffffffffffffffffffffffffffff1681526020018281526020019350505050600060405180830381600087803b158015610e835760006000fd5b505af1158015610e98573d600060003e3d6000fd5b505050505b505050565b6000603360009054906101000a900473ffffffffffffffffffffffffffffffffffffffff1673ffffffffffffffffffffffffffffffffffffffff16634f6ccce7836040518263ffffffff1660e01b81526004018082815260200191505060206040518083038186803b158015610f185760006000fd5b505afa158015610f2d573d600060003e3d6000fd5b505050506040513d6020811015610f445760006000fd5b81019080805190602001909291905050509050610f5c565b919050565b6000603360009054906101000a900473ffffffffffffffffffffffffffffffffffffffff1673ffffffffffffffffffffffffffffffffffffffff16636352211e836040518263ffffffff1660e01b81526004018082815260200191505060206040518083038186803b158015610fd75760006000fd5b505afa158015610fec573d600060003e3d6000fd5b505050506040513d60208110156110035760006000fd5b8101908080519060200190929190505050905061101b565b919050565b6000603360009054906101000a900473ffffffffffffffffffffffffffffffffffffffff1673ffffffffffffffffffffffffffffffffffffffff166370a08231836040518263ffffffff1660e01b8152600401808273ffffffffffffffffffffffffffffffffffffffff1673ffffffffffffffffffffffffffffffffffffffff16815260200191505060206040518083038186803b1580156110c25760006000fd5b505afa1580156110d7573d600060003e3d6000fd5b505050506040513d60208110156110ee5760006000fd5b81019080805190602001909291905050509050611106565b919050565b6060603360009054906101000a900473ffffffffffffffffffffffffffffffffffffffff1673ffffffffffffffffffffffffffffffffffffffff166395d89b416040518163ffffffff1660e01b815260040160006040518083038186803b1580156111765760006000fd5b505afa15801561118b573d600060003e3d6000fd5b505050506040513d6000823e3d601f19601f8201168201806040525060208110156111b65760006000fd5b81019080805160405193929190846401000000008211156111d75760006000fd5b838201915060208201858111156111ee5760006000fd5b825186600182028301116401000000008211171561120c5760006000fd5b8083526020830192505050908051906020019080838360005b838110156112415780820151818401525b602081019050611225565b50505050905090810190601f16801561126e5780820380516001836020036101000a031916815260200191505b50604052602001505050905061127f565b90565b603360009054906101000a900473ffffffffffffffffffffffffffffffffffffffff1673ffffffffffffffffffffffffffffffffffffffff1663a22cb46583836040518363ffffffff1660e01b8152600401808373ffffffffffffffffffffffffffffffffffffffff1673ffffffffffffffffffffffffffffffffffffffff1681526020018215151515815260200192505050600060405180830381600087803b1580156113305760006000fd5b505af1158015611345573d600060003e3d6000fd5b505050505b5050565b603360009054906101000a900473ffffffffffffffffffffffffffffffffffffffff1673ffffffffffffffffffffffffffffffffffffffff1663b88d4fde858585856040518563ffffffff1660e01b8152600401808573ffffffffffffffffffffffffffffffffffffffff1673ffffffffffffffffffffffffffffffffffffffff1681526020018473ffffffffffffffffffffffffffffffffffffffff1673ffffffffffffffffffffffffffffffffffffffff16815260200183815260200180602001828103825283818151815260200191508051906020019080838360005b8381101561144a5780820151818401525b60208101905061142e565b50505050905090810190601f1680156114775780820380516001836020036101000a031916815260200191505b5095505050505050600060405180830381600087803b15801561149a5760006000fd5b505af11580156114af573d600060003e3d6000fd5b505050505b50505050565b600060019054906101000a900460ff16806114df57506114de6117ac63ffffffff16565b5b806114f75750600060009054906101000a900460ff16155b151561154e576040517f08c379a000000000000000000000000000000000000000000000000000000000815260040180806020018281038252602e8152602001806117c5602e913960400191505060405180910390fd5b6000600060019054906101000a900460ff1615905080156115a0576001600060016101000a81548160ff0219169083151502179055506001600060006101000a81548160ff0219169083151502179055505b81603360006101000a81548173ffffffffffffffffffffffffffffffffffffffff021916908373ffffffffffffffffffffffffffffffffffffffff1602179055505b8015611604576000600060016101000a81548160ff0219169083151502179055505b505b50565b6060603360009054906101000a900473ffffffffffffffffffffffffffffffffffffffff1673ffffffffffffffffffffffffffffffffffffffff1663c87b56dd836040518263ffffffff1660e01b81526004018082815260200191505060006040518083038186803b15801561167f5760006000fd5b505afa158015611694573d600060003e3d6000fd5b505050506040513d6000823e3d601f19601f8201168201806040525060208110156116bf5760006000fd5b81019080805160405193929190846401000000008211156116e05760006000fd5b838201915060208201858111156116f75760006000fd5b82518660018202830111640100000000821117156117155760006000fd5b8083526020830192505050908051906020019080838360005b8381101561174a5780820151818401525b60208101905061172e565b50505050905090810190601f1680156117775780820380516001836020036101000a031916815260200191505b506040526020015050509050611788565b919050565b600061179f838361178d63ffffffff16565b90506117a6565b92915050565b60006000303b9050600081149150506117c156505b9056fe436f6e747261637420696e7374616e63652068617320616c7265616479206265656e20696e697469616c697a6564a265627a7a72315820e165885ffb747ce6025635b76711b530ce8670d4b7037026a50983e98f00faa964736f6c634300050c0032",
  "compiler": {
    "name": "solc",
    "version": "0.5.12+commit.7709ece9.Darwin.appleclang",
    "optimizer": {},
    "evmVersion": "constantinople"
  }
}