{
  "fileName": "MerkleMintCore.sol",
  "contractName": "MerkleMintCore",
  "source": "pragma solidity ^0.5.0;\n\nimport '@openzeppelin/upgrades/contracts/Initializable.sol';\nimport '@openzeppelin/contracts-ethereum-package/contracts/token/ERC721/StandaloneERC721.sol';\nimport '@openzeppelin/contracts-ethereum-package/contracts/token/ERC721/IERC721Full.sol';\n\ncontract MerkleMintCore is Initializable {\n    StandaloneERC721 token;\n\n    function initialize(StandaloneERC721 tokenAddress) public initializer {\n        token = tokenAddress;\n    }\n\n    /**\n     * @dev Returns the number of NFTs in `owner`'s account.\n     */\n    function balanceOf(address owner) public view returns (uint256 balance) {\n        return token.balanceOf(owner);\n    }\n\n    /**\n     * @dev Returns the owner of the NFT specified by `tokenId`.\n     */\n    function ownerOf(uint256 tokenId) public view returns (address owner) {\n        return token.ownerOf(tokenId);\n    }\n\n    /**\n     * @dev Transfers a specific NFT (`tokenId`) from one account (`from`) to\n     * another (`to`)\n     * Requirements:\n     * - `from`, `to` cannot be zero.\n     * - `tokenId` must be owned by `from`.\n     * - If the caller is not `from`, it must be have been allowed to move this\n     * NFT by either `approve` or `setApproveForAll`.\n     */\n    function safeTransferFrom(address from, address to, uint256 tokenId) public {\n        token.safeTransferFrom(from, to, tokenId);\n    }\n    /**\n     * @dev Transfers a specific NFT (`tokenId`) from one account (`from`) to\n     * another (`to`).\n     *\n     * Requirements:\n     * - If the caller is not `from`, it must be approved to move this NFT by\n     * either `approve` or `setApproveForAll`.\n     */\n    function transferFrom(address from, address to, uint256 tokenId) public {\n        token.transferFrom(from, to, tokenId);\n    }\n    function approve(address to, uint256 tokenId) public {\n        token.approve(to, tokenId);\n    }\n    function getApproved(uint256 tokenId) public view returns (address operator) {\n        return token.getApproved(tokenId);\n    }\n\n    function setApprovalForAll(address operator, bool _approved) public {\n        token.setApprovalForAll(operator, _approved);\n    }\n    function isApprovedForAll(address owner, address operator) public view returns (bool) {\n        return isApprovedForAll(owner, operator);\n    }\n\n    function safeTransferFrom(address from, address to, uint256 tokenId, bytes memory data) public {\n        token.safeTransferFrom(from, to, tokenId, data);\n    }\n\n    function totalSupply() public view returns (uint256) {\n        return token.totalSupply();\n    }\n\n    function tokenOfOwnerByIndex(address owner, uint256 index)\n        public\n        view\n        returns (uint256 tokenId)\n    {\n        return token.tokenOfOwnerByIndex(owner, index);\n    }\n\n    function tokenByIndex(uint256 index) public view returns (uint256) {\n        return token.tokenByIndex(index);\n    }\n\n    function name() external view returns (string memory) {\n        return token.name();\n    }\n    function symbol() external view returns (string memory) {\n        return token.symbol();\n    }\n    function tokenURI(uint256 tokenId) external view returns (string memory) {\n        return token.tokenURI(tokenId);\n    }\n\n    function mintWithTokenURI(address to, uint256 tokenId, string memory tokenURI)\n        public\n        returns (bool)\n    {\n        return token.mintWithTokenURI(to, tokenId, tokenURI);\n    }\n}\n",
  "sourcePath": "contracts/MerkleMintCore.sol",
  "abi": [
    {
      "constant": false,
      "inputs": [
        {
          "internalType": "address",
          "name": "to",
          "type": "address"
        },
        {
          "internalType": "uint256",
          "name": "tokenId",
          "type": "uint256"
        }
      ],
      "name": "approve",
      "outputs": [],
      "payable": false,
      "stateMutability": "nonpayable",
      "type": "function"
    },
    {
      "constant": true,
      "inputs": [
        {
          "internalType": "address",
          "name": "owner",
          "type": "address"
        }
      ],
      "name": "balanceOf",
      "outputs": [
        {
          "internalType": "uint256",
          "name": "balance",
          "type": "uint256"
        }
      ],
      "payable": false,
      "stateMutability": "view",
      "type": "function"
    },
    {
      "constant": true,
      "inputs": [
        {
          "internalType": "uint256",
          "name": "tokenId",
          "type": "uint256"
        }
      ],
      "name": "getApproved",
      "outputs": [
        {
          "internalType": "address",
          "name": "operator",
          "type": "address"
        }
      ],
      "payable": false,
      "stateMutability": "view",
      "type": "function"
    },
    {
      "constant": false,
      "inputs": [
        {
          "internalType": "contract StandaloneERC721",
          "name": "tokenAddress",
          "type": "address"
        }
      ],
      "name": "initialize",
      "outputs": [],
      "payable": false,
      "stateMutability": "nonpayable",
      "type": "function"
    },
    {
      "constant": true,
      "inputs": [
        {
          "internalType": "address",
          "name": "owner",
          "type": "address"
        },
        {
          "internalType": "address",
          "name": "operator",
          "type": "address"
        }
      ],
      "name": "isApprovedForAll",
      "outputs": [
        {
          "internalType": "bool",
          "name": "",
          "type": "bool"
        }
      ],
      "payable": false,
      "stateMutability": "view",
      "type": "function"
    },
    {
      "constant": false,
      "inputs": [
        {
          "internalType": "address",
          "name": "to",
          "type": "address"
        },
        {
          "internalType": "uint256",
          "name": "tokenId",
          "type": "uint256"
        },
        {
          "internalType": "string",
          "name": "tokenURI",
          "type": "string"
        }
      ],
      "name": "mintWithTokenURI",
      "outputs": [
        {
          "internalType": "bool",
          "name": "",
          "type": "bool"
        }
      ],
      "payable": false,
      "stateMutability": "nonpayable",
      "type": "function"
    },
    {
      "constant": true,
      "inputs": [],
      "name": "name",
      "outputs": [
        {
          "internalType": "string",
          "name": "",
          "type": "string"
        }
      ],
      "payable": false,
      "stateMutability": "view",
      "type": "function"
    },
    {
      "constant": true,
      "inputs": [
        {
          "internalType": "uint256",
          "name": "tokenId",
          "type": "uint256"
        }
      ],
      "name": "ownerOf",
      "outputs": [
        {
          "internalType": "address",
          "name": "owner",
          "type": "address"
        }
      ],
      "payable": false,
      "stateMutability": "view",
      "type": "function"
    },
    {
      "constant": false,
      "inputs": [
        {
          "internalType": "address",
          "name": "from",
          "type": "address"
        },
        {
          "internalType": "address",
          "name": "to",
          "type": "address"
        },
        {
          "internalType": "uint256",
          "name": "tokenId",
          "type": "uint256"
        }
      ],
      "name": "safeTransferFrom",
      "outputs": [],
      "payable": false,
      "stateMutability": "nonpayable",
      "type": "function"
    },
    {
      "constant": false,
      "inputs": [
        {
          "internalType": "address",
          "name": "from",
          "type": "address"
        },
        {
          "internalType": "address",
          "name": "to",
          "type": "address"
        },
        {
          "internalType": "uint256",
          "name": "tokenId",
          "type": "uint256"
        },
        {
          "internalType": "bytes",
          "name": "data",
          "type": "bytes"
        }
      ],
      "name": "safeTransferFrom",
      "outputs": [],
      "payable": false,
      "stateMutability": "nonpayable",
      "type": "function"
    },
    {
      "constant": false,
      "inputs": [
        {
          "internalType": "address",
          "name": "operator",
          "type": "address"
        },
        {
          "internalType": "bool",
          "name": "_approved",
          "type": "bool"
        }
      ],
      "name": "setApprovalForAll",
      "outputs": [],
      "payable": false,
      "stateMutability": "nonpayable",
      "type": "function"
    },
    {
      "constant": true,
      "inputs": [],
      "name": "symbol",
      "outputs": [
        {
          "internalType": "string",
          "name": "",
          "type": "string"
        }
      ],
      "payable": false,
      "stateMutability": "view",
      "type": "function"
    },
    {
      "constant": true,
      "inputs": [
        {
          "internalType": "uint256",
          "name": "index",
          "type": "uint256"
        }
      ],
      "name": "tokenByIndex",
      "outputs": [
        {
          "internalType": "uint256",
          "name": "",
          "type": "uint256"
        }
      ],
      "payable": false,
      "stateMutability": "view",
      "type": "function"
    },
    {
      "constant": true,
      "inputs": [
        {
          "internalType": "address",
          "name": "owner",
          "type": "address"
        },
        {
          "internalType": "uint256",
          "name": "index",
          "type": "uint256"
        }
      ],
      "name": "tokenOfOwnerByIndex",
      "outputs": [
        {
          "internalType": "uint256",
          "name": "tokenId",
          "type": "uint256"
        }
      ],
      "payable": false,
      "stateMutability": "view",
      "type": "function"
    },
    {
      "constant": true,
      "inputs": [
        {
          "internalType": "uint256",
          "name": "tokenId",
          "type": "uint256"
        }
      ],
      "name": "tokenURI",
      "outputs": [
        {
          "internalType": "string",
          "name": "",
          "type": "string"
        }
      ],
      "payable": false,
      "stateMutability": "view",
      "type": "function"
    },
    {
      "constant": true,
      "inputs": [],
      "name": "totalSupply",
      "outputs": [
        {
          "internalType": "uint256",
          "name": "",
          "type": "uint256"
        }
      ],
      "payable": false,
      "stateMutability": "view",
      "type": "function"
    },
    {
      "constant": false,
      "inputs": [
        {
          "internalType": "address",
          "name": "from",
          "type": "address"
        },
        {
          "internalType": "address",
          "name": "to",
          "type": "address"
        },
        {
          "internalType": "uint256",
          "name": "tokenId",
          "type": "uint256"
        }
      ],
      "name": "transferFrom",
      "outputs": [],
      "payable": false,
      "stateMutability": "nonpayable",
      "type": "function"
    }
  ],
  "bytecode": "0x60806040523480156100115760006000fd5b50610017565b611a9c806100266000396000f3fe60806040523480156100115760006000fd5b50600436106101105760003560e01c806350bb4e7f116100a3578063a22cb46511610072578063a22cb4651461064b578063b88d4fde1461069c578063c4d66de8146107a9578063c87b56dd146107ee578063e985e9c51461089757610110565b806350bb4e7f146103fa5780636352211e146104ff57806370a082311461056e57806395d89b41146105c757610110565b806323b872dd116100df57806323b872dd146102765780632f745c59146102e557806342842e0e146103485780634f6ccce7146103b757610110565b806306fdde0314610116578063081812fc1461019a578063095ea7b31461020957806318160ddd1461025857610110565b60006000fd5b61011e610914565b6040518080602001828103825283818151815260200191508051906020019080838360005b8381101561015f5780820151818401525b602081019050610143565b50505050905090810190601f16801561018c5780820380516001836020036101000a031916815260200191505b509250505060405180910390f35b6101c7600480360360208110156101b15760006000fd5b8101908080359060200190929190505050610a8b565b604051808273ffffffffffffffffffffffffffffffffffffffff1673ffffffffffffffffffffffffffffffffffffffff16815260200191505060405180910390f35b610256600480360360408110156102205760006000fd5b81019080803573ffffffffffffffffffffffffffffffffffffffff16906020019092919080359060200190929190505050610b4a565b005b610260610c12565b6040518082815260200191505060405180910390f35b6102e36004803603606081101561028d5760006000fd5b81019080803573ffffffffffffffffffffffffffffffffffffffff169060200190929190803573ffffffffffffffffffffffffffffffffffffffff16906020019092919080359060200190929190505050610cc4565b005b610332600480360360408110156102fc5760006000fd5b81019080803573ffffffffffffffffffffffffffffffffffffffff16906020019092919080359060200190929190505050610dc1565b6040518082815260200191505060405180910390f35b6103b56004803603606081101561035f5760006000fd5b81019080803573ffffffffffffffffffffffffffffffffffffffff169060200190929190803573ffffffffffffffffffffffffffffffffffffffff16906020019092919080359060200190929190505050610eb5565b005b6103e4600480360360208110156103ce5760006000fd5b8101908080359060200190929190505050610fb2565b6040518082815260200191505060405180910390f35b6104e5600480360360608110156104115760006000fd5b81019080803573ffffffffffffffffffffffffffffffffffffffff16906020019092919080359060200190929190803590602001906401000000008111156104595760006000fd5b82018360208201111561046c5760006000fd5b8035906020019184600183028401116401000000008311171561048f5760006000fd5b91908080601f016020809104026020016040519081016040528093929190818152602001838380828437600081840152601f19601f82011690508083019250505050505050909091929090919290505050611071565b604051808215151515815260200191505060405180910390f35b61052c600480360360208110156105165760006000fd5b81019080803590602001909291905050506111d6565b604051808273ffffffffffffffffffffffffffffffffffffffff1673ffffffffffffffffffffffffffffffffffffffff16815260200191505060405180910390f35b6105b1600480360360208110156105855760006000fd5b81019080803573ffffffffffffffffffffffffffffffffffffffff169060200190929190505050611295565b6040518082815260200191505060405180910390f35b6105cf611380565b6040518080602001828103825283818151815260200191508051906020019080838360005b838110156106105780820151818401525b6020810190506105f4565b50505050905090810190601f16801561063d5780820380516001836020036101000a031916815260200191505b509250505060405180910390f35b61069a600480360360408110156106625760006000fd5b81019080803573ffffffffffffffffffffffffffffffffffffffff1690602001909291908035151590602001909291905050506114f7565b005b6107a7600480360360808110156106b35760006000fd5b81019080803573ffffffffffffffffffffffffffffffffffffffff169060200190929190803573ffffffffffffffffffffffffffffffffffffffff169060200190929190803590602001909291908035906020019064010000000081111561071b5760006000fd5b82018360208201111561072e5760006000fd5b803590602001918460018302840111640100000000831117156107515760006000fd5b91908080601f016020809104026020016040519081016040528093929190818152602001838380828437600081840152601f19601f820116905080830192505050505050509090919290909192905050506115c3565b005b6107ec600480360360208110156107c05760006000fd5b81019080803573ffffffffffffffffffffffffffffffffffffffff16906020019092919050505061172f565b005b61081b600480360360208110156108055760006000fd5b810190808035906020019092919050505061187e565b6040518080602001828103825283818151815260200191508051906020019080838360005b8381101561085c5780820151818401525b602081019050610840565b50505050905090810190601f1680156108895780820380516001836020036101000a031916815260200191505b509250505060405180910390f35b6108fa600480360360408110156108ae5760006000fd5b81019080803573ffffffffffffffffffffffffffffffffffffffff169060200190929190803573ffffffffffffffffffffffffffffffffffffffff169060200190929190505050611a02565b604051808215151515815260200191505060405180910390f35b6060603360009054906101000a900473ffffffffffffffffffffffffffffffffffffffff1673ffffffffffffffffffffffffffffffffffffffff166306fdde036040518163ffffffff1660e01b815260040160006040518083038186803b15801561097f5760006000fd5b505afa158015610994573d600060003e3d6000fd5b505050506040513d6000823e3d601f19601f8201168201806040525060208110156109bf5760006000fd5b81019080805160405193929190846401000000008211156109e05760006000fd5b838201915060208201858111156109f75760006000fd5b8251866001820283011164010000000082111715610a155760006000fd5b8083526020830192505050908051906020019080838360005b83811015610a4a5780820151818401525b602081019050610a2e565b50505050905090810190601f168015610a775780820380516001836020036101000a031916815260200191505b506040526020015050509050610a88565b90565b6000603360009054906101000a900473ffffffffffffffffffffffffffffffffffffffff1673ffffffffffffffffffffffffffffffffffffffff1663081812fc836040518263ffffffff1660e01b81526004018082815260200191505060206040518083038186803b158015610b015760006000fd5b505afa158015610b16573d600060003e3d6000fd5b505050506040513d6020811015610b2d5760006000fd5b81019080805190602001909291905050509050610b45565b919050565b603360009054906101000a900473ffffffffffffffffffffffffffffffffffffffff1673ffffffffffffffffffffffffffffffffffffffff1663095ea7b383836040518363ffffffff1660e01b8152600401808373ffffffffffffffffffffffffffffffffffffffff1673ffffffffffffffffffffffffffffffffffffffff16815260200182815260200192505050600060405180830381600087803b158015610bf45760006000fd5b505af1158015610c09573d600060003e3d6000fd5b505050505b5050565b6000603360009054906101000a900473ffffffffffffffffffffffffffffffffffffffff1673ffffffffffffffffffffffffffffffffffffffff166318160ddd6040518163ffffffff1660e01b815260040160206040518083038186803b158015610c7d5760006000fd5b505afa158015610c92573d600060003e3d6000fd5b505050506040513d6020811015610ca95760006000fd5b81019080805190602001909291905050509050610cc1565b90565b603360009054906101000a900473ffffffffffffffffffffffffffffffffffffffff1673ffffffffffffffffffffffffffffffffffffffff166323b872dd8484846040518463ffffffff1660e01b8152600401808473ffffffffffffffffffffffffffffffffffffffff1673ffffffffffffffffffffffffffffffffffffffff1681526020018373ffffffffffffffffffffffffffffffffffffffff1673ffffffffffffffffffffffffffffffffffffffff1681526020018281526020019350505050600060405180830381600087803b158015610da25760006000fd5b505af1158015610db7573d600060003e3d6000fd5b505050505b505050565b6000603360009054906101000a900473ffffffffffffffffffffffffffffffffffffffff1673ffffffffffffffffffffffffffffffffffffffff16632f745c5984846040518363ffffffff1660e01b8152600401808373ffffffffffffffffffffffffffffffffffffffff1673ffffffffffffffffffffffffffffffffffffffff1681526020018281526020019250505060206040518083038186803b158015610e6b5760006000fd5b505afa158015610e80573d600060003e3d6000fd5b505050506040513d6020811015610e975760006000fd5b81019080805190602001909291905050509050610eaf565b92915050565b603360009054906101000a900473ffffffffffffffffffffffffffffffffffffffff1673ffffffffffffffffffffffffffffffffffffffff166342842e0e8484846040518463ffffffff1660e01b8152600401808473ffffffffffffffffffffffffffffffffffffffff1673ffffffffffffffffffffffffffffffffffffffff1681526020018373ffffffffffffffffffffffffffffffffffffffff1673ffffffffffffffffffffffffffffffffffffffff1681526020018281526020019350505050600060405180830381600087803b158015610f935760006000fd5b505af1158015610fa8573d600060003e3d6000fd5b505050505b505050565b6000603360009054906101000a900473ffffffffffffffffffffffffffffffffffffffff1673ffffffffffffffffffffffffffffffffffffffff16634f6ccce7836040518263ffffffff1660e01b81526004018082815260200191505060206040518083038186803b1580156110285760006000fd5b505afa15801561103d573d600060003e3d6000fd5b505050506040513d60208110156110545760006000fd5b8101908080519060200190929190505050905061106c565b919050565b6000603360009054906101000a900473ffffffffffffffffffffffffffffffffffffffff1673ffffffffffffffffffffffffffffffffffffffff166350bb4e7f8585856040518463ffffffff1660e01b8152600401808473ffffffffffffffffffffffffffffffffffffffff1673ffffffffffffffffffffffffffffffffffffffff16815260200183815260200180602001828103825283818151815260200191508051906020019080838360005b8381101561113c5780820151818401525b602081019050611120565b50505050905090810190601f1680156111695780820380516001836020036101000a031916815260200191505b50945050505050602060405180830381600087803b15801561118b5760006000fd5b505af11580156111a0573d600060003e3d6000fd5b505050506040513d60208110156111b75760006000fd5b810190808051906020019092919050505090506111cf565b9392505050565b6000603360009054906101000a900473ffffffffffffffffffffffffffffffffffffffff1673ffffffffffffffffffffffffffffffffffffffff16636352211e836040518263ffffffff1660e01b81526004018082815260200191505060206040518083038186803b15801561124c5760006000fd5b505afa158015611261573d600060003e3d6000fd5b505050506040513d60208110156112785760006000fd5b81019080805190602001909291905050509050611290565b919050565b6000603360009054906101000a900473ffffffffffffffffffffffffffffffffffffffff1673ffffffffffffffffffffffffffffffffffffffff166370a08231836040518263ffffffff1660e01b8152600401808273ffffffffffffffffffffffffffffffffffffffff1673ffffffffffffffffffffffffffffffffffffffff16815260200191505060206040518083038186803b1580156113375760006000fd5b505afa15801561134c573d600060003e3d6000fd5b505050506040513d60208110156113635760006000fd5b8101908080519060200190929190505050905061137b565b919050565b6060603360009054906101000a900473ffffffffffffffffffffffffffffffffffffffff1673ffffffffffffffffffffffffffffffffffffffff166395d89b416040518163ffffffff1660e01b815260040160006040518083038186803b1580156113eb5760006000fd5b505afa158015611400573d600060003e3d6000fd5b505050506040513d6000823e3d601f19601f82011682018060405250602081101561142b5760006000fd5b810190808051604051939291908464010000000082111561144c5760006000fd5b838201915060208201858111156114635760006000fd5b82518660018202830111640100000000821117156114815760006000fd5b8083526020830192505050908051906020019080838360005b838110156114b65780820151818401525b60208101905061149a565b50505050905090810190601f1680156114e35780820380516001836020036101000a031916815260200191505b5060405260200150505090506114f4565b90565b603360009054906101000a900473ffffffffffffffffffffffffffffffffffffffff1673ffffffffffffffffffffffffffffffffffffffff1663a22cb46583836040518363ffffffff1660e01b8152600401808373ffffffffffffffffffffffffffffffffffffffff1673ffffffffffffffffffffffffffffffffffffffff1681526020018215151515815260200192505050600060405180830381600087803b1580156115a55760006000fd5b505af11580156115ba573d600060003e3d6000fd5b505050505b5050565b603360009054906101000a900473ffffffffffffffffffffffffffffffffffffffff1673ffffffffffffffffffffffffffffffffffffffff1663b88d4fde858585856040518563ffffffff1660e01b8152600401808573ffffffffffffffffffffffffffffffffffffffff1673ffffffffffffffffffffffffffffffffffffffff1681526020018473ffffffffffffffffffffffffffffffffffffffff1673ffffffffffffffffffffffffffffffffffffffff16815260200183815260200180602001828103825283818151815260200191508051906020019080838360005b838110156116bf5780820151818401525b6020810190506116a3565b50505050905090810190601f1680156116ec5780820380516001836020036101000a031916815260200191505b5095505050505050600060405180830381600087803b15801561170f5760006000fd5b505af1158015611724573d600060003e3d6000fd5b505050505b50505050565b600060019054906101000a900460ff16806117545750611753611a2163ffffffff16565b5b8061176c5750600060009054906101000a900460ff16155b15156117c3576040517f08c379a000000000000000000000000000000000000000000000000000000000815260040180806020018281038252602e815260200180611a3a602e913960400191505060405180910390fd5b6000600060019054906101000a900460ff161590508015611815576001600060016101000a81548160ff0219169083151502179055506001600060006101000a81548160ff0219169083151502179055505b81603360006101000a81548173ffffffffffffffffffffffffffffffffffffffff021916908373ffffffffffffffffffffffffffffffffffffffff1602179055505b8015611879576000600060016101000a81548160ff0219169083151502179055505b505b50565b6060603360009054906101000a900473ffffffffffffffffffffffffffffffffffffffff1673ffffffffffffffffffffffffffffffffffffffff1663c87b56dd836040518263ffffffff1660e01b81526004018082815260200191505060006040518083038186803b1580156118f45760006000fd5b505afa158015611909573d600060003e3d6000fd5b505050506040513d6000823e3d601f19601f8201168201806040525060208110156119345760006000fd5b81019080805160405193929190846401000000008211156119555760006000fd5b8382019150602082018581111561196c5760006000fd5b825186600182028301116401000000008211171561198a5760006000fd5b8083526020830192505050908051906020019080838360005b838110156119bf5780820151818401525b6020810190506119a3565b50505050905090810190601f1680156119ec5780820380516001836020036101000a031916815260200191505b5060405260200150505090506119fd565b919050565b6000611a148383611a0263ffffffff16565b9050611a1b565b92915050565b60006000303b905060008114915050611a3656505b9056fe436f6e747261637420696e7374616e63652068617320616c7265616479206265656e20696e697469616c697a6564a265627a7a72315820fc56f4f6579f4f7d5927694b78b2bb582b3e49704ae46fb1cd0586f9376a535464736f6c634300050c0032",
  "compiler": {
    "name": "solc",
    "version": "0.5.12+commit.7709ece9.Darwin.appleclang",
    "optimizer": {},
    "evmVersion": "constantinople"
  }
}