{
  "fileName": "MerkleMintCore.sol",
  "contractName": "MerkleMintCore",
  "source": "pragma solidity ^0.5.0;\n\nimport \"@openzeppelin/upgrades/contracts/Initializable.sol\";\nimport \"@openzeppelin/contracts-ethereum-package/contracts/GSN/Context.sol\";\nimport \"@openzeppelin/contracts-ethereum-package/contracts/ownership/Ownable.sol\";\nimport \"@openzeppelin/contracts-ethereum-package/contracts/token/ERC721/ERC721.sol\";\nimport \"@openzeppelin/contracts-ethereum-package/contracts/token/ERC721/ERC721Enumerable.sol\";\nimport \"@openzeppelin/contracts-ethereum-package/contracts/token/ERC721/ERC721Metadata.sol\";\nimport \"@openzeppelin/contracts-ethereum-package/contracts/token/ERC721/ERC721MetadataMintable.sol\";\nimport \"@openzeppelin/contracts-ethereum-package/contracts/token/ERC721/ERC721Pausable.sol\";\nimport \"./Strings.sol\";\n\ncontract OwnableDelegateProxy {}\n\ncontract ProxyRegistry {\n    mapping(address => OwnableDelegateProxy) public proxies;\n}\n\ncontract MerkleMintCore is\n    Initializable,\n    Ownable,\n    ERC721,\n    ERC721Enumerable,\n    ERC721Metadata,\n    ERC721MetadataMintable,\n    ERC721Pausable\n{\n    using Strings for string;\n\n    address proxyRegistryAddress;\n    uint256 private _currentTokenId;\n    string public tokenURIBase;\n\n    function initialize(\n        address[] memory minters,\n        address[] memory pausers,\n        address _proxyRegistryAddress\n    ) public initializer {\n        _currentTokenId = 0;\n        Ownable.initialize(_msgSender());\n        ERC721.initialize();\n        ERC721Enumerable.initialize();\n        ERC721Metadata.initialize(\"MerkleMintToken\", \"MMT\");\n\n        //Setup OpenSea Proxy\n        proxyRegistryAddress = _proxyRegistryAddress;\n\n        // Initialize the minter and pauser roles, and renounce them\n        ERC721MetadataMintable.initialize(address(this));\n        _removeMinter(address(this));\n\n        ERC721Pausable.initialize(address(this));\n        _removePauser(address(this));\n\n        // Add the requested minters and pausers (this can be done after renouncing since\n        // these are the internal calls)\n        for (uint256 i = 0; i < minters.length; ++i) {\n            _addMinter(minters[i]);\n        }\n\n        for (uint256 i = 0; i < pausers.length; ++i) {\n            _addPauser(pausers[i]);\n        }\n    }\n\n    /**\n    * @dev Mints a token to an address with a tokenURI.\n    * @param _to address of the future owner of the token\n    */\n    function mintTo(address _to) public onlyOwner {\n        uint256 newTokenId = _getNextTokenId();\n        _mint(_to, newTokenId);\n        _incrementTokenId();\n    }\n\n    /**\n    * @dev calculates the next token ID based on value of _currentTokenId \n    * @return uint256 for the next token ID\n    */\n    function _getNextTokenId() private view returns (uint256) {\n        return _currentTokenId.add(1);\n    }\n\n    /**\n    * @dev increments the value of _currentTokenId \n    */\n    function _incrementTokenId() private {\n        _currentTokenId++;\n    }\n\n    function baseTokenURI() public view returns (string memory) {\n        return tokenURIBase;\n    }\n\n    function changeBaseTokenURI(string memory _baseTokenURI) public onlyOwner {\n        tokenURIBase = _baseTokenURI;\n    }\n\n    function tokenURI(uint256 _tokenId) external view returns (string memory) {\n        return Strings.strConcat(baseTokenURI(), Strings.uint2str(_tokenId));\n    }\n\n    /**\n   * Override isApprovedForAll to whitelist user's OpenSea proxy accounts to enable gas-less listings.\n   */\n    function isApprovedForAll(address owner, address operator) public view returns (bool) {\n        // Whitelist OpenSea proxy contract for easy trading.\n        ProxyRegistry proxyRegistry = ProxyRegistry(proxyRegistryAddress);\n        if (address(proxyRegistry.proxies(owner)) == operator) {\n            return true;\n        }\n\n        return super.isApprovedForAll(owner, operator);\n    }\n\n}\n",
  "sourcePath": "contracts/MerkleMintCore.sol",
  "abi": [
    {
      "anonymous": false,
      "inputs": [
        {
          "indexed": true,
          "internalType": "address",
          "name": "owner",
          "type": "address"
        },
        {
          "indexed": true,
          "internalType": "address",
          "name": "approved",
          "type": "address"
        },
        {
          "indexed": true,
          "internalType": "uint256",
          "name": "tokenId",
          "type": "uint256"
        }
      ],
      "name": "Approval",
      "type": "event"
    },
    {
      "anonymous": false,
      "inputs": [
        {
          "indexed": true,
          "internalType": "address",
          "name": "owner",
          "type": "address"
        },
        {
          "indexed": true,
          "internalType": "address",
          "name": "operator",
          "type": "address"
        },
        {
          "indexed": false,
          "internalType": "bool",
          "name": "approved",
          "type": "bool"
        }
      ],
      "name": "ApprovalForAll",
      "type": "event"
    },
    {
      "anonymous": false,
      "inputs": [
        {
          "indexed": true,
          "internalType": "address",
          "name": "account",
          "type": "address"
        }
      ],
      "name": "MinterAdded",
      "type": "event"
    },
    {
      "anonymous": false,
      "inputs": [
        {
          "indexed": true,
          "internalType": "address",
          "name": "account",
          "type": "address"
        }
      ],
      "name": "MinterRemoved",
      "type": "event"
    },
    {
      "anonymous": false,
      "inputs": [
        {
          "indexed": true,
          "internalType": "address",
          "name": "previousOwner",
          "type": "address"
        },
        {
          "indexed": true,
          "internalType": "address",
          "name": "newOwner",
          "type": "address"
        }
      ],
      "name": "OwnershipTransferred",
      "type": "event"
    },
    {
      "anonymous": false,
      "inputs": [
        {
          "indexed": false,
          "internalType": "address",
          "name": "account",
          "type": "address"
        }
      ],
      "name": "Paused",
      "type": "event"
    },
    {
      "anonymous": false,
      "inputs": [
        {
          "indexed": true,
          "internalType": "address",
          "name": "account",
          "type": "address"
        }
      ],
      "name": "PauserAdded",
      "type": "event"
    },
    {
      "anonymous": false,
      "inputs": [
        {
          "indexed": true,
          "internalType": "address",
          "name": "account",
          "type": "address"
        }
      ],
      "name": "PauserRemoved",
      "type": "event"
    },
    {
      "anonymous": false,
      "inputs": [
        {
          "indexed": true,
          "internalType": "address",
          "name": "from",
          "type": "address"
        },
        {
          "indexed": true,
          "internalType": "address",
          "name": "to",
          "type": "address"
        },
        {
          "indexed": true,
          "internalType": "uint256",
          "name": "tokenId",
          "type": "uint256"
        }
      ],
      "name": "Transfer",
      "type": "event"
    },
    {
      "anonymous": false,
      "inputs": [
        {
          "indexed": false,
          "internalType": "address",
          "name": "account",
          "type": "address"
        }
      ],
      "name": "Unpaused",
      "type": "event"
    },
    {
      "constant": false,
      "inputs": [
        {
          "internalType": "address",
          "name": "account",
          "type": "address"
        }
      ],
      "name": "addMinter",
      "outputs": [],
      "payable": false,
      "stateMutability": "nonpayable",
      "type": "function"
    },
    {
      "constant": false,
      "inputs": [
        {
          "internalType": "address",
          "name": "account",
          "type": "address"
        }
      ],
      "name": "addPauser",
      "outputs": [],
      "payable": false,
      "stateMutability": "nonpayable",
      "type": "function"
    },
    {
      "constant": false,
      "inputs": [
        {
          "internalType": "address",
          "name": "to",
          "type": "address"
        },
        {
          "internalType": "uint256",
          "name": "tokenId",
          "type": "uint256"
        }
      ],
      "name": "approve",
      "outputs": [],
      "payable": false,
      "stateMutability": "nonpayable",
      "type": "function"
    },
    {
      "constant": true,
      "inputs": [
        {
          "internalType": "address",
          "name": "owner",
          "type": "address"
        }
      ],
      "name": "balanceOf",
      "outputs": [
        {
          "internalType": "uint256",
          "name": "",
          "type": "uint256"
        }
      ],
      "payable": false,
      "stateMutability": "view",
      "type": "function"
    },
    {
      "constant": true,
      "inputs": [],
      "name": "baseTokenURI",
      "outputs": [
        {
          "internalType": "string",
          "name": "",
          "type": "string"
        }
      ],
      "payable": false,
      "stateMutability": "view",
      "type": "function"
    },
    {
      "constant": false,
      "inputs": [
        {
          "internalType": "string",
          "name": "_baseTokenURI",
          "type": "string"
        }
      ],
      "name": "changeBaseTokenURI",
      "outputs": [],
      "payable": false,
      "stateMutability": "nonpayable",
      "type": "function"
    },
    {
      "constant": true,
      "inputs": [
        {
          "internalType": "uint256",
          "name": "tokenId",
          "type": "uint256"
        }
      ],
      "name": "getApproved",
      "outputs": [
        {
          "internalType": "address",
          "name": "",
          "type": "address"
        }
      ],
      "payable": false,
      "stateMutability": "view",
      "type": "function"
    },
    {
      "constant": false,
      "inputs": [
        {
          "internalType": "string",
          "name": "name",
          "type": "string"
        },
        {
          "internalType": "string",
          "name": "symbol",
          "type": "string"
        }
      ],
      "name": "initialize",
      "outputs": [],
      "payable": false,
      "stateMutability": "nonpayable",
      "type": "function"
    },
    {
      "constant": false,
      "inputs": [
        {
          "internalType": "address[]",
          "name": "minters",
          "type": "address[]"
        },
        {
          "internalType": "address[]",
          "name": "pausers",
          "type": "address[]"
        },
        {
          "internalType": "address",
          "name": "_proxyRegistryAddress",
          "type": "address"
        }
      ],
      "name": "initialize",
      "outputs": [],
      "payable": false,
      "stateMutability": "nonpayable",
      "type": "function"
    },
    {
      "constant": false,
      "inputs": [],
      "name": "initialize",
      "outputs": [],
      "payable": false,
      "stateMutability": "nonpayable",
      "type": "function"
    },
    {
      "constant": false,
      "inputs": [
        {
          "internalType": "address",
          "name": "sender",
          "type": "address"
        }
      ],
      "name": "initialize",
      "outputs": [],
      "payable": false,
      "stateMutability": "nonpayable",
      "type": "function"
    },
    {
      "constant": true,
      "inputs": [
        {
          "internalType": "address",
          "name": "owner",
          "type": "address"
        },
        {
          "internalType": "address",
          "name": "operator",
          "type": "address"
        }
      ],
      "name": "isApprovedForAll",
      "outputs": [
        {
          "internalType": "bool",
          "name": "",
          "type": "bool"
        }
      ],
      "payable": false,
      "stateMutability": "view",
      "type": "function"
    },
    {
      "constant": true,
      "inputs": [
        {
          "internalType": "address",
          "name": "account",
          "type": "address"
        }
      ],
      "name": "isMinter",
      "outputs": [
        {
          "internalType": "bool",
          "name": "",
          "type": "bool"
        }
      ],
      "payable": false,
      "stateMutability": "view",
      "type": "function"
    },
    {
      "constant": true,
      "inputs": [],
      "name": "isOwner",
      "outputs": [
        {
          "internalType": "bool",
          "name": "",
          "type": "bool"
        }
      ],
      "payable": false,
      "stateMutability": "view",
      "type": "function"
    },
    {
      "constant": true,
      "inputs": [
        {
          "internalType": "address",
          "name": "account",
          "type": "address"
        }
      ],
      "name": "isPauser",
      "outputs": [
        {
          "internalType": "bool",
          "name": "",
          "type": "bool"
        }
      ],
      "payable": false,
      "stateMutability": "view",
      "type": "function"
    },
    {
      "constant": false,
      "inputs": [
        {
          "internalType": "address",
          "name": "_to",
          "type": "address"
        }
      ],
      "name": "mintTo",
      "outputs": [],
      "payable": false,
      "stateMutability": "nonpayable",
      "type": "function"
    },
    {
      "constant": false,
      "inputs": [
        {
          "internalType": "address",
          "name": "to",
          "type": "address"
        },
        {
          "internalType": "uint256",
          "name": "tokenId",
          "type": "uint256"
        },
        {
          "internalType": "string",
          "name": "tokenURI",
          "type": "string"
        }
      ],
      "name": "mintWithTokenURI",
      "outputs": [
        {
          "internalType": "bool",
          "name": "",
          "type": "bool"
        }
      ],
      "payable": false,
      "stateMutability": "nonpayable",
      "type": "function"
    },
    {
      "constant": true,
      "inputs": [],
      "name": "name",
      "outputs": [
        {
          "internalType": "string",
          "name": "",
          "type": "string"
        }
      ],
      "payable": false,
      "stateMutability": "view",
      "type": "function"
    },
    {
      "constant": true,
      "inputs": [],
      "name": "owner",
      "outputs": [
        {
          "internalType": "address",
          "name": "",
          "type": "address"
        }
      ],
      "payable": false,
      "stateMutability": "view",
      "type": "function"
    },
    {
      "constant": true,
      "inputs": [
        {
          "internalType": "uint256",
          "name": "tokenId",
          "type": "uint256"
        }
      ],
      "name": "ownerOf",
      "outputs": [
        {
          "internalType": "address",
          "name": "",
          "type": "address"
        }
      ],
      "payable": false,
      "stateMutability": "view",
      "type": "function"
    },
    {
      "constant": false,
      "inputs": [],
      "name": "pause",
      "outputs": [],
      "payable": false,
      "stateMutability": "nonpayable",
      "type": "function"
    },
    {
      "constant": true,
      "inputs": [],
      "name": "paused",
      "outputs": [
        {
          "internalType": "bool",
          "name": "",
          "type": "bool"
        }
      ],
      "payable": false,
      "stateMutability": "view",
      "type": "function"
    },
    {
      "constant": false,
      "inputs": [],
      "name": "renounceMinter",
      "outputs": [],
      "payable": false,
      "stateMutability": "nonpayable",
      "type": "function"
    },
    {
      "constant": false,
      "inputs": [],
      "name": "renounceOwnership",
      "outputs": [],
      "payable": false,
      "stateMutability": "nonpayable",
      "type": "function"
    },
    {
      "constant": false,
      "inputs": [],
      "name": "renouncePauser",
      "outputs": [],
      "payable": false,
      "stateMutability": "nonpayable",
      "type": "function"
    },
    {
      "constant": false,
      "inputs": [
        {
          "internalType": "address",
          "name": "from",
          "type": "address"
        },
        {
          "internalType": "address",
          "name": "to",
          "type": "address"
        },
        {
          "internalType": "uint256",
          "name": "tokenId",
          "type": "uint256"
        }
      ],
      "name": "safeTransferFrom",
      "outputs": [],
      "payable": false,
      "stateMutability": "nonpayable",
      "type": "function"
    },
    {
      "constant": false,
      "inputs": [
        {
          "internalType": "address",
          "name": "from",
          "type": "address"
        },
        {
          "internalType": "address",
          "name": "to",
          "type": "address"
        },
        {
          "internalType": "uint256",
          "name": "tokenId",
          "type": "uint256"
        },
        {
          "internalType": "bytes",
          "name": "_data",
          "type": "bytes"
        }
      ],
      "name": "safeTransferFrom",
      "outputs": [],
      "payable": false,
      "stateMutability": "nonpayable",
      "type": "function"
    },
    {
      "constant": false,
      "inputs": [
        {
          "internalType": "address",
          "name": "to",
          "type": "address"
        },
        {
          "internalType": "bool",
          "name": "approved",
          "type": "bool"
        }
      ],
      "name": "setApprovalForAll",
      "outputs": [],
      "payable": false,
      "stateMutability": "nonpayable",
      "type": "function"
    },
    {
      "constant": true,
      "inputs": [
        {
          "internalType": "bytes4",
          "name": "interfaceId",
          "type": "bytes4"
        }
      ],
      "name": "supportsInterface",
      "outputs": [
        {
          "internalType": "bool",
          "name": "",
          "type": "bool"
        }
      ],
      "payable": false,
      "stateMutability": "view",
      "type": "function"
    },
    {
      "constant": true,
      "inputs": [],
      "name": "symbol",
      "outputs": [
        {
          "internalType": "string",
          "name": "",
          "type": "string"
        }
      ],
      "payable": false,
      "stateMutability": "view",
      "type": "function"
    },
    {
      "constant": true,
      "inputs": [
        {
          "internalType": "uint256",
          "name": "index",
          "type": "uint256"
        }
      ],
      "name": "tokenByIndex",
      "outputs": [
        {
          "internalType": "uint256",
          "name": "",
          "type": "uint256"
        }
      ],
      "payable": false,
      "stateMutability": "view",
      "type": "function"
    },
    {
      "constant": true,
      "inputs": [
        {
          "internalType": "address",
          "name": "owner",
          "type": "address"
        },
        {
          "internalType": "uint256",
          "name": "index",
          "type": "uint256"
        }
      ],
      "name": "tokenOfOwnerByIndex",
      "outputs": [
        {
          "internalType": "uint256",
          "name": "",
          "type": "uint256"
        }
      ],
      "payable": false,
      "stateMutability": "view",
      "type": "function"
    },
    {
      "constant": true,
      "inputs": [
        {
          "internalType": "uint256",
          "name": "_tokenId",
          "type": "uint256"
        }
      ],
      "name": "tokenURI",
      "outputs": [
        {
          "internalType": "string",
          "name": "",
          "type": "string"
        }
      ],
      "payable": false,
      "stateMutability": "view",
      "type": "function"
    },
    {
      "constant": true,
      "inputs": [],
      "name": "tokenURIBase",
      "outputs": [
        {
          "internalType": "string",
          "name": "",
          "type": "string"
        }
      ],
      "payable": false,
      "stateMutability": "view",
      "type": "function"
    },
    {
      "constant": true,
      "inputs": [],
      "name": "totalSupply",
      "outputs": [
        {
          "internalType": "uint256",
          "name": "",
          "type": "uint256"
        }
      ],
      "payable": false,
      "stateMutability": "view",
      "type": "function"
    },
    {
      "constant": false,
      "inputs": [
        {
          "internalType": "address",
          "name": "from",
          "type": "address"
        },
        {
          "internalType": "address",
          "name": "to",
          "type": "address"
        },
        {
          "internalType": "uint256",
          "name": "tokenId",
          "type": "uint256"
        }
      ],
      "name": "transferFrom",
      "outputs": [],
      "payable": false,
      "stateMutability": "nonpayable",
      "type": "function"
    },
    {
      "constant": false,
      "inputs": [
        {
          "internalType": "address",
          "name": "newOwner",
          "type": "address"
        }
      ],
      "name": "transferOwnership",
      "outputs": [],
      "payable": false,
      "stateMutability": "nonpayable",
      "type": "function"
    },
    {
      "constant": false,
      "inputs": [],
      "name": "unpause",
      "outputs": [],
      "payable": false,
      "stateMutability": "nonpayable",
      "type": "function"
    }
  ],
  "bytecode": "0x60806040525b5b61000b565b6159dd806200001b6000396000f3fe60806040523480156100115760006000fd5b50600436106102375760003560e01c8063715018a61161013157806398650275116100b9578063c87b56dd1161007d578063c87b56dd14610f2e578063d547cfb714610fd7578063e40e97a71461105b578063e985e9c51461111e578063f2fde38b1461119b57610237565b80639865027514610d24578063a22cb46514610d2e578063aa271e1a14610d7f578063b88d4fde14610ddc578063c4d66de814610ee957610237565b80638456cb59116101005780638456cb5914610be55780638da5cb5b14610bef5780638f32d59b14610c3957806395d89b4114610c5b578063983b2d5614610cdf57610237565b8063715018a614610b47578063755edd1714610b515780638129fc1c14610b9657806382dc1ec414610ba057610237565b806342842e0e116101bf5780635274ac3f116101835780635274ac3f146108d85780635c975abb14610a535780636352211e14610a755780636ef8d66d14610ae457806370a0823114610aee57610237565b806342842e0e1461056357806346fbf68e146105d25780634cd88b761461062f5780634f6ccce71461079057806350bb4e7f146107d357610237565b806318160ddd1161020657806318160ddd146103e557806323b872dd14610403578063261220a3146104725780632f745c59146104f65780633f4ba83a1461055957610237565b806301ffc9a71461023d57806306fdde03146102a3578063081812fc14610327578063095ea7b31461039657610237565b60006000fd5b610289600480360360208110156102545760006000fd5b8101908080357bffffffffffffffffffffffffffffffffffffffffffffffffffffffff191690602001909291905050506111e0565b604051808215151515815260200191505060405180910390f35b6102ab611250565b6040518080602001828103825283818151815260200191508051906020019080838360005b838110156102ec5780820151818401525b6020810190506102d0565b50505050905090810190601f1680156103195780820380516001836020036101000a031916815260200191505b509250505060405180910390f35b6103546004803603602081101561033e5760006000fd5b81019080803590602001909291905050506112fb565b604051808273ffffffffffffffffffffffffffffffffffffffff1673ffffffffffffffffffffffffffffffffffffffff16815260200191505060405180910390f35b6103e3600480360360408110156103ad5760006000fd5b81019080803573ffffffffffffffffffffffffffffffffffffffff169060200190929190803590602001909291905050506113a6565b005b6103ed611445565b6040518082815260200191505060405180910390f35b6104706004803603606081101561041a5760006000fd5b81019080803573ffffffffffffffffffffffffffffffffffffffff169060200190929190803573ffffffffffffffffffffffffffffffffffffffff1690602001909291908035906020019092919050505061145a565b005b61047a6114fb565b6040518080602001828103825283818151815260200191508051906020019080838360005b838110156104bb5780820151818401525b60208101905061049f565b50505050905090810190601f1680156104e85780820380516001836020036101000a031916815260200191505b509250505060405180910390f35b6105436004803603604081101561050d5760006000fd5b81019080803573ffffffffffffffffffffffffffffffffffffffff1690602001909291908035906020019092919050505061159d565b6040518082815260200191505060405180910390f35b610561611676565b005b6105d06004803603606081101561057a5760006000fd5b81019080803573ffffffffffffffffffffffffffffffffffffffff169060200190929190803573ffffffffffffffffffffffffffffffffffffffff16906020019092919080359060200190929190505050611802565b005b610615600480360360208110156105e95760006000fd5b81019080803573ffffffffffffffffffffffffffffffffffffffff16906020019092919050505061182c565b604051808215151515815260200191505060405180910390f35b61078e600480360360408110156106465760006000fd5b81019080803590602001906401000000008111156106645760006000fd5b8201836020820111156106775760006000fd5b8035906020019184600183028401116401000000008311171561069a5760006000fd5b91908080601f016020809104026020016040519081016040528093929190818152602001838380828437600081840152601f19601f82011690508083019250505050505050909091929090919290803590602001906401000000008111156107025760006000fd5b8201836020820111156107155760006000fd5b803590602001918460018302840111640100000000831117156107385760006000fd5b91908080601f016020809104026020016040519081016040528093929190818152602001838380828437600081840152601f19601f82011690508083019250505050505050909091929090919290505050611852565b005b6107bd600480360360208110156107a75760006000fd5b81019080803590602001909291905050506119c7565b6040518082815260200191505060405180910390f35b6108be600480360360608110156107ea5760006000fd5b81019080803573ffffffffffffffffffffffffffffffffffffffff16906020019092919080359060200190929190803590602001906401000000008111156108325760006000fd5b8201836020820111156108455760006000fd5b803590602001918460018302840111640100000000831117156108685760006000fd5b91908080601f016020809104026020016040519081016040528093929190818152602001838380828437600081840152601f19601f82011690508083019250505050505050909091929090919290505050611a5e565b604051808215151515815260200191505060405180910390f35b610a51600480360360608110156108ef5760006000fd5b810190808035906020019064010000000081111561090d5760006000fd5b8201836020820111156109205760006000fd5b803590602001918460208302840111640100000000831117156109435760006000fd5b919080806020026020016040519081016040528093929190818152602001838360200280828437600081840152601f19601f82011690508083019250505050505050909091929090919290803590602001906401000000008111156109a85760006000fd5b8201836020820111156109bb5760006000fd5b803590602001918460208302840111640100000000831117156109de5760006000fd5b919080806020026020016040519081016040528093929190818152602001838360200280828437600081840152601f19601f82011690508083019250505050505050909091929090919290803573ffffffffffffffffffffffffffffffffffffffff169060200190929190505050611b04565b005b610a5b611dde565b604051808215151515815260200191505060405180910390f35b610aa260048036036020811015610a8c5760006000fd5b8101908080359060200190929190505050611dfb565b604051808273ffffffffffffffffffffffffffffffffffffffff1673ffffffffffffffffffffffffffffffffffffffff16815260200191505060405180910390f35b610aec611ecf565b005b610b3160048036036020811015610b055760006000fd5b81019080803573ffffffffffffffffffffffffffffffffffffffff169060200190929190505050611eee565b6040518082815260200191505060405180910390f35b610b4f611fd9565b005b610b9460048036036020811015610b685760006000fd5b81019080803573ffffffffffffffffffffffffffffffffffffffff169060200190929190505050612121565b005b610b9e6121dc565b005b610be360048036036020811015610bb75760006000fd5b81019080803573ffffffffffffffffffffffffffffffffffffffff169060200190929190505050612319565b005b610bed6123a0565b005b610bf761252d565b604051808273ffffffffffffffffffffffffffffffffffffffff1673ffffffffffffffffffffffffffffffffffffffff16815260200191505060405180910390f35b610c4161255c565b604051808215151515815260200191505060405180910390f35b610c636125c6565b6040518080602001828103825283818151815260200191508051906020019080838360005b83811015610ca45780820151818401525b602081019050610c88565b50505050905090810190601f168015610cd15780820380516001836020036101000a031916815260200191505b509250505060405180910390f35b610d2260048036036020811015610cf65760006000fd5b81019080803573ffffffffffffffffffffffffffffffffffffffff169060200190929190505050612671565b005b610d2c6126f8565b005b610d7d60048036036040811015610d455760006000fd5b81019080803573ffffffffffffffffffffffffffffffffffffffff169060200190929190803515159060200190929190505050612717565b005b610dc260048036036020811015610d965760006000fd5b81019080803573ffffffffffffffffffffffffffffffffffffffff1690602001909291905050506127b6565b604051808215151515815260200191505060405180910390f35b610ee760048036036080811015610df35760006000fd5b81019080803573ffffffffffffffffffffffffffffffffffffffff169060200190929190803573ffffffffffffffffffffffffffffffffffffffff1690602001909291908035906020019092919080359060200190640100000000811115610e5b5760006000fd5b820183602082011115610e6e5760006000fd5b80359060200191846001830284011164010000000083111715610e915760006000fd5b91908080601f016020809104026020016040519081016040528093929190818152602001838380828437600081840152601f19601f820116905080830192505050505050509090919290909192905050506127dc565b005b610f2c60048036036020811015610f005760006000fd5b81019080803573ffffffffffffffffffffffffffffffffffffffff16906020019092919050505061285d565b005b610f5b60048036036020811015610f455760006000fd5b8101908080359060200190929190505050612994565b6040518080602001828103825283818151815260200191508051906020019080838360005b83811015610f9c5780820151818401525b602081019050610f80565b50505050905090810190601f168015610fc95780820380516001836020036101000a031916815260200191505b509250505060405180910390f35b610fdf6129cd565b6040518080602001828103825283818151815260200191508051906020019080838360005b838110156110205780820151818401525b602081019050611004565b50505050905090810190601f16801561104d5780820380516001836020036101000a031916815260200191505b509250505060405180910390f35b61111c600480360360208110156110725760006000fd5b81019080803590602001906401000000008111156110905760006000fd5b8201836020820111156110a35760006000fd5b803590602001918460018302840111640100000000831117156110c65760006000fd5b91908080601f016020809104026020016040519081016040528093929190818152602001838380828437600081840152601f19601f82011690508083019250505050505050909091929090919290505050612a78565b005b611181600480360360408110156111355760006000fd5b81019080803573ffffffffffffffffffffffffffffffffffffffff169060200190929190803573ffffffffffffffffffffffffffffffffffffffff169060200190929190505050612b1d565b604051808215151515815260200191505060405180910390f35b6111de600480360360208110156111b25760006000fd5b81019080803573ffffffffffffffffffffffffffffffffffffffff169060200190929190505050612c5e565b005b600060666000506000837bffffffffffffffffffffffffffffffffffffffffffffffffffffffff19167bffffffffffffffffffffffffffffffffffffffffffffffffffffffff1916815260200190815260200160002060009054906101000a900460ff16905061124b565b919050565b60606101056000508054600181600116156101000203166002900480601f0160208091040260200160405190810160405280929190818152602001828054600181600116156101000203166002900480156112ec5780601f106112c1576101008083540402835291602001916112ec565b820191906000526020600020905b8154815290600101906020018083116112cf57829003601f168201915b505050505090506112f8565b90565b600061130c82612cf763ffffffff16565b1515611363576040517f08c379a000000000000000000000000000000000000000000000000000000000815260040180806020018281038252602c81526020018061585a602c913960400191505060405180910390fd5b609a600050600083815260200190815260200160002060009054906101000a900473ffffffffffffffffffffffffffffffffffffffff1690506113a1565b919050565b6101d260009054906101000a900460ff1615151561142f576040517f08c379a00000000000000000000000000000000000000000000000000000000081526004018080602001828103825260108152602001807f5061757361626c653a207061757365640000000000000000000000000000000081526020015060200191505060405180910390fd5b61143f8282612d7363ffffffff16565b5b5b5050565b600060d1600050805490509050611457565b90565b6101d260009054906101000a900460ff161515156114e3576040517f08c379a00000000000000000000000000000000000000000000000000000000081526004018080602001828103825260108152602001807f5061757361626c653a207061757365640000000000000000000000000000000081526020015060200191505060405180910390fd5b6114f4838383612f7a63ffffffff16565b5b5b505050565b6102396000508054600181600116156101000203166002900480601f0160208091040260200160405190810160405280929190818152602001828054600181600116156101000203166002900480156115955780601f1061156a57610100808354040283529160200191611595565b820191906000526020600020905b81548152906001019060200180831161157857829003601f168201915b505050505081565b60006115ae83611eee63ffffffff16565b82101515611607576040517f08c379a000000000000000000000000000000000000000000000000000000000815260040180806020018281038252602b81526020018061567b602b913960400191505060405180910390fd5b60cf60005060008473ffffffffffffffffffffffffffffffffffffffff1673ffffffffffffffffffffffffffffffffffffffff1681526020019081526020016000206000508281548110151561165957fe5b906000526020600020900160005b50549050611670565b92915050565b61169261168761300563ffffffff16565b61182c63ffffffff16565b15156116e9576040517f08c379a00000000000000000000000000000000000000000000000000000000081526004018080602001828103825260308152602001806156d86030913960400191505060405180910390fd5b6101d260009054906101000a900460ff161515611771576040517f08c379a00000000000000000000000000000000000000000000000000000000081526004018080602001828103825260148152602001807f5061757361626c653a206e6f742070617573656400000000000000000000000081526020015060200191505060405180910390fd5b60006101d260006101000a81548160ff0219169083151502179055507f5db9ee0a495bf2e6ff9c91a7834c1ba4fdd244a5e8aa4e537bd38aeae4b073aa6117bc61300563ffffffff16565b604051808273ffffffffffffffffffffffffffffffffffffffff1673ffffffffffffffffffffffffffffffffffffffff16815260200191505060405180910390a15b5b5b565b611826838383604051806020016040528060008152602001506127dc63ffffffff16565b5b505050565b60006118468261019f60005061301290919063ffffffff16565b905061184d565b919050565b600060019054906101000a900460ff168061187757506118766130fb63ffffffff16565b5b8061188f5750600060009054906101000a900460ff16155b15156118e6576040517f08c379a000000000000000000000000000000000000000000000000000000000815260040180806020018281038252602e8152602001806158d4602e913960400191505060405180910390fd5b6000600060019054906101000a900460ff161590508015611938576001600060016101000a81548160ff0219169083151502179055506001600060006101000a81548160ff0219169083151502179055505b61194661311363ffffffff16565b15156119525760006000fd5b82610105600050908051906020019061196c92919061559e565b5081610106600050908051906020019061198792919061559e565b5061199e635b5e139f60e01b61313563ffffffff16565b5b80156119c1576000600060016101000a81548160ff0219169083151502179055505b505b5050565b60006119d761144563ffffffff16565b82101515611a30576040517f08c379a000000000000000000000000000000000000000000000000000000000815260040180806020018281038252602c81526020018061597d602c913960400191505060405180910390fd5b60d160005082815481101515611a4257fe5b906000526020600020900160005b50549050611a59565b919050565b6000611a7c611a7161300563ffffffff16565b6127b663ffffffff16565b1515611ad3576040517f08c379a00000000000000000000000000000000000000000000000000000000081526004018080602001828103825260308152602001806158096030913960400191505060405180910390fd5b611ae3848461324763ffffffff16565b611af3838361327b63ffffffff16565b60019050611afc565b5b9392505050565b600060019054906101000a900460ff1680611b295750611b286130fb63ffffffff16565b5b80611b415750600060009054906101000a900460ff16155b1515611b98576040517f08c379a000000000000000000000000000000000000000000000000000000000815260040180806020018281038252602e8152602001806158d4602e913960400191505060405180910390fd5b6000600060019054906101000a900460ff161590508015611bea576001600060016101000a81548160ff0219169083151502179055506001600060006101000a81548160ff0219169083151502179055505b6000610238600050819090905550611c14611c0961300563ffffffff16565b61331563ffffffff16565b611c226134e163ffffffff16565b611c306121dc63ffffffff16565b611cb06040518060400160405280600f81526020017f4d65726b6c654d696e74546f6b656e00000000000000000000000000000000008152602001506040518060400160405280600381526020017f4d4d54000000000000000000000000000000000000000000000000000000000081526020015061185263ffffffff16565b8161023760006101000a81548173ffffffffffffffffffffffffffffffffffffffff021916908373ffffffffffffffffffffffffffffffffffffffff160217905550611d013061361263ffffffff16565b611d103061376363ffffffff16565b611d1f3061285d63ffffffff16565b611d2e306137c263ffffffff16565b6000600090505b8451811015611d7057611d628582815181101515611d4f57fe5b602002602001015161382163ffffffff16565b5b8060010190508050611d35565b506000600090505b8351811015611db357611da58482815181101515611d9257fe5b602002602001015161388063ffffffff16565b5b8060010190508050611d78565b505b8015611dd7576000600060016101000a81548160ff0219169083151502179055505b505b505050565b60006101d260009054906101000a900460ff169050611df8565b90565b600060006099600050600084815260200190815260200160002060009054906101000a900473ffffffffffffffffffffffffffffffffffffffff169050600073ffffffffffffffffffffffffffffffffffffffff168173ffffffffffffffffffffffffffffffffffffffff1614151515611ec0576040517f08c379a00000000000000000000000000000000000000000000000000000000081526004018080602001828103825260298152602001806157e06029913960400191505060405180910390fd5b80915050611eca56505b919050565b611eeb611ee061300563ffffffff16565b6137c263ffffffff16565b5b565b6000600073ffffffffffffffffffffffffffffffffffffffff168273ffffffffffffffffffffffffffffffffffffffff1614151515611f78576040517f08c379a000000000000000000000000000000000000000000000000000000000815260040180806020018281038252602a8152602001806157b6602a913960400191505060405180910390fd5b611fcd609b60005060008473ffffffffffffffffffffffffffffffffffffffff1673ffffffffffffffffffffffffffffffffffffffff1681526020019081526020016000206000506138df909063ffffffff16565b9050611fd4565b919050565b611fe761255c63ffffffff16565b151561205e576040517f08c379a00000000000000000000000000000000000000000000000000000000081526004018080602001828103825260208152602001807f4f776e61626c653a2063616c6c6572206973206e6f7420746865206f776e657281526020015060200191505060405180910390fd5b600073ffffffffffffffffffffffffffffffffffffffff16603360009054906101000a900473ffffffffffffffffffffffffffffffffffffffff1673ffffffffffffffffffffffffffffffffffffffff167f8be0079c531659141344cd1fd0a4f28419497f9722a3daafe3b4186f6b6457e060405160405180910390a36000603360006101000a81548173ffffffffffffffffffffffffffffffffffffffff021916908373ffffffffffffffffffffffffffffffffffffffff1602179055505b5b565b61212f61255c63ffffffff16565b15156121a6576040517f08c379a00000000000000000000000000000000000000000000000000000000081526004018080602001828103825260208152602001807f4f776e61626c653a2063616c6c6572206973206e6f7420746865206f776e657281526020015060200191505060405180910390fd5b60006121b66138f563ffffffff16565b90506121c8828261324763ffffffff16565b6121d661391b63ffffffff16565b505b5b50565b600060019054906101000a900460ff168061220157506122006130fb63ffffffff16565b5b806122195750600060009054906101000a900460ff16155b1515612270576040517f08c379a000000000000000000000000000000000000000000000000000000000815260040180806020018281038252602e8152602001806158d4602e913960400191505060405180910390fd5b6000600060019054906101000a900460ff1615905080156122c2576001600060016101000a81548160ff0219169083151502179055506001600060006101000a81548160ff0219169083151502179055505b6122d061311363ffffffff16565b15156122dc5760006000fd5b6122f263780e9d6360e01b61313563ffffffff16565b5b8015612315576000600060016101000a81548160ff0219169083151502179055505b505b565b61233561232a61300563ffffffff16565b61182c63ffffffff16565b151561238c576040517f08c379a00000000000000000000000000000000000000000000000000000000081526004018080602001828103825260308152602001806156d86030913960400191505060405180910390fd5b61239b8161388063ffffffff16565b5b5b50565b6123bc6123b161300563ffffffff16565b61182c63ffffffff16565b1515612413576040517f08c379a00000000000000000000000000000000000000000000000000000000081526004018080602001828103825260308152602001806156d86030913960400191505060405180910390fd5b6101d260009054906101000a900460ff1615151561249c576040517f08c379a00000000000000000000000000000000000000000000000000000000081526004018080602001828103825260108152602001807f5061757361626c653a207061757365640000000000000000000000000000000081526020015060200191505060405180910390fd5b60016101d260006101000a81548160ff0219169083151502179055507f62e78cea01bee320cd4e420270b5ea74000d11b0c9f74754ebdbfc544b05a2586124e761300563ffffffff16565b604051808273ffffffffffffffffffffffffffffffffffffffff1673ffffffffffffffffffffffffffffffffffffffff16815260200191505060405180910390a15b5b5b565b6000603360009054906101000a900473ffffffffffffffffffffffffffffffffffffffff169050612559565b90565b6000603360009054906101000a900473ffffffffffffffffffffffffffffffffffffffff1673ffffffffffffffffffffffffffffffffffffffff166125a561300563ffffffff16565b73ffffffffffffffffffffffffffffffffffffffff161490506125c3565b90565b60606101066000508054600181600116156101000203166002900480601f0160208091040260200160405190810160405280929190818152602001828054600181600116156101000203166002900480156126625780601f1061263757610100808354040283529160200191612662565b820191906000526020600020905b81548152906001019060200180831161264557829003601f168201915b5050505050905061266e565b90565b61268d61268261300563ffffffff16565b6127b663ffffffff16565b15156126e4576040517f08c379a00000000000000000000000000000000000000000000000000000000081526004018080602001828103825260308152602001806158096030913960400191505060405180910390fd5b6126f38161382163ffffffff16565b5b5b50565b61271461270961300563ffffffff16565b61376363ffffffff16565b5b565b6101d260009054906101000a900460ff161515156127a0576040517f08c379a00000000000000000000000000000000000000000000000000000000081526004018080602001828103825260108152602001807f5061757361626c653a207061757365640000000000000000000000000000000081526020015060200191505060405180910390fd5b6127b0828261393563ffffffff16565b5b5b5050565b60006127d08261013a60005061301290919063ffffffff16565b90506127d7565b919050565b6127ed84848461145a63ffffffff16565b6127ff84848484613b0b63ffffffff16565b1515612856576040517f08c379a00000000000000000000000000000000000000000000000000000000081526004018080602001828103825260328152602001806156a66032913960400191505060405180910390fd5b5b50505050565b600060019054906101000a900460ff168061288257506128816130fb63ffffffff16565b5b8061289a5750600060009054906101000a900460ff16155b15156128f1576040517f08c379a000000000000000000000000000000000000000000000000000000000815260040180806020018281038252602e8152602001806158d4602e913960400191505060405180910390fd5b6000600060019054906101000a900460ff161590508015612943576001600060016101000a81548160ff0219169083151502179055506001600060006101000a81548160ff0219169083151502179055505b61295161311363ffffffff16565b151561295d5760006000fd5b61296c82613d1463ffffffff16565b5b801561298f576000600060016101000a81548160ff0219169083151502179055505b505b50565b60606129c16129a76129cd63ffffffff16565b6129b684613e4d63ffffffff16565b613f9563ffffffff16565b90506129c8565b919050565b60606102396000508054600181600116156101000203166002900480601f016020809104026020016040519081016040528092919081815260200182805460018160011615610100020316600290048015612a695780601f10612a3e57610100808354040283529160200191612a69565b820191906000526020600020905b815481529060010190602001808311612a4c57829003601f168201915b50505050509050612a75565b90565b612a8661255c63ffffffff16565b1515612afd576040517f08c379a00000000000000000000000000000000000000000000000000000000081526004018080602001828103825260208152602001807f4f776e61626c653a2063616c6c6572206973206e6f7420746865206f776e657281526020015060200191505060405180910390fd5b806102396000509080519060200190612b1792919061559e565b505b5b50565b6000600061023760009054906101000a900473ffffffffffffffffffffffffffffffffffffffff1690508273ffffffffffffffffffffffffffffffffffffffff168173ffffffffffffffffffffffffffffffffffffffff1663c4552791866040518263ffffffff1660e01b8152600401808273ffffffffffffffffffffffffffffffffffffffff1673ffffffffffffffffffffffffffffffffffffffff16815260200191505060206040518083038186803b158015612bdc5760006000fd5b505afa158015612bf1573d600060003e3d6000fd5b505050506040513d6020811015612c085760006000fd5b810190808051906020019092919050505073ffffffffffffffffffffffffffffffffffffffff161415612c3f576001915050612c58565b612c4f8484613fed63ffffffff16565b915050612c5856505b92915050565b612c6c61255c63ffffffff16565b1515612ce3576040517f08c379a00000000000000000000000000000000000000000000000000000000081526004018080602001828103825260208152602001807f4f776e61626c653a2063616c6c6572206973206e6f7420746865206f776e657281526020015060200191505060405180910390fd5b612cf28161408c63ffffffff16565b5b5b50565b600060006099600050600084815260200190815260200160002060009054906101000a900473ffffffffffffffffffffffffffffffffffffffff169050600073ffffffffffffffffffffffffffffffffffffffff168173ffffffffffffffffffffffffffffffffffffffff161415915050612d6e56505b919050565b6000612d8482611dfb63ffffffff16565b90508073ffffffffffffffffffffffffffffffffffffffff168373ffffffffffffffffffffffffffffffffffffffff1614151515612e0d576040517f08c379a000000000000000000000000000000000000000000000000000000000815260040180806020018281038252602181526020018061592b6021913960400191505060405180910390fd5b8073ffffffffffffffffffffffffffffffffffffffff16612e3261300563ffffffff16565b73ffffffffffffffffffffffffffffffffffffffff161480612e6d5750612e6c81612e6161300563ffffffff16565b612b1d63ffffffff16565b5b1515612ec4576040517f08c379a000000000000000000000000000000000000000000000000000000000815260040180806020018281038252603881526020018061577e6038913960400191505060405180910390fd5b82609a600050600084815260200190815260200160002060006101000a81548173ffffffffffffffffffffffffffffffffffffffff021916908373ffffffffffffffffffffffffffffffffffffffff160217905550818373ffffffffffffffffffffffffffffffffffffffff168273ffffffffffffffffffffffffffffffffffffffff167f8c5be1e5ebec7d5bd14f71427d1e84f3dd0314c0f7b2291e5b200ac8c7c3b92560405160405180910390a4505b5050565b612f97612f8b61300563ffffffff16565b826141d563ffffffff16565b1515612fee576040517f08c379a000000000000000000000000000000000000000000000000000000000815260040180806020018281038252603181526020018061594c6031913960400191505060405180910390fd5b612fff8383836142e963ffffffff16565b5b505050565b600033905061300f565b90565b6000600073ffffffffffffffffffffffffffffffffffffffff168273ffffffffffffffffffffffffffffffffffffffff161415151561309c576040517f08c379a00000000000000000000000000000000000000000000000000000000081526004018080602001828103825260228152602001806158b26022913960400191505060405180910390fd5b8260000160005060008373ffffffffffffffffffffffffffffffffffffffff1673ffffffffffffffffffffffffffffffffffffffff16815260200190815260200160002060009054906101000a900460ff1690506130f5565b92915050565b60006000303b90506000811491505061311056505b90565b600061312b6380ac58cd60e01b6111e063ffffffff16565b9050613132565b90565b63ffffffff60e01b817bffffffffffffffffffffffffffffffffffffffffffffffffffffffff1916141515156131d6576040517f08c379a000000000000000000000000000000000000000000000000000000000815260040180806020018281038252601c8152602001807f4552433136353a20696e76616c696420696e746572666163652069640000000081526020015060200191505060405180910390fd5b600160666000506000837bffffffffffffffffffffffffffffffffffffffffffffffffffffffff19167bffffffffffffffffffffffffffffffffffffffffffffffffffffffff1916815260200190815260200160002060006101000a81548160ff0219169083151502179055505b50565b613257828261432063ffffffff16565b613267828261455a63ffffffff16565b6132768161463a63ffffffff16565b5b5050565b61328a82612cf763ffffffff16565b15156132e1576040517f08c379a000000000000000000000000000000000000000000000000000000000815260040180806020018281038252602c815260200180615886602c913960400191505060405180910390fd5b806101076000506000848152602001908152602001600020600050908051906020019061330f92919061559e565b505b5050565b600060019054906101000a900460ff168061333a57506133396130fb63ffffffff16565b5b806133525750600060009054906101000a900460ff16155b15156133a9576040517f08c379a000000000000000000000000000000000000000000000000000000000815260040180806020018281038252602e8152602001806158d4602e913960400191505060405180910390fd5b6000600060019054906101000a900460ff1615905080156133fb576001600060016101000a81548160ff0219169083151502179055506001600060006101000a81548160ff0219169083151502179055505b81603360006101000a81548173ffffffffffffffffffffffffffffffffffffffff021916908373ffffffffffffffffffffffffffffffffffffffff160217905550603360009054906101000a900473ffffffffffffffffffffffffffffffffffffffff1673ffffffffffffffffffffffffffffffffffffffff16600073ffffffffffffffffffffffffffffffffffffffff167f8be0079c531659141344cd1fd0a4f28419497f9722a3daafe3b4186f6b6457e060405160405180910390a35b80156134dc576000600060016101000a81548160ff0219169083151502179055505b505b50565b600060019054906101000a900460ff168061350657506135056130fb63ffffffff16565b5b8061351e5750600060009054906101000a900460ff16155b1515613575576040517f08c379a000000000000000000000000000000000000000000000000000000000815260040180806020018281038252602e8152602001806158d4602e913960400191505060405180910390fd5b6000600060019054906101000a900460ff1615905080156135c7576001600060016101000a81548160ff0219169083151502179055506001600060006101000a81548160ff0219169083151502179055505b6135d561469963ffffffff16565b6135eb6380ac58cd60e01b61313563ffffffff16565b5b801561360e576000600060016101000a81548160ff0219169083151502179055505b505b565b600060019054906101000a900460ff168061363757506136366130fb63ffffffff16565b5b8061364f5750600060009054906101000a900460ff16155b15156136a6576040517f08c379a000000000000000000000000000000000000000000000000000000000815260040180806020018281038252602e8152602001806158d4602e913960400191505060405180910390fd5b6000600060019054906101000a900460ff1615905080156136f8576001600060016101000a81548160ff0219169083151502179055506001600060006101000a81548160ff0219169083151502179055505b61370661311363ffffffff16565b15156137125760006000fd5b6137206147bc63ffffffff16565b151561372c5760006000fd5b61373b826147de63ffffffff16565b5b801561375e576000600060016101000a81548160ff0219169083151502179055505b505b50565b61377b8161013a60005061491190919063ffffffff16565b8073ffffffffffffffffffffffffffffffffffffffff167fe94479a9f7e1952cc78f2d6baab678adc1b772d936c6583def489e524cb6669260405160405180910390a25b50565b6137da8161019f60005061491190919063ffffffff16565b8073ffffffffffffffffffffffffffffffffffffffff167fcd265ebaf09df2871cc7bd4133404a235ba12eff2041bb89d9c714a2621c7c7e60405160405180910390a25b50565b6138398161013a6000506149da90919063ffffffff16565b8073ffffffffffffffffffffffffffffffffffffffff167f6ae172837ea30b801fbfcdd4108aa1d5bf8ff775444fd70256b44e6bf3dfc3f660405160405180910390a25b50565b6138988161019f6000506149da90919063ffffffff16565b8073ffffffffffffffffffffffffffffffffffffffff167f6719d08c1888103bea251a4ed56406bd0c3e69723c8a1686e017e7bbe159b6f860405160405180910390a25b50565b6000816000016000505490506138f0565b919050565b6000613911600161023860005054614ac490919063ffffffff16565b9050613918565b90565b61023860008181505480929190600101919050909055505b565b61394361300563ffffffff16565b73ffffffffffffffffffffffffffffffffffffffff168273ffffffffffffffffffffffffffffffffffffffff16141515156139e9576040517f08c379a00000000000000000000000000000000000000000000000000000000081526004018080602001828103825260198152602001807f4552433732313a20617070726f766520746f2063616c6c65720000000000000081526020015060200191505060405180910390fd5b80609c60005060006139ff61300563ffffffff16565b73ffffffffffffffffffffffffffffffffffffffff1673ffffffffffffffffffffffffffffffffffffffff16815260200190815260200160002060005060008473ffffffffffffffffffffffffffffffffffffffff1673ffffffffffffffffffffffffffffffffffffffff16815260200190815260200160002060006101000a81548160ff0219169083151502179055508173ffffffffffffffffffffffffffffffffffffffff16613ab561300563ffffffff16565b73ffffffffffffffffffffffffffffffffffffffff167f17307eab39ab6107e8899845ad3d59bd9653f200f220920489ca2b5937696c3183604051808215151515815260200191505060405180910390a35b5050565b6000613b348473ffffffffffffffffffffffffffffffffffffffff16614b58909063ffffffff16565b1515613b435760019050613d0c565b60008473ffffffffffffffffffffffffffffffffffffffff1663150b7a02613b6f61300563ffffffff16565b8887876040518563ffffffff1660e01b8152600401808573ffffffffffffffffffffffffffffffffffffffff1673ffffffffffffffffffffffffffffffffffffffff1681526020018473ffffffffffffffffffffffffffffffffffffffff1673ffffffffffffffffffffffffffffffffffffffff16815260200183815260200180602001828103825283818151815260200191508051906020019080838360005b83811015613c2c5780820151818401525b602081019050613c10565b50505050905090810190601f168015613c595780820380516001836020036101000a031916815260200191505b5095505050505050602060405180830381600087803b158015613c7c5760006000fd5b505af1158015613c91573d600060003e3d6000fd5b505050506040513d6020811015613ca85760006000fd5b8101908080519060200190929190505050905063150b7a0260e01b7bffffffffffffffffffffffffffffffffffffffffffffffffffffffff1916817bffffffffffffffffffffffffffffffffffffffffffffffffffffffff191614915050613d0c56505b949350505050565b600060019054906101000a900460ff1680613d395750613d386130fb63ffffffff16565b5b80613d515750600060009054906101000a900460ff16155b1515613da8576040517f08c379a000000000000000000000000000000000000000000000000000000000815260040180806020018281038252602e8152602001806158d4602e913960400191505060405180910390fd5b6000600060019054906101000a900460ff161590508015613dfa576001600060016101000a81548160ff0219169083151502179055506001600060006101000a81548160ff0219169083151502179055505b613e0982614b7263ffffffff16565b60006101d260006101000a81548160ff0219169083151502179055505b8015613e48576000600060016101000a81548160ff0219169083151502179055505b505b50565b60606000821415613e98576040518060400160405280600181526020017f30000000000000000000000000000000000000000000000000000000000000008152602001509050613f90565b600082905060005b600082141515613ec8578080600101915050600a82811515613ebe57fe5b0491508150613ea0565b6060816040519080825280601f01601f191660200182016040528015613efd5781602001600182028038833980820191505090505b50905060006001830390505b600086141515613f8057600a86811515613f1f57fe5b0660300160f81b828280600190039350815181101515613f3b57fe5b60200101907effffffffffffffffffffffffffffffffffffffffffffffffffffffffffffff1916908160001a905350600a86811515613f7657fe5b0495508550613f09565b81945050505050613f9056505050505b919050565b6060613fe08383604051806020016040528060008152602001506040518060200160405280600081526020015060405180602001604052806000815260200150614ca563ffffffff16565b9050613fe7565b92915050565b6000609c60005060008473ffffffffffffffffffffffffffffffffffffffff1673ffffffffffffffffffffffffffffffffffffffff16815260200190815260200160002060005060008373ffffffffffffffffffffffffffffffffffffffff1673ffffffffffffffffffffffffffffffffffffffff16815260200190815260200160002060009054906101000a900460ff169050614086565b92915050565b600073ffffffffffffffffffffffffffffffffffffffff168173ffffffffffffffffffffffffffffffffffffffff1614151515614114576040517f08c379a00000000000000000000000000000000000000000000000000000000081526004018080602001828103825260268152602001806157086026913960400191505060405180910390fd5b8073ffffffffffffffffffffffffffffffffffffffff16603360009054906101000a900473ffffffffffffffffffffffffffffffffffffffff1673ffffffffffffffffffffffffffffffffffffffff167f8be0079c531659141344cd1fd0a4f28419497f9722a3daafe3b4186f6b6457e060405160405180910390a380603360006101000a81548173ffffffffffffffffffffffffffffffffffffffff021916908373ffffffffffffffffffffffffffffffffffffffff1602179055505b50565b60006141e682612cf763ffffffff16565b151561423d576040517f08c379a000000000000000000000000000000000000000000000000000000000815260040180806020018281038252602c815260200180615752602c913960400191505060405180910390fd5b600061424e83611dfb63ffffffff16565b90508073ffffffffffffffffffffffffffffffffffffffff168473ffffffffffffffffffffffffffffffffffffffff1614806142c357508373ffffffffffffffffffffffffffffffffffffffff166142ab846112fb63ffffffff16565b73ffffffffffffffffffffffffffffffffffffffff16145b806142da57506142d98185612b1d63ffffffff16565b5b9150506142e356505b92915050565b6142fa838383614f9863ffffffff16565b61430a838261522363ffffffff16565b61431a828261455a63ffffffff16565b5b505050565b600073ffffffffffffffffffffffffffffffffffffffff168273ffffffffffffffffffffffffffffffffffffffff16141515156143c8576040517f08c379a00000000000000000000000000000000000000000000000000000000081526004018080602001828103825260208152602001807f4552433732313a206d696e7420746f20746865207a65726f206164647265737381526020015060200191505060405180910390fd5b6143d781612cf763ffffffff16565b15151561444f576040517f08c379a000000000000000000000000000000000000000000000000000000000815260040180806020018281038252601c8152602001807f4552433732313a20746f6b656e20616c7265616479206d696e7465640000000081526020015060200191505060405180910390fd5b816099600050600083815260200190815260200160002060006101000a81548173ffffffffffffffffffffffffffffffffffffffff021916908373ffffffffffffffffffffffffffffffffffffffff1602179055506144f9609b60005060008473ffffffffffffffffffffffffffffffffffffffff1673ffffffffffffffffffffffffffffffffffffffff1681526020019081526020016000206000506153fc909063ffffffff16565b808273ffffffffffffffffffffffffffffffffffffffff16600073ffffffffffffffffffffffffffffffffffffffff167fddf252ad1be2c89b69c2b068fc378daa952ba7f163c4a11628f55a4df523b3ef60405160405180910390a45b5050565b60cf60005060008373ffffffffffffffffffffffffffffffffffffffff1673ffffffffffffffffffffffffffffffffffffffff1681526020019081526020016000206000508054905060d0600050600083815260200190815260200160002060005081909090555060cf60005060008373ffffffffffffffffffffffffffffffffffffffff1673ffffffffffffffffffffffffffffffffffffffff1681526020019081526020016000206000508190806001815401808255809150509060018203906000526020600020900160005b9091929091909150909055505b5050565b60d16000508054905060d2600050600083815260200190815260200160002060005081909090555060d16000508190806001815401808255809150509060018203906000526020600020900160005b9091929091909150909055505b50565b600060019054906101000a900460ff16806146be57506146bd6130fb63ffffffff16565b5b806146d65750600060009054906101000a900460ff16155b151561472d576040517f08c379a000000000000000000000000000000000000000000000000000000000815260040180806020018281038252602e8152602001806158d4602e913960400191505060405180910390fd5b6000600060019054906101000a900460ff16159050801561477f576001600060016101000a81548160ff0219169083151502179055506001600060006101000a81548160ff0219169083151502179055505b6147956301ffc9a760e01b61313563ffffffff16565b5b80156147b8576000600060016101000a81548160ff0219169083151502179055505b505b565b60006147d4635b5e139f60e01b6111e063ffffffff16565b90506147db565b90565b600060019054906101000a900460ff168061480357506148026130fb63ffffffff16565b5b8061481b5750600060009054906101000a900460ff16155b1515614872576040517f08c379a000000000000000000000000000000000000000000000000000000000815260040180806020018281038252602e8152602001806158d4602e913960400191505060405180910390fd5b6000600060019054906101000a900460ff1615905080156148c4576001600060016101000a81548160ff0219169083151502179055506001600060006101000a81548160ff0219169083151502179055505b6148d3826127b663ffffffff16565b15156148e9576148e88261382163ffffffff16565b5b5b801561490c576000600060016101000a81548160ff0219169083151502179055505b505b50565b614921828261301263ffffffff16565b1515614978576040517f08c379a00000000000000000000000000000000000000000000000000000000081526004018080602001828103825260218152602001806158396021913960400191505060405180910390fd5b60008260000160005060008373ffffffffffffffffffffffffffffffffffffffff1673ffffffffffffffffffffffffffffffffffffffff16815260200190815260200160002060006101000a81548160ff0219169083151502179055505b5050565b6149ea828261301263ffffffff16565b151515614a62576040517f08c379a000000000000000000000000000000000000000000000000000000000815260040180806020018281038252601f8152602001807f526f6c65733a206163636f756e7420616c72656164792068617320726f6c650081526020015060200191505060405180910390fd5b60018260000160005060008373ffffffffffffffffffffffffffffffffffffffff1673ffffffffffffffffffffffffffffffffffffffff16815260200190815260200160002060006101000a81548160ff0219169083151502179055505b5050565b600060008284019050838110151515614b48576040517f08c379a000000000000000000000000000000000000000000000000000000000815260040180806020018281038252601b8152602001807f536166654d6174683a206164646974696f6e206f766572666c6f77000000000081526020015060200191505060405180910390fd5b80915050614b5256505b92915050565b60006000823b905060008111915050614b6d56505b919050565b600060019054906101000a900460ff1680614b975750614b966130fb63ffffffff16565b5b80614baf5750600060009054906101000a900460ff16155b1515614c06576040517f08c379a000000000000000000000000000000000000000000000000000000000815260040180806020018281038252602e8152602001806158d4602e913960400191505060405180910390fd5b6000600060019054906101000a900460ff161590508015614c58576001600060016101000a81548160ff0219169083151502179055506001600060006101000a81548160ff0219169083151502179055505b614c678261182c63ffffffff16565b1515614c7d57614c7c8261388063ffffffff16565b5b5b8015614ca0576000600060016101000a81548160ff0219169083151502179055505b505b50565b606060608690506060869050606086905060608690506060869050606081518351855187518951010101016040519080825280601f01601f191660200182016040528015614d025781602001600182028038833980820191505090505b50905060608190506000600090506000600090505b8851811015614d8a578881815181101515614d2e57fe5b602001015160f81c60f81b8383806001019450815181101515614d4d57fe5b60200101907effffffffffffffffffffffffffffffffffffffffffffffffffffffffffffff1916908160001a9053505b8080600101915050614d17565b506000600090505b8751811015614e05578781815181101515614da957fe5b602001015160f81c60f81b8383806001019450815181101515614dc857fe5b60200101907effffffffffffffffffffffffffffffffffffffffffffffffffffffffffffff1916908160001a9053505b8080600101915050614d92565b506000600090505b8651811015614e80578681815181101515614e2457fe5b602001015160f81c60f81b8383806001019450815181101515614e4357fe5b60200101907effffffffffffffffffffffffffffffffffffffffffffffffffffffffffffff1916908160001a9053505b8080600101915050614e0d565b506000600090505b8551811015614efb578581815181101515614e9f57fe5b602001015160f81c60f81b8383806001019450815181101515614ebe57fe5b60200101907effffffffffffffffffffffffffffffffffffffffffffffffffffffffffffff1916908160001a9053505b8080600101915050614e88565b506000600090505b8451811015614f76578481815181101515614f1a57fe5b602001015160f81c60f81b8383806001019450815181101515614f3957fe5b60200101907effffffffffffffffffffffffffffffffffffffffffffffffffffffffffffff1916908160001a9053505b8080600101915050614f03565b508198505050505050505050614f8f5650505050505050505b95945050505050565b8273ffffffffffffffffffffffffffffffffffffffff16614fbe82611dfb63ffffffff16565b73ffffffffffffffffffffffffffffffffffffffff1614151561502c576040517f08c379a00000000000000000000000000000000000000000000000000000000081526004018080602001828103825260298152602001806159026029913960400191505060405180910390fd5b600073ffffffffffffffffffffffffffffffffffffffff168273ffffffffffffffffffffffffffffffffffffffff16141515156150b4576040517f08c379a000000000000000000000000000000000000000000000000000000000815260040180806020018281038252602481526020018061572e6024913960400191505060405180910390fd5b6150c38161541763ffffffff16565b615118609b60005060008573ffffffffffffffffffffffffffffffffffffffff1673ffffffffffffffffffffffffffffffffffffffff1681526020019081526020016000206000506154de909063ffffffff16565b61516d609b60005060008473ffffffffffffffffffffffffffffffffffffffff1673ffffffffffffffffffffffffffffffffffffffff1681526020019081526020016000206000506153fc909063ffffffff16565b816099600050600083815260200190815260200160002060006101000a81548173ffffffffffffffffffffffffffffffffffffffff021916908373ffffffffffffffffffffffffffffffffffffffff160217905550808273ffffffffffffffffffffffffffffffffffffffff168473ffffffffffffffffffffffffffffffffffffffff167fddf252ad1be2c89b69c2b068fc378daa952ba7f163c4a11628f55a4df523b3ef60405160405180910390a45b505050565b6000615281600160cf60005060008673ffffffffffffffffffffffffffffffffffffffff1673ffffffffffffffffffffffffffffffffffffffff1681526020019081526020016000206000508054905061550a90919063ffffffff16565b9050600060d06000506000848152602001908152602001600020600050549050818114151561539a57600060cf60005060008673ffffffffffffffffffffffffffffffffffffffff1673ffffffffffffffffffffffffffffffffffffffff168152602001908152602001600020600050838154811015156152fe57fe5b906000526020600020900160005b505490508060cf60005060008773ffffffffffffffffffffffffffffffffffffffff1673ffffffffffffffffffffffffffffffffffffffff1681526020019081526020016000206000508381548110151561536357fe5b906000526020600020900160005b508190909055508160d06000506000838152602001908152602001600020600050819090905550505b60cf60005060008573ffffffffffffffffffffffffffffffffffffffff1673ffffffffffffffffffffffffffffffffffffffff16815260200190815260200160002060005080548091906001900390906153f49190615623565b5050505b5050565b60018160000160008282825054019250508190909055505b50565b600073ffffffffffffffffffffffffffffffffffffffff16609a600050600083815260200190815260200160002060009054906101000a900473ffffffffffffffffffffffffffffffffffffffff1673ffffffffffffffffffffffffffffffffffffffff161415156154da576000609a600050600083815260200190815260200160002060006101000a81548173ffffffffffffffffffffffffffffffffffffffff021916908373ffffffffffffffffffffffffffffffffffffffff1602179055505b5b50565b6154f96001826000016000505461550a90919063ffffffff16565b816000016000508190909055505b50565b6000828211151515615587576040517f08c379a000000000000000000000000000000000000000000000000000000000815260040180806020018281038252601e8152602001807f536166654d6174683a207375627472616374696f6e206f766572666c6f77000081526020015060200191505060405180910390fd5b600082840390508091505061559856505b92915050565b828054600181600116156101000203166002900490600052602060002090601f016020900481019282601f106155df57805160ff1916838001178555615612565b82800160010185558215615612579182015b8281111561561157825182600050909055916020019190600101906155f1565b5b50905061561f919061564f565b5090565b81548183558181111561564a57818360005260206000209182019101615649919061564f565b5b505050565b6156779190615659565b808211156156735760008181506000905550600101615659565b5090565b9056fe455243373231456e756d657261626c653a206f776e657220696e646578206f7574206f6620626f756e64734552433732313a207472616e7366657220746f206e6f6e20455243373231526563656976657220696d706c656d656e746572506175736572526f6c653a2063616c6c657220646f6573206e6f742068617665207468652050617573657220726f6c654f776e61626c653a206e6577206f776e657220697320746865207a65726f20616464726573734552433732313a207472616e7366657220746f20746865207a65726f20616464726573734552433732313a206f70657261746f7220717565727920666f72206e6f6e6578697374656e7420746f6b656e4552433732313a20617070726f76652063616c6c6572206973206e6f74206f776e6572206e6f7220617070726f76656420666f7220616c6c4552433732313a2062616c616e636520717565727920666f7220746865207a65726f20616464726573734552433732313a206f776e657220717565727920666f72206e6f6e6578697374656e7420746f6b656e4d696e746572526f6c653a2063616c6c657220646f6573206e6f74206861766520746865204d696e74657220726f6c65526f6c65733a206163636f756e7420646f6573206e6f74206861766520726f6c654552433732313a20617070726f76656420717565727920666f72206e6f6e6578697374656e7420746f6b656e4552433732314d657461646174613a2055524920736574206f66206e6f6e6578697374656e7420746f6b656e526f6c65733a206163636f756e7420697320746865207a65726f2061646472657373436f6e747261637420696e7374616e63652068617320616c7265616479206265656e20696e697469616c697a65644552433732313a207472616e73666572206f6620746f6b656e2074686174206973206e6f74206f776e4552433732313a20617070726f76616c20746f2063757272656e74206f776e65724552433732313a207472616e736665722063616c6c6572206973206e6f74206f776e6572206e6f7220617070726f766564455243373231456e756d657261626c653a20676c6f62616c20696e646578206f7574206f6620626f756e6473a265627a7a723158200047454b2547e4a07a201cdaf98103825abe869f50a559623778d61801466a3864736f6c634300050c0032",
  "compiler": {
    "name": "solc",
    "version": "0.5.12+commit.7709ece9.Darwin.appleclang",
    "optimizer": {},
    "evmVersion": "constantinople"
  }
}