{
  "fileName": "MerkleMintController.sol",
  "contractName": "MerkleMintController",
  "source": "pragma solidity ^0.5.0;\n\nimport \"./merkleProof/Verify.sol\";\nimport \"@openzeppelin/upgrades/contracts/Initializable.sol\";\nimport \"@openzeppelin/contracts-ethereum-package/contracts/ownership/Ownable.sol\";\nimport \"./MerkleMintCore.sol\";\n\ncontract MerkleMintController is Initializable, Ownable, Verify {\n    MerkleMintCore public token;\n    bytes32 public merkleRoot;\n\n    function initialize(MerkleMintCore _token, bytes32 _merkleRoot) public initializer {\n        Ownable.initialize(msg.sender);\n        token = _token;\n        merkleRoot = _merkleRoot;\n    }\n\n    function mintAsset(\n        string memory _word,\n        bytes32 _leaf,\n        bytes32[] memory _proof,\n        uint256[] memory _positions,\n        uint256 tokenId,\n        string memory tokenURI\n    ) public onlyOwner {\n        require(\n            isValidData(_word, merkleRoot, _leaf, _proof, _positions),\n            \"MerkleMintController:: Not a valid Asset\"\n        );\n        token.mintWithTokenURI(address(this), tokenId, tokenURI);\n    }\n\n}\n",
  "sourcePath": "contracts/MerkleMintController.sol",
  "abi": [
    {
      "anonymous": false,
      "inputs": [
        {
          "indexed": true,
          "internalType": "address",
          "name": "previousOwner",
          "type": "address"
        },
        {
          "indexed": true,
          "internalType": "address",
          "name": "newOwner",
          "type": "address"
        }
      ],
      "name": "OwnershipTransferred",
      "type": "event"
    },
    {
      "constant": false,
      "inputs": [
        {
          "internalType": "contract MerkleMintCore",
          "name": "_token",
          "type": "address"
        },
        {
          "internalType": "bytes32",
          "name": "_merkleRoot",
          "type": "bytes32"
        }
      ],
      "name": "initialize",
      "outputs": [],
      "payable": false,
      "stateMutability": "nonpayable",
      "type": "function"
    },
    {
      "constant": false,
      "inputs": [
        {
          "internalType": "address",
          "name": "sender",
          "type": "address"
        }
      ],
      "name": "initialize",
      "outputs": [],
      "payable": false,
      "stateMutability": "nonpayable",
      "type": "function"
    },
    {
      "constant": true,
      "inputs": [],
      "name": "isOwner",
      "outputs": [
        {
          "internalType": "bool",
          "name": "",
          "type": "bool"
        }
      ],
      "payable": false,
      "stateMutability": "view",
      "type": "function"
    },
    {
      "constant": true,
      "inputs": [
        {
          "internalType": "string",
          "name": "_word",
          "type": "string"
        },
        {
          "internalType": "bytes32",
          "name": "_root",
          "type": "bytes32"
        },
        {
          "internalType": "bytes32",
          "name": "_leaf",
          "type": "bytes32"
        },
        {
          "internalType": "bytes32[]",
          "name": "_proof",
          "type": "bytes32[]"
        },
        {
          "internalType": "uint256[]",
          "name": "_positions",
          "type": "uint256[]"
        }
      ],
      "name": "isValidData",
      "outputs": [
        {
          "internalType": "bool",
          "name": "",
          "type": "bool"
        }
      ],
      "payable": false,
      "stateMutability": "pure",
      "type": "function"
    },
    {
      "constant": true,
      "inputs": [],
      "name": "merkleRoot",
      "outputs": [
        {
          "internalType": "bytes32",
          "name": "",
          "type": "bytes32"
        }
      ],
      "payable": false,
      "stateMutability": "view",
      "type": "function"
    },
    {
      "constant": true,
      "inputs": [
        {
          "internalType": "bytes32",
          "name": "root",
          "type": "bytes32"
        },
        {
          "internalType": "bytes32",
          "name": "leaf",
          "type": "bytes32"
        },
        {
          "internalType": "bytes32[]",
          "name": "proof",
          "type": "bytes32[]"
        },
        {
          "internalType": "uint256[]",
          "name": "positions",
          "type": "uint256[]"
        }
      ],
      "name": "merkleVerify",
      "outputs": [
        {
          "internalType": "bool",
          "name": "",
          "type": "bool"
        }
      ],
      "payable": false,
      "stateMutability": "pure",
      "type": "function"
    },
    {
      "constant": false,
      "inputs": [
        {
          "internalType": "string",
          "name": "_word",
          "type": "string"
        },
        {
          "internalType": "bytes32",
          "name": "_leaf",
          "type": "bytes32"
        },
        {
          "internalType": "bytes32[]",
          "name": "_proof",
          "type": "bytes32[]"
        },
        {
          "internalType": "uint256[]",
          "name": "_positions",
          "type": "uint256[]"
        },
        {
          "internalType": "uint256",
          "name": "tokenId",
          "type": "uint256"
        },
        {
          "internalType": "string",
          "name": "tokenURI",
          "type": "string"
        }
      ],
      "name": "mintAsset",
      "outputs": [],
      "payable": false,
      "stateMutability": "nonpayable",
      "type": "function"
    },
    {
      "constant": true,
      "inputs": [],
      "name": "owner",
      "outputs": [
        {
          "internalType": "address",
          "name": "",
          "type": "address"
        }
      ],
      "payable": false,
      "stateMutability": "view",
      "type": "function"
    },
    {
      "constant": false,
      "inputs": [],
      "name": "renounceOwnership",
      "outputs": [],
      "payable": false,
      "stateMutability": "nonpayable",
      "type": "function"
    },
    {
      "constant": true,
      "inputs": [],
      "name": "token",
      "outputs": [
        {
          "internalType": "contract MerkleMintCore",
          "name": "",
          "type": "address"
        }
      ],
      "payable": false,
      "stateMutability": "view",
      "type": "function"
    },
    {
      "constant": false,
      "inputs": [
        {
          "internalType": "address",
          "name": "newOwner",
          "type": "address"
        }
      ],
      "name": "transferOwnership",
      "outputs": [],
      "payable": false,
      "stateMutability": "nonpayable",
      "type": "function"
    }
  ],
  "bytecode": "0x60806040525b5b61000b565b6114f68061001a6000396000f3fe60806040523480156100115760006000fd5b50600436106100ae5760003560e01c80638da5cb5b116100725780638da5cb5b1461074f5780638f32d59b14610799578063be13f47c146107bb578063c4d66de81461080e578063f2fde38b14610853578063fc0c546a14610898576100ae565b80630e499d20146100b45780632eb4a7ab1461024357806340cbbab714610269578063715018a61461051857806387b8d1e214610522576100ae565b60006000fd5b610229600480360360808110156100cb5760006000fd5b8101908080356000191690602001909291908035600019169060200190929190803590602001906401000000008111156101055760006000fd5b8201836020820111156101185760006000fd5b8035906020019184602083028401116401000000008311171561013b5760006000fd5b919080806020026020016040519081016040528093929190818152602001838360200280828437600081840152601f19601f82011690508083019250505050505050909091929090919290803590602001906401000000008111156101a05760006000fd5b8201836020820111156101b35760006000fd5b803590602001918460208302840111640100000000831117156101d65760006000fd5b919080806020026020016040519081016040528093929190818152602001838360200280828437600081840152601f19601f820116905080830192505050505050509090919290909192905050506108e2565b604051808215151515815260200191505060405180910390f35b61024b6109e9565b60405180826000191660001916815260200191505060405180910390f35b610516600480360360c08110156102805760006000fd5b810190808035906020019064010000000081111561029e5760006000fd5b8201836020820111156102b15760006000fd5b803590602001918460018302840111640100000000831117156102d45760006000fd5b91908080601f016020809104026020016040519081016040528093929190818152602001838380828437600081840152601f19601f8201169050808301925050505050505090909192909091929080356000191690602001909291908035906020019064010000000081111561034a5760006000fd5b82018360208201111561035d5760006000fd5b803590602001918460208302840111640100000000831117156103805760006000fd5b919080806020026020016040519081016040528093929190818152602001838360200280828437600081840152601f19601f82011690508083019250505050505050909091929090919290803590602001906401000000008111156103e55760006000fd5b8201836020820111156103f85760006000fd5b8035906020019184602083028401116401000000008311171561041b5760006000fd5b919080806020026020016040519081016040528093929190818152602001838360200280828437600081840152601f19601f82011690508083019250505050505050909091929090919290803590602001909291908035906020019064010000000081111561048a5760006000fd5b82018360208201111561049d5760006000fd5b803590602001918460018302840111640100000000831117156104c05760006000fd5b91908080601f016020809104026020016040519081016040528093929190818152602001838380828437600081840152601f19601f820116905080830192505050505050509090919290909192905050506109f2565b005b610520610c46565b005b610735600480360360a08110156105395760006000fd5b81019080803590602001906401000000008111156105575760006000fd5b82018360208201111561056a5760006000fd5b8035906020019184600183028401116401000000008311171561058d5760006000fd5b91908080601f016020809104026020016040519081016040528093929190818152602001838380828437600081840152601f19601f8201169050808301925050505050505090909192909091929080356000191690602001909291908035600019169060200190929190803590602001906401000000008111156106115760006000fd5b8201836020820111156106245760006000fd5b803590602001918460208302840111640100000000831117156106475760006000fd5b919080806020026020016040519081016040528093929190818152602001838360200280828437600081840152601f19601f82011690508083019250505050505050909091929090919290803590602001906401000000008111156106ac5760006000fd5b8201836020820111156106bf5760006000fd5b803590602001918460208302840111640100000000831117156106e25760006000fd5b919080806020026020016040519081016040528093929190818152602001838360200280828437600081840152601f19601f82011690508083019250505050505050909091929090919290505050610d8e565b604051808215151515815260200191505060405180910390f35b610757610e44565b604051808273ffffffffffffffffffffffffffffffffffffffff1673ffffffffffffffffffffffffffffffffffffffff16815260200191505060405180910390f35b6107a1610e73565b604051808215151515815260200191505060405180910390f35b61080c600480360360408110156107d25760006000fd5b81019080803573ffffffffffffffffffffffffffffffffffffffff1690602001909291908035600019169060200190929190505050610edd565b005b610851600480360360208110156108255760006000fd5b81019080803573ffffffffffffffffffffffffffffffffffffffff16906020019092919050505061104c565b005b6108966004803603602081101561086a5760006000fd5b81019080803573ffffffffffffffffffffffffffffffffffffffff169060200190929190505050611218565b005b6108a06112b1565b604051808273ffffffffffffffffffffffffffffffffffffffff1673ffffffffffffffffffffffffffffffffffffffff16815260200191505060405180910390f35b600060008490506000600090505b84518110156109cc576000858281518110151561090957fe5b602002602001015190506001858381518110151561092357fe5b6020026020010151141561097957828160405160200180836000191660001916815260200182600019166000191681526020019250505060405160208183030381529060405280519060200120925082506109bd565b808360405160200180836000191660001916815260200182600019166000191681526020019250505060405160208183030381529060405280519060200120925082505b505b80806001019150506108f0565b5085600019168160001916149150506109e156505b949350505050565b60676000505481565b610a00610e7363ffffffff16565b1515610a77576040517f08c379a00000000000000000000000000000000000000000000000000000000081526004018080602001828103825260208152602001807f4f776e61626c653a2063616c6c6572206973206e6f7420746865206f776e657281526020015060200191505060405180910390fd5b610a8f86606760005054878787610d8e63ffffffff16565b1515610ae6576040517f08c379a00000000000000000000000000000000000000000000000000000000081526004018080602001828103825260288152602001806114466028913960400191505060405180910390fd5b606660009054906101000a900473ffffffffffffffffffffffffffffffffffffffff1673ffffffffffffffffffffffffffffffffffffffff166350bb4e7f3084846040518463ffffffff1660e01b8152600401808473ffffffffffffffffffffffffffffffffffffffff1673ffffffffffffffffffffffffffffffffffffffff16815260200183815260200180602001828103825283818151815260200191508051906020019080838360005b83811015610baf5780820151818401525b602081019050610b93565b50505050905090810190601f168015610bdc5780820380516001836020036101000a031916815260200191505b50945050505050602060405180830381600087803b158015610bfe5760006000fd5b505af1158015610c13573d600060003e3d6000fd5b505050506040513d6020811015610c2a5760006000fd5b8101908080519060200190929190505050505b5b505050505050565b610c54610e7363ffffffff16565b1515610ccb576040517f08c379a00000000000000000000000000000000000000000000000000000000081526004018080602001828103825260208152602001807f4f776e61626c653a2063616c6c6572206973206e6f7420746865206f776e657281526020015060200191505060405180910390fd5b600073ffffffffffffffffffffffffffffffffffffffff16603360009054906101000a900473ffffffffffffffffffffffffffffffffffffffff1673ffffffffffffffffffffffffffffffffffffffff167f8be0079c531659141344cd1fd0a4f28419497f9722a3daafe3b4186f6b6457e060405160405180910390a36000603360006101000a81548173ffffffffffffffffffffffffffffffffffffffff021916908373ffffffffffffffffffffffffffffffffffffffff1602179055505b5b565b60008360001916866040516020018082805190602001908083835b602083101515610dcf57805182525b602082019150602081019050602083039250610da9565b6001836020036101000a03801982511681845116808217855250505050505090500191505060405160208183030381529060405280519060200120600019161415610e3157610e26858585856108e263ffffffff16565b9050610e3b56610e3a565b60009050610e3b565b5b95945050505050565b6000603360009054906101000a900473ffffffffffffffffffffffffffffffffffffffff169050610e70565b90565b6000603360009054906101000a900473ffffffffffffffffffffffffffffffffffffffff1673ffffffffffffffffffffffffffffffffffffffff16610ebc6112d763ffffffff16565b73ffffffffffffffffffffffffffffffffffffffff16149050610eda565b90565b600060019054906101000a900460ff1680610f025750610f016112e463ffffffff16565b5b80610f1a5750600060009054906101000a900460ff16155b1515610f71576040517f08c379a000000000000000000000000000000000000000000000000000000000815260040180806020018281038252602e815260200180611494602e913960400191505060405180910390fd5b6000600060019054906101000a900460ff161590508015610fc3576001600060016101000a81548160ff0219169083151502179055506001600060006101000a81548160ff0219169083151502179055505b610fd23361104c63ffffffff16565b82606660006101000a81548173ffffffffffffffffffffffffffffffffffffffff021916908373ffffffffffffffffffffffffffffffffffffffff160217905550816067600050819090600019169055505b8015611046576000600060016101000a81548160ff0219169083151502179055505b505b5050565b600060019054906101000a900460ff168061107157506110706112e463ffffffff16565b5b806110895750600060009054906101000a900460ff16155b15156110e0576040517f08c379a000000000000000000000000000000000000000000000000000000000815260040180806020018281038252602e815260200180611494602e913960400191505060405180910390fd5b6000600060019054906101000a900460ff161590508015611132576001600060016101000a81548160ff0219169083151502179055506001600060006101000a81548160ff0219169083151502179055505b81603360006101000a81548173ffffffffffffffffffffffffffffffffffffffff021916908373ffffffffffffffffffffffffffffffffffffffff160217905550603360009054906101000a900473ffffffffffffffffffffffffffffffffffffffff1673ffffffffffffffffffffffffffffffffffffffff16600073ffffffffffffffffffffffffffffffffffffffff167f8be0079c531659141344cd1fd0a4f28419497f9722a3daafe3b4186f6b6457e060405160405180910390a35b8015611213576000600060016101000a81548160ff0219169083151502179055505b505b50565b611226610e7363ffffffff16565b151561129d576040517f08c379a00000000000000000000000000000000000000000000000000000000081526004018080602001828103825260208152602001807f4f776e61626c653a2063616c6c6572206973206e6f7420746865206f776e657281526020015060200191505060405180910390fd5b6112ac816112fc63ffffffff16565b5b5b50565b606660009054906101000a900473ffffffffffffffffffffffffffffffffffffffff1681565b60003390506112e1565b90565b60006000303b9050600081149150506112f956505b90565b600073ffffffffffffffffffffffffffffffffffffffff168173ffffffffffffffffffffffffffffffffffffffff1614151515611384576040517f08c379a000000000000000000000000000000000000000000000000000000000815260040180806020018281038252602681526020018061146e6026913960400191505060405180910390fd5b8073ffffffffffffffffffffffffffffffffffffffff16603360009054906101000a900473ffffffffffffffffffffffffffffffffffffffff1673ffffffffffffffffffffffffffffffffffffffff167f8be0079c531659141344cd1fd0a4f28419497f9722a3daafe3b4186f6b6457e060405160405180910390a380603360006101000a81548173ffffffffffffffffffffffffffffffffffffffff021916908373ffffffffffffffffffffffffffffffffffffffff1602179055505b5056fe4d65726b6c654d696e74436f6e74726f6c6c65723a3a204e6f7420612076616c69642041737365744f776e61626c653a206e6577206f776e657220697320746865207a65726f2061646472657373436f6e747261637420696e7374616e63652068617320616c7265616479206265656e20696e697469616c697a6564a265627a7a72315820e2dfc4787dc0f52dd766c9d22ce169f4bb250a0f392114f6d745a097363a4fd064736f6c634300050c0032",
  "compiler": {
    "name": "solc",
    "version": "0.5.12+commit.7709ece9.Darwin.appleclang",
    "optimizer": {},
    "evmVersion": "constantinople"
  }
}