{
  "fileName": "MerkleMintCore.sol",
  "contractName": "MerkleMintCore",
  "source": "pragma solidity ^0.5.0;\n\nimport \"@openzeppelin/upgrades/contracts/Initializable.sol\";\nimport \"@openzeppelin/contracts-ethereum-package/contracts/token/ERC721/ERC721.sol\";\nimport \"@openzeppelin/contracts-ethereum-package/contracts/token/ERC721/ERC721Enumerable.sol\";\nimport \"@openzeppelin/contracts-ethereum-package/contracts/token/ERC721/ERC721Metadata.sol\";\nimport \"@openzeppelin/contracts-ethereum-package/contracts/token/ERC721/ERC721MetadataMintable.sol\";\nimport \"@openzeppelin/contracts-ethereum-package/contracts/token/ERC721/ERC721Pausable.sol\";\n\ncontract MerkleMintCore is\n    Initializable,\n    ERC721,\n    ERC721Enumerable,\n    ERC721Metadata,\n    ERC721MetadataMintable,\n    ERC721Pausable\n{\n\n    function initialize(address[] memory minters, address[] memory pausers) public initializer {\n\n        ERC721.initialize();\n        ERC721Enumerable.initialize();\n        ERC721Metadata.initialize(\"MerkleMintToken\", \"MMT\");\n\n        // Initialize the minter and pauser roles, and renounce them\n        ERC721MetadataMintable.initialize(address(this));\n        _removeMinter(address(this));\n\n        ERC721Pausable.initialize(address(this));\n        _removePauser(address(this));\n\n        // Add the requested minters and pausers (this can be done after renouncing since\n        // these are the internal calls)\n        for (uint256 i = 0; i < minters.length; ++i) {\n            _addMinter(minters[i]);\n        }\n\n        for (uint256 i = 0; i < pausers.length; ++i) {\n            _addPauser(pausers[i]);\n        }\n    }\n\n}\n",
  "sourcePath": "contracts/MerkleMintCore.sol",
  "abi": [
    {
      "anonymous": false,
      "inputs": [
        {
          "indexed": true,
          "internalType": "address",
          "name": "owner",
          "type": "address"
        },
        {
          "indexed": true,
          "internalType": "address",
          "name": "approved",
          "type": "address"
        },
        {
          "indexed": true,
          "internalType": "uint256",
          "name": "tokenId",
          "type": "uint256"
        }
      ],
      "name": "Approval",
      "type": "event"
    },
    {
      "anonymous": false,
      "inputs": [
        {
          "indexed": true,
          "internalType": "address",
          "name": "owner",
          "type": "address"
        },
        {
          "indexed": true,
          "internalType": "address",
          "name": "operator",
          "type": "address"
        },
        {
          "indexed": false,
          "internalType": "bool",
          "name": "approved",
          "type": "bool"
        }
      ],
      "name": "ApprovalForAll",
      "type": "event"
    },
    {
      "anonymous": false,
      "inputs": [
        {
          "indexed": true,
          "internalType": "address",
          "name": "account",
          "type": "address"
        }
      ],
      "name": "MinterAdded",
      "type": "event"
    },
    {
      "anonymous": false,
      "inputs": [
        {
          "indexed": true,
          "internalType": "address",
          "name": "account",
          "type": "address"
        }
      ],
      "name": "MinterRemoved",
      "type": "event"
    },
    {
      "anonymous": false,
      "inputs": [
        {
          "indexed": false,
          "internalType": "address",
          "name": "account",
          "type": "address"
        }
      ],
      "name": "Paused",
      "type": "event"
    },
    {
      "anonymous": false,
      "inputs": [
        {
          "indexed": true,
          "internalType": "address",
          "name": "account",
          "type": "address"
        }
      ],
      "name": "PauserAdded",
      "type": "event"
    },
    {
      "anonymous": false,
      "inputs": [
        {
          "indexed": true,
          "internalType": "address",
          "name": "account",
          "type": "address"
        }
      ],
      "name": "PauserRemoved",
      "type": "event"
    },
    {
      "anonymous": false,
      "inputs": [
        {
          "indexed": true,
          "internalType": "address",
          "name": "from",
          "type": "address"
        },
        {
          "indexed": true,
          "internalType": "address",
          "name": "to",
          "type": "address"
        },
        {
          "indexed": true,
          "internalType": "uint256",
          "name": "tokenId",
          "type": "uint256"
        }
      ],
      "name": "Transfer",
      "type": "event"
    },
    {
      "anonymous": false,
      "inputs": [
        {
          "indexed": false,
          "internalType": "address",
          "name": "account",
          "type": "address"
        }
      ],
      "name": "Unpaused",
      "type": "event"
    },
    {
      "constant": false,
      "inputs": [
        {
          "internalType": "address",
          "name": "account",
          "type": "address"
        }
      ],
      "name": "addMinter",
      "outputs": [],
      "payable": false,
      "stateMutability": "nonpayable",
      "type": "function"
    },
    {
      "constant": false,
      "inputs": [
        {
          "internalType": "address",
          "name": "account",
          "type": "address"
        }
      ],
      "name": "addPauser",
      "outputs": [],
      "payable": false,
      "stateMutability": "nonpayable",
      "type": "function"
    },
    {
      "constant": false,
      "inputs": [
        {
          "internalType": "address",
          "name": "to",
          "type": "address"
        },
        {
          "internalType": "uint256",
          "name": "tokenId",
          "type": "uint256"
        }
      ],
      "name": "approve",
      "outputs": [],
      "payable": false,
      "stateMutability": "nonpayable",
      "type": "function"
    },
    {
      "constant": true,
      "inputs": [
        {
          "internalType": "address",
          "name": "owner",
          "type": "address"
        }
      ],
      "name": "balanceOf",
      "outputs": [
        {
          "internalType": "uint256",
          "name": "",
          "type": "uint256"
        }
      ],
      "payable": false,
      "stateMutability": "view",
      "type": "function"
    },
    {
      "constant": true,
      "inputs": [
        {
          "internalType": "uint256",
          "name": "tokenId",
          "type": "uint256"
        }
      ],
      "name": "getApproved",
      "outputs": [
        {
          "internalType": "address",
          "name": "",
          "type": "address"
        }
      ],
      "payable": false,
      "stateMutability": "view",
      "type": "function"
    },
    {
      "constant": false,
      "inputs": [
        {
          "internalType": "string",
          "name": "name",
          "type": "string"
        },
        {
          "internalType": "string",
          "name": "symbol",
          "type": "string"
        }
      ],
      "name": "initialize",
      "outputs": [],
      "payable": false,
      "stateMutability": "nonpayable",
      "type": "function"
    },
    {
      "constant": false,
      "inputs": [
        {
          "internalType": "address[]",
          "name": "minters",
          "type": "address[]"
        },
        {
          "internalType": "address[]",
          "name": "pausers",
          "type": "address[]"
        }
      ],
      "name": "initialize",
      "outputs": [],
      "payable": false,
      "stateMutability": "nonpayable",
      "type": "function"
    },
    {
      "constant": false,
      "inputs": [],
      "name": "initialize",
      "outputs": [],
      "payable": false,
      "stateMutability": "nonpayable",
      "type": "function"
    },
    {
      "constant": false,
      "inputs": [
        {
          "internalType": "address",
          "name": "sender",
          "type": "address"
        }
      ],
      "name": "initialize",
      "outputs": [],
      "payable": false,
      "stateMutability": "nonpayable",
      "type": "function"
    },
    {
      "constant": true,
      "inputs": [
        {
          "internalType": "address",
          "name": "owner",
          "type": "address"
        },
        {
          "internalType": "address",
          "name": "operator",
          "type": "address"
        }
      ],
      "name": "isApprovedForAll",
      "outputs": [
        {
          "internalType": "bool",
          "name": "",
          "type": "bool"
        }
      ],
      "payable": false,
      "stateMutability": "view",
      "type": "function"
    },
    {
      "constant": true,
      "inputs": [
        {
          "internalType": "address",
          "name": "account",
          "type": "address"
        }
      ],
      "name": "isMinter",
      "outputs": [
        {
          "internalType": "bool",
          "name": "",
          "type": "bool"
        }
      ],
      "payable": false,
      "stateMutability": "view",
      "type": "function"
    },
    {
      "constant": true,
      "inputs": [
        {
          "internalType": "address",
          "name": "account",
          "type": "address"
        }
      ],
      "name": "isPauser",
      "outputs": [
        {
          "internalType": "bool",
          "name": "",
          "type": "bool"
        }
      ],
      "payable": false,
      "stateMutability": "view",
      "type": "function"
    },
    {
      "constant": false,
      "inputs": [
        {
          "internalType": "address",
          "name": "to",
          "type": "address"
        },
        {
          "internalType": "uint256",
          "name": "tokenId",
          "type": "uint256"
        },
        {
          "internalType": "string",
          "name": "tokenURI",
          "type": "string"
        }
      ],
      "name": "mintWithTokenURI",
      "outputs": [
        {
          "internalType": "bool",
          "name": "",
          "type": "bool"
        }
      ],
      "payable": false,
      "stateMutability": "nonpayable",
      "type": "function"
    },
    {
      "constant": true,
      "inputs": [],
      "name": "name",
      "outputs": [
        {
          "internalType": "string",
          "name": "",
          "type": "string"
        }
      ],
      "payable": false,
      "stateMutability": "view",
      "type": "function"
    },
    {
      "constant": true,
      "inputs": [
        {
          "internalType": "uint256",
          "name": "tokenId",
          "type": "uint256"
        }
      ],
      "name": "ownerOf",
      "outputs": [
        {
          "internalType": "address",
          "name": "",
          "type": "address"
        }
      ],
      "payable": false,
      "stateMutability": "view",
      "type": "function"
    },
    {
      "constant": false,
      "inputs": [],
      "name": "pause",
      "outputs": [],
      "payable": false,
      "stateMutability": "nonpayable",
      "type": "function"
    },
    {
      "constant": true,
      "inputs": [],
      "name": "paused",
      "outputs": [
        {
          "internalType": "bool",
          "name": "",
          "type": "bool"
        }
      ],
      "payable": false,
      "stateMutability": "view",
      "type": "function"
    },
    {
      "constant": false,
      "inputs": [],
      "name": "renounceMinter",
      "outputs": [],
      "payable": false,
      "stateMutability": "nonpayable",
      "type": "function"
    },
    {
      "constant": false,
      "inputs": [],
      "name": "renouncePauser",
      "outputs": [],
      "payable": false,
      "stateMutability": "nonpayable",
      "type": "function"
    },
    {
      "constant": false,
      "inputs": [
        {
          "internalType": "address",
          "name": "from",
          "type": "address"
        },
        {
          "internalType": "address",
          "name": "to",
          "type": "address"
        },
        {
          "internalType": "uint256",
          "name": "tokenId",
          "type": "uint256"
        }
      ],
      "name": "safeTransferFrom",
      "outputs": [],
      "payable": false,
      "stateMutability": "nonpayable",
      "type": "function"
    },
    {
      "constant": false,
      "inputs": [
        {
          "internalType": "address",
          "name": "from",
          "type": "address"
        },
        {
          "internalType": "address",
          "name": "to",
          "type": "address"
        },
        {
          "internalType": "uint256",
          "name": "tokenId",
          "type": "uint256"
        },
        {
          "internalType": "bytes",
          "name": "_data",
          "type": "bytes"
        }
      ],
      "name": "safeTransferFrom",
      "outputs": [],
      "payable": false,
      "stateMutability": "nonpayable",
      "type": "function"
    },
    {
      "constant": false,
      "inputs": [
        {
          "internalType": "address",
          "name": "to",
          "type": "address"
        },
        {
          "internalType": "bool",
          "name": "approved",
          "type": "bool"
        }
      ],
      "name": "setApprovalForAll",
      "outputs": [],
      "payable": false,
      "stateMutability": "nonpayable",
      "type": "function"
    },
    {
      "constant": true,
      "inputs": [
        {
          "internalType": "bytes4",
          "name": "interfaceId",
          "type": "bytes4"
        }
      ],
      "name": "supportsInterface",
      "outputs": [
        {
          "internalType": "bool",
          "name": "",
          "type": "bool"
        }
      ],
      "payable": false,
      "stateMutability": "view",
      "type": "function"
    },
    {
      "constant": true,
      "inputs": [],
      "name": "symbol",
      "outputs": [
        {
          "internalType": "string",
          "name": "",
          "type": "string"
        }
      ],
      "payable": false,
      "stateMutability": "view",
      "type": "function"
    },
    {
      "constant": true,
      "inputs": [
        {
          "internalType": "uint256",
          "name": "index",
          "type": "uint256"
        }
      ],
      "name": "tokenByIndex",
      "outputs": [
        {
          "internalType": "uint256",
          "name": "",
          "type": "uint256"
        }
      ],
      "payable": false,
      "stateMutability": "view",
      "type": "function"
    },
    {
      "constant": true,
      "inputs": [
        {
          "internalType": "address",
          "name": "owner",
          "type": "address"
        },
        {
          "internalType": "uint256",
          "name": "index",
          "type": "uint256"
        }
      ],
      "name": "tokenOfOwnerByIndex",
      "outputs": [
        {
          "internalType": "uint256",
          "name": "",
          "type": "uint256"
        }
      ],
      "payable": false,
      "stateMutability": "view",
      "type": "function"
    },
    {
      "constant": true,
      "inputs": [
        {
          "internalType": "uint256",
          "name": "tokenId",
          "type": "uint256"
        }
      ],
      "name": "tokenURI",
      "outputs": [
        {
          "internalType": "string",
          "name": "",
          "type": "string"
        }
      ],
      "payable": false,
      "stateMutability": "view",
      "type": "function"
    },
    {
      "constant": true,
      "inputs": [],
      "name": "totalSupply",
      "outputs": [
        {
          "internalType": "uint256",
          "name": "",
          "type": "uint256"
        }
      ],
      "payable": false,
      "stateMutability": "view",
      "type": "function"
    },
    {
      "constant": false,
      "inputs": [
        {
          "internalType": "address",
          "name": "from",
          "type": "address"
        },
        {
          "internalType": "address",
          "name": "to",
          "type": "address"
        },
        {
          "internalType": "uint256",
          "name": "tokenId",
          "type": "uint256"
        }
      ],
      "name": "transferFrom",
      "outputs": [],
      "payable": false,
      "stateMutability": "nonpayable",
      "type": "function"
    },
    {
      "constant": false,
      "inputs": [],
      "name": "unpause",
      "outputs": [],
      "payable": false,
      "stateMutability": "nonpayable",
      "type": "function"
    }
  ],
  "bytecode": "0x60806040525b5b61000b565b61483a8061001a6000396000f3fe60806040523480156100115760006000fd5b50600436106101df5760003560e01c80636ef8d66d11610105578063983b2d56116100a3578063b88d4fde11610072578063b88d4fde14610c25578063c4d66de814610d32578063c87b56dd14610d77578063e985e9c514610e20576101df565b8063983b2d5614610b285780639865027514610b6d578063a22cb46514610b77578063aa271e1a14610bc8576101df565b80638129fc1c116100df5780638129fc1c14610a4b57806382dc1ec414610a555780638456cb5914610a9a57806395d89b4114610aa4576101df565b80636ef8d66d1461088d57806370a082311461089757806373cf25f8146108f0576101df565b80633f4ba83a1161017d5780634f6ccce71161014c5780634f6ccce7146106b457806350bb4e7f146106f75780635c975abb146107fc5780636352211e1461081e576101df565b80633f4ba83a1461047d57806342842e0e1461048757806346fbf68e146104f65780634cd88b7614610553576101df565b8063095ea7b3116101b9578063095ea7b31461033e57806318160ddd1461038d57806323b872dd146103ab5780632f745c591461041a576101df565b806301ffc9a7146101e557806306fdde031461024b578063081812fc146102cf576101df565b60006000fd5b610231600480360360208110156101fc5760006000fd5b8101908080357bffffffffffffffffffffffffffffffffffffffffffffffffffffffff19169060200190929190505050610e9d565b604051808215151515815260200191505060405180910390f35b610253610f0d565b6040518080602001828103825283818151815260200191508051906020019080838360005b838110156102945780820151818401525b602081019050610278565b50505050905090810190601f1680156102c15780820380516001836020036101000a031916815260200191505b509250505060405180910390f35b6102fc600480360360208110156102e65760006000fd5b8101908080359060200190929190505050610fb7565b604051808273ffffffffffffffffffffffffffffffffffffffff1673ffffffffffffffffffffffffffffffffffffffff16815260200191505060405180910390f35b61038b600480360360408110156103555760006000fd5b81019080803573ffffffffffffffffffffffffffffffffffffffff16906020019092919080359060200190929190505050611062565b005b610395611101565b6040518082815260200191505060405180910390f35b610418600480360360608110156103c25760006000fd5b81019080803573ffffffffffffffffffffffffffffffffffffffff169060200190929190803573ffffffffffffffffffffffffffffffffffffffff16906020019092919080359060200190929190505050611116565b005b610467600480360360408110156104315760006000fd5b81019080803573ffffffffffffffffffffffffffffffffffffffff169060200190929190803590602001909291905050506111b7565b6040518082815260200191505060405180910390f35b610485611290565b005b6104f46004803603606081101561049e5760006000fd5b81019080803573ffffffffffffffffffffffffffffffffffffffff169060200190929190803573ffffffffffffffffffffffffffffffffffffffff1690602001909291908035906020019092919050505061141c565b005b6105396004803603602081101561050d5760006000fd5b81019080803573ffffffffffffffffffffffffffffffffffffffff169060200190929190505050611446565b604051808215151515815260200191505060405180910390f35b6106b26004803603604081101561056a5760006000fd5b81019080803590602001906401000000008111156105885760006000fd5b82018360208201111561059b5760006000fd5b803590602001918460018302840111640100000000831117156105be5760006000fd5b91908080601f016020809104026020016040519081016040528093929190818152602001838380828437600081840152601f19601f82011690508083019250505050505050909091929090919290803590602001906401000000008111156106265760006000fd5b8201836020820111156106395760006000fd5b8035906020019184600183028401116401000000008311171561065c5760006000fd5b91908080601f016020809104026020016040519081016040528093929190818152602001838380828437600081840152601f19601f8201169050808301925050505050505090909192909091929050505061146c565b005b6106e1600480360360208110156106cb5760006000fd5b81019080803590602001909291905050506115df565b6040518082815260200191505060405180910390f35b6107e26004803603606081101561070e5760006000fd5b81019080803573ffffffffffffffffffffffffffffffffffffffff16906020019092919080359060200190929190803590602001906401000000008111156107565760006000fd5b8201836020820111156107695760006000fd5b8035906020019184600183028401116401000000008311171561078c5760006000fd5b91908080601f016020809104026020016040519081016040528093929190818152602001838380828437600081840152601f19601f82011690508083019250505050505050909091929090919290505050611676565b604051808215151515815260200191505060405180910390f35b61080461171c565b604051808215151515815260200191505060405180910390f35b61084b600480360360208110156108355760006000fd5b8101908080359060200190929190505050611739565b604051808273ffffffffffffffffffffffffffffffffffffffff1673ffffffffffffffffffffffffffffffffffffffff16815260200191505060405180910390f35b61089561180d565b005b6108da600480360360208110156108ae5760006000fd5b81019080803573ffffffffffffffffffffffffffffffffffffffff16906020019092919050505061182c565b6040518082815260200191505060405180910390f35b610a49600480360360408110156109075760006000fd5b81019080803590602001906401000000008111156109255760006000fd5b8201836020820111156109385760006000fd5b8035906020019184602083028401116401000000008311171561095b5760006000fd5b919080806020026020016040519081016040528093929190818152602001838360200280828437600081840152601f19601f82011690508083019250505050505050909091929090919290803590602001906401000000008111156109c05760006000fd5b8201836020820111156109d35760006000fd5b803590602001918460208302840111640100000000831117156109f65760006000fd5b919080806020026020016040519081016040528093929190818152602001838360200280828437600081840152601f19601f82011690508083019250505050505050909091929090919290505050611917565b005b610a53611b84565b005b610a9860048036036020811015610a6c5760006000fd5b81019080803573ffffffffffffffffffffffffffffffffffffffff169060200190929190505050611cc1565b005b610aa2611d48565b005b610aac611ed5565b6040518080602001828103825283818151815260200191508051906020019080838360005b83811015610aed5780820151818401525b602081019050610ad1565b50505050905090810190601f168015610b1a5780820380516001836020036101000a031916815260200191505b509250505060405180910390f35b610b6b60048036036020811015610b3f5760006000fd5b81019080803573ffffffffffffffffffffffffffffffffffffffff169060200190929190505050611f7f565b005b610b75612006565b005b610bc660048036036040811015610b8e5760006000fd5b81019080803573ffffffffffffffffffffffffffffffffffffffff169060200190929190803515159060200190929190505050612025565b005b610c0b60048036036020811015610bdf5760006000fd5b81019080803573ffffffffffffffffffffffffffffffffffffffff1690602001909291905050506120c4565b604051808215151515815260200191505060405180910390f35b610d3060048036036080811015610c3c5760006000fd5b81019080803573ffffffffffffffffffffffffffffffffffffffff169060200190929190803573ffffffffffffffffffffffffffffffffffffffff1690602001909291908035906020019092919080359060200190640100000000811115610ca45760006000fd5b820183602082011115610cb75760006000fd5b80359060200191846001830284011164010000000083111715610cda5760006000fd5b91908080601f016020809104026020016040519081016040528093929190818152602001838380828437600081840152601f19601f820116905080830192505050505050509090919290909192905050506120ea565b005b610d7560048036036020811015610d495760006000fd5b81019080803573ffffffffffffffffffffffffffffffffffffffff16906020019092919050505061216b565b005b610da460048036036020811015610d8e5760006000fd5b81019080803590602001909291905050506122a2565b6040518080602001828103825283818151815260200191508051906020019080838360005b83811015610de55780820151818401525b602081019050610dc9565b50505050905090810190601f168015610e125780820380516001836020036101000a031916815260200191505b509250505060405180910390f35b610e8360048036036040811015610e375760006000fd5b81019080803573ffffffffffffffffffffffffffffffffffffffff169060200190929190803573ffffffffffffffffffffffffffffffffffffffff1690602001909291905050506123c8565b604051808215151515815260200191505060405180910390f35b600060336000506000837bffffffffffffffffffffffffffffffffffffffffffffffffffffffff19167bffffffffffffffffffffffffffffffffffffffffffffffffffffffff1916815260200190815260200160002060009054906101000a900460ff169050610f08565b919050565b606060d26000508054600181600116156101000203166002900480601f016020809104026020016040519081016040528092919081815260200182805460018160011615610100020316600290048015610fa85780601f10610f7d57610100808354040283529160200191610fa8565b820191906000526020600020905b815481529060010190602001808311610f8b57829003601f168201915b50505050509050610fb4565b90565b6000610fc88261246763ffffffff16565b151561101f576040517f08c379a000000000000000000000000000000000000000000000000000000000815260040180806020018281038252602c815260200180614688602c913960400191505060405180910390fd5b6067600050600083815260200190815260200160002060009054906101000a900473ffffffffffffffffffffffffffffffffffffffff16905061105d565b919050565b61019f60009054906101000a900460ff161515156110eb576040517f08c379a00000000000000000000000000000000000000000000000000000000081526004018080602001828103825260108152602001807f5061757361626c653a207061757365640000000000000000000000000000000081526020015060200191505060405180910390fd5b6110fb82826124e363ffffffff16565b5b5b5050565b6000609e600050805490509050611113565b90565b61019f60009054906101000a900460ff1615151561119f576040517f08c379a00000000000000000000000000000000000000000000000000000000081526004018080602001828103825260108152602001807f5061757361626c653a207061757365640000000000000000000000000000000081526020015060200191505060405180910390fd5b6111b08383836126ea63ffffffff16565b5b5b505050565b60006111c88361182c63ffffffff16565b82101515611221576040517f08c379a000000000000000000000000000000000000000000000000000000000815260040180806020018281038252602b8152602001806144cf602b913960400191505060405180910390fd5b609c60005060008473ffffffffffffffffffffffffffffffffffffffff1673ffffffffffffffffffffffffffffffffffffffff1681526020019081526020016000206000508281548110151561127357fe5b906000526020600020900160005b5054905061128a565b92915050565b6112ac6112a161277563ffffffff16565b61144663ffffffff16565b1515611303576040517f08c379a000000000000000000000000000000000000000000000000000000000815260040180806020018281038252603081526020018061452c6030913960400191505060405180910390fd5b61019f60009054906101000a900460ff16151561138b576040517f08c379a00000000000000000000000000000000000000000000000000000000081526004018080602001828103825260148152602001807f5061757361626c653a206e6f742070617573656400000000000000000000000081526020015060200191505060405180910390fd5b600061019f60006101000a81548160ff0219169083151502179055507f5db9ee0a495bf2e6ff9c91a7834c1ba4fdd244a5e8aa4e537bd38aeae4b073aa6113d661277563ffffffff16565b604051808273ffffffffffffffffffffffffffffffffffffffff1673ffffffffffffffffffffffffffffffffffffffff16815260200191505060405180910390a15b5b5b565b611440838383604051806020016040528060008152602001506120ea63ffffffff16565b5b505050565b60006114608261016c60005061278290919063ffffffff16565b9050611467565b919050565b600060019054906101000a900460ff1680611491575061149061286b63ffffffff16565b5b806114a95750600060009054906101000a900460ff16155b1515611500576040517f08c379a000000000000000000000000000000000000000000000000000000000815260040180806020018281038252602e815260200180614702602e913960400191505060405180910390fd5b6000600060019054906101000a900460ff161590508015611552576001600060016101000a81548160ff0219169083151502179055506001600060006101000a81548160ff0219169083151502179055505b61156061288363ffffffff16565b151561156c5760006000fd5b8260d260005090805190602001906115859291906143f2565b508160d3600050908051906020019061159f9291906143f2565b506115b6635b5e139f60e01b6128a563ffffffff16565b5b80156115d9576000600060016101000a81548160ff0219169083151502179055505b505b5050565b60006115ef61110163ffffffff16565b82101515611648576040517f08c379a000000000000000000000000000000000000000000000000000000000815260040180806020018281038252602c8152602001806147da602c913960400191505060405180910390fd5b609e6000508281548110151561165a57fe5b906000526020600020900160005b50549050611671565b919050565b600061169461168961277563ffffffff16565b6120c463ffffffff16565b15156116eb576040517f08c379a00000000000000000000000000000000000000000000000000000000081526004018080602001828103825260308152602001806146376030913960400191505060405180910390fd5b6116fb84846129b763ffffffff16565b61170b83836129eb63ffffffff16565b60019050611714565b5b9392505050565b600061019f60009054906101000a900460ff169050611736565b90565b600060006066600050600084815260200190815260200160002060009054906101000a900473ffffffffffffffffffffffffffffffffffffffff169050600073ffffffffffffffffffffffffffffffffffffffff168173ffffffffffffffffffffffffffffffffffffffff16141515156117fe576040517f08c379a000000000000000000000000000000000000000000000000000000000815260040180806020018281038252602981526020018061460e6029913960400191505060405180910390fd5b8091505061180856505b919050565b61182961181e61277563ffffffff16565b612a8463ffffffff16565b5b565b6000600073ffffffffffffffffffffffffffffffffffffffff168273ffffffffffffffffffffffffffffffffffffffff16141515156118b6576040517f08c379a000000000000000000000000000000000000000000000000000000000815260040180806020018281038252602a8152602001806145e4602a913960400191505060405180910390fd5b61190b606860005060008473ffffffffffffffffffffffffffffffffffffffff1673ffffffffffffffffffffffffffffffffffffffff168152602001908152602001600020600050612ae3909063ffffffff16565b9050611912565b919050565b600060019054906101000a900460ff168061193c575061193b61286b63ffffffff16565b5b806119545750600060009054906101000a900460ff16155b15156119ab576040517f08c379a000000000000000000000000000000000000000000000000000000000815260040180806020018281038252602e815260200180614702602e913960400191505060405180910390fd5b6000600060019054906101000a900460ff1615905080156119fd576001600060016101000a81548160ff0219169083151502179055506001600060006101000a81548160ff0219169083151502179055505b611a0b612af963ffffffff16565b611a19611b8463ffffffff16565b611a996040518060400160405280600f81526020017f4d65726b6c654d696e74546f6b656e00000000000000000000000000000000008152602001506040518060400160405280600381526020017f4d4d54000000000000000000000000000000000000000000000000000000000081526020015061146c63ffffffff16565b611aa830612c2a63ffffffff16565b611ab730612d7b63ffffffff16565b611ac63061216b63ffffffff16565b611ad530612a8463ffffffff16565b6000600090505b8351811015611b1757611b098482815181101515611af657fe5b6020026020010151612dda63ffffffff16565b5b8060010190508050611adc565b506000600090505b8251811015611b5a57611b4c8382815181101515611b3957fe5b6020026020010151612e3963ffffffff16565b5b8060010190508050611b1f565b505b8015611b7e576000600060016101000a81548160ff0219169083151502179055505b505b5050565b600060019054906101000a900460ff1680611ba95750611ba861286b63ffffffff16565b5b80611bc15750600060009054906101000a900460ff16155b1515611c18576040517f08c379a000000000000000000000000000000000000000000000000000000000815260040180806020018281038252602e815260200180614702602e913960400191505060405180910390fd5b6000600060019054906101000a900460ff161590508015611c6a576001600060016101000a81548160ff0219169083151502179055506001600060006101000a81548160ff0219169083151502179055505b611c7861288363ffffffff16565b1515611c845760006000fd5b611c9a63780e9d6360e01b6128a563ffffffff16565b5b8015611cbd576000600060016101000a81548160ff0219169083151502179055505b505b565b611cdd611cd261277563ffffffff16565b61144663ffffffff16565b1515611d34576040517f08c379a000000000000000000000000000000000000000000000000000000000815260040180806020018281038252603081526020018061452c6030913960400191505060405180910390fd5b611d4381612e3963ffffffff16565b5b5b50565b611d64611d5961277563ffffffff16565b61144663ffffffff16565b1515611dbb576040517f08c379a000000000000000000000000000000000000000000000000000000000815260040180806020018281038252603081526020018061452c6030913960400191505060405180910390fd5b61019f60009054906101000a900460ff16151515611e44576040517f08c379a00000000000000000000000000000000000000000000000000000000081526004018080602001828103825260108152602001807f5061757361626c653a207061757365640000000000000000000000000000000081526020015060200191505060405180910390fd5b600161019f60006101000a81548160ff0219169083151502179055507f62e78cea01bee320cd4e420270b5ea74000d11b0c9f74754ebdbfc544b05a258611e8f61277563ffffffff16565b604051808273ffffffffffffffffffffffffffffffffffffffff1673ffffffffffffffffffffffffffffffffffffffff16815260200191505060405180910390a15b5b5b565b606060d36000508054600181600116156101000203166002900480601f016020809104026020016040519081016040528092919081815260200182805460018160011615610100020316600290048015611f705780601f10611f4557610100808354040283529160200191611f70565b820191906000526020600020905b815481529060010190602001808311611f5357829003601f168201915b50505050509050611f7c565b90565b611f9b611f9061277563ffffffff16565b6120c463ffffffff16565b1515611ff2576040517f08c379a00000000000000000000000000000000000000000000000000000000081526004018080602001828103825260308152602001806146376030913960400191505060405180910390fd5b61200181612dda63ffffffff16565b5b5b50565b61202261201761277563ffffffff16565b612d7b63ffffffff16565b5b565b61019f60009054906101000a900460ff161515156120ae576040517f08c379a00000000000000000000000000000000000000000000000000000000081526004018080602001828103825260108152602001807f5061757361626c653a207061757365640000000000000000000000000000000081526020015060200191505060405180910390fd5b6120be8282612e9863ffffffff16565b5b5b5050565b60006120de8261010760005061278290919063ffffffff16565b90506120e5565b919050565b6120fb84848461111663ffffffff16565b61210d8484848461306e63ffffffff16565b1515612164576040517f08c379a00000000000000000000000000000000000000000000000000000000081526004018080602001828103825260328152602001806144fa6032913960400191505060405180910390fd5b5b50505050565b600060019054906101000a900460ff1680612190575061218f61286b63ffffffff16565b5b806121a85750600060009054906101000a900460ff16155b15156121ff576040517f08c379a000000000000000000000000000000000000000000000000000000000815260040180806020018281038252602e815260200180614702602e913960400191505060405180910390fd5b6000600060019054906101000a900460ff161590508015612251576001600060016101000a81548160ff0219169083151502179055506001600060006101000a81548160ff0219169083151502179055505b61225f61288363ffffffff16565b151561226b5760006000fd5b61227a8261327763ffffffff16565b5b801561229d576000600060016101000a81548160ff0219169083151502179055505b505b50565b60606122b38261246763ffffffff16565b151561230a576040517f08c379a000000000000000000000000000000000000000000000000000000000815260040180806020018281038252602f815260200180614759602f913960400191505060405180910390fd5b60d460005060008381526020019081526020016000206000508054600181600116156101000203166002900480601f0160208091040260200160405190810160405280929190818152602001828054600181600116156101000203166002900480156123b75780601f1061238c576101008083540402835291602001916123b7565b820191906000526020600020905b81548152906001019060200180831161239a57829003601f168201915b505050505090506123c3565b919050565b6000606960005060008473ffffffffffffffffffffffffffffffffffffffff1673ffffffffffffffffffffffffffffffffffffffff16815260200190815260200160002060005060008373ffffffffffffffffffffffffffffffffffffffff1673ffffffffffffffffffffffffffffffffffffffff16815260200190815260200160002060009054906101000a900460ff169050612461565b92915050565b600060006066600050600084815260200190815260200160002060009054906101000a900473ffffffffffffffffffffffffffffffffffffffff169050600073ffffffffffffffffffffffffffffffffffffffff168173ffffffffffffffffffffffffffffffffffffffff1614159150506124de56505b919050565b60006124f48261173963ffffffff16565b90508073ffffffffffffffffffffffffffffffffffffffff168373ffffffffffffffffffffffffffffffffffffffff161415151561257d576040517f08c379a00000000000000000000000000000000000000000000000000000000081526004018080602001828103825260218152602001806147886021913960400191505060405180910390fd5b8073ffffffffffffffffffffffffffffffffffffffff166125a261277563ffffffff16565b73ffffffffffffffffffffffffffffffffffffffff1614806125dd57506125dc816125d161277563ffffffff16565b6123c863ffffffff16565b5b1515612634576040517f08c379a00000000000000000000000000000000000000000000000000000000081526004018080602001828103825260388152602001806145ac6038913960400191505060405180910390fd5b826067600050600084815260200190815260200160002060006101000a81548173ffffffffffffffffffffffffffffffffffffffff021916908373ffffffffffffffffffffffffffffffffffffffff160217905550818373ffffffffffffffffffffffffffffffffffffffff168273ffffffffffffffffffffffffffffffffffffffff167f8c5be1e5ebec7d5bd14f71427d1e84f3dd0314c0f7b2291e5b200ac8c7c3b92560405160405180910390a4505b5050565b6127076126fb61277563ffffffff16565b826133b063ffffffff16565b151561275e576040517f08c379a00000000000000000000000000000000000000000000000000000000081526004018080602001828103825260318152602001806147a96031913960400191505060405180910390fd5b61276f8383836134c463ffffffff16565b5b505050565b600033905061277f565b90565b6000600073ffffffffffffffffffffffffffffffffffffffff168273ffffffffffffffffffffffffffffffffffffffff161415151561280c576040517f08c379a00000000000000000000000000000000000000000000000000000000081526004018080602001828103825260228152602001806146e06022913960400191505060405180910390fd5b8260000160005060008373ffffffffffffffffffffffffffffffffffffffff1673ffffffffffffffffffffffffffffffffffffffff16815260200190815260200160002060009054906101000a900460ff169050612865565b92915050565b60006000303b90506000811491505061288056505b90565b600061289b6380ac58cd60e01b610e9d63ffffffff16565b90506128a2565b90565b63ffffffff60e01b817bffffffffffffffffffffffffffffffffffffffffffffffffffffffff191614151515612946576040517f08c379a000000000000000000000000000000000000000000000000000000000815260040180806020018281038252601c8152602001807f4552433136353a20696e76616c696420696e746572666163652069640000000081526020015060200191505060405180910390fd5b600160336000506000837bffffffffffffffffffffffffffffffffffffffffffffffffffffffff19167bffffffffffffffffffffffffffffffffffffffffffffffffffffffff1916815260200190815260200160002060006101000a81548160ff0219169083151502179055505b50565b6129c782826134fb63ffffffff16565b6129d7828261373563ffffffff16565b6129e68161381563ffffffff16565b5b5050565b6129fa8261246763ffffffff16565b1515612a51576040517f08c379a000000000000000000000000000000000000000000000000000000000815260040180806020018281038252602c8152602001806146b4602c913960400191505060405180910390fd5b8060d460005060008481526020019081526020016000206000509080519060200190612a7e9291906143f2565b505b5050565b612a9c8161016c60005061387490919063ffffffff16565b8073ffffffffffffffffffffffffffffffffffffffff167fcd265ebaf09df2871cc7bd4133404a235ba12eff2041bb89d9c714a2621c7c7e60405160405180910390a25b50565b600081600001600050549050612af4565b919050565b600060019054906101000a900460ff1680612b1e5750612b1d61286b63ffffffff16565b5b80612b365750600060009054906101000a900460ff16155b1515612b8d576040517f08c379a000000000000000000000000000000000000000000000000000000000815260040180806020018281038252602e815260200180614702602e913960400191505060405180910390fd5b6000600060019054906101000a900460ff161590508015612bdf576001600060016101000a81548160ff0219169083151502179055506001600060006101000a81548160ff0219169083151502179055505b612bed61393d63ffffffff16565b612c036380ac58cd60e01b6128a563ffffffff16565b5b8015612c26576000600060016101000a81548160ff0219169083151502179055505b505b565b600060019054906101000a900460ff1680612c4f5750612c4e61286b63ffffffff16565b5b80612c675750600060009054906101000a900460ff16155b1515612cbe576040517f08c379a000000000000000000000000000000000000000000000000000000000815260040180806020018281038252602e815260200180614702602e913960400191505060405180910390fd5b6000600060019054906101000a900460ff161590508015612d10576001600060016101000a81548160ff0219169083151502179055506001600060006101000a81548160ff0219169083151502179055505b612d1e61288363ffffffff16565b1515612d2a5760006000fd5b612d38613a6063ffffffff16565b1515612d445760006000fd5b612d5382613a8263ffffffff16565b5b8015612d76576000600060016101000a81548160ff0219169083151502179055505b505b50565b612d938161010760005061387490919063ffffffff16565b8073ffffffffffffffffffffffffffffffffffffffff167fe94479a9f7e1952cc78f2d6baab678adc1b772d936c6583def489e524cb6669260405160405180910390a25b50565b612df281610107600050613bb590919063ffffffff16565b8073ffffffffffffffffffffffffffffffffffffffff167f6ae172837ea30b801fbfcdd4108aa1d5bf8ff775444fd70256b44e6bf3dfc3f660405160405180910390a25b50565b612e518161016c600050613bb590919063ffffffff16565b8073ffffffffffffffffffffffffffffffffffffffff167f6719d08c1888103bea251a4ed56406bd0c3e69723c8a1686e017e7bbe159b6f860405160405180910390a25b50565b612ea661277563ffffffff16565b73ffffffffffffffffffffffffffffffffffffffff168273ffffffffffffffffffffffffffffffffffffffff1614151515612f4c576040517f08c379a00000000000000000000000000000000000000000000000000000000081526004018080602001828103825260198152602001807f4552433732313a20617070726f766520746f2063616c6c65720000000000000081526020015060200191505060405180910390fd5b8060696000506000612f6261277563ffffffff16565b73ffffffffffffffffffffffffffffffffffffffff1673ffffffffffffffffffffffffffffffffffffffff16815260200190815260200160002060005060008473ffffffffffffffffffffffffffffffffffffffff1673ffffffffffffffffffffffffffffffffffffffff16815260200190815260200160002060006101000a81548160ff0219169083151502179055508173ffffffffffffffffffffffffffffffffffffffff1661301861277563ffffffff16565b73ffffffffffffffffffffffffffffffffffffffff167f17307eab39ab6107e8899845ad3d59bd9653f200f220920489ca2b5937696c3183604051808215151515815260200191505060405180910390a35b5050565b60006130978473ffffffffffffffffffffffffffffffffffffffff16613c9f909063ffffffff16565b15156130a6576001905061326f565b60008473ffffffffffffffffffffffffffffffffffffffff1663150b7a026130d261277563ffffffff16565b8887876040518563ffffffff1660e01b8152600401808573ffffffffffffffffffffffffffffffffffffffff1673ffffffffffffffffffffffffffffffffffffffff1681526020018473ffffffffffffffffffffffffffffffffffffffff1673ffffffffffffffffffffffffffffffffffffffff16815260200183815260200180602001828103825283818151815260200191508051906020019080838360005b8381101561318f5780820151818401525b602081019050613173565b50505050905090810190601f1680156131bc5780820380516001836020036101000a031916815260200191505b5095505050505050602060405180830381600087803b1580156131df5760006000fd5b505af11580156131f4573d600060003e3d6000fd5b505050506040513d602081101561320b5760006000fd5b8101908080519060200190929190505050905063150b7a0260e01b7bffffffffffffffffffffffffffffffffffffffffffffffffffffffff1916817bffffffffffffffffffffffffffffffffffffffffffffffffffffffff19161491505061326f56505b949350505050565b600060019054906101000a900460ff168061329c575061329b61286b63ffffffff16565b5b806132b45750600060009054906101000a900460ff16155b151561330b576040517f08c379a000000000000000000000000000000000000000000000000000000000815260040180806020018281038252602e815260200180614702602e913960400191505060405180910390fd5b6000600060019054906101000a900460ff16159050801561335d576001600060016101000a81548160ff0219169083151502179055506001600060006101000a81548160ff0219169083151502179055505b61336c82613cb963ffffffff16565b600061019f60006101000a81548160ff0219169083151502179055505b80156133ab576000600060016101000a81548160ff0219169083151502179055505b505b50565b60006133c18261246763ffffffff16565b1515613418576040517f08c379a000000000000000000000000000000000000000000000000000000000815260040180806020018281038252602c815260200180614580602c913960400191505060405180910390fd5b60006134298361173963ffffffff16565b90508073ffffffffffffffffffffffffffffffffffffffff168473ffffffffffffffffffffffffffffffffffffffff16148061349e57508373ffffffffffffffffffffffffffffffffffffffff1661348684610fb763ffffffff16565b73ffffffffffffffffffffffffffffffffffffffff16145b806134b557506134b481856123c863ffffffff16565b5b9150506134be56505b92915050565b6134d5838383613dec63ffffffff16565b6134e5838261407763ffffffff16565b6134f5828261373563ffffffff16565b5b505050565b600073ffffffffffffffffffffffffffffffffffffffff168273ffffffffffffffffffffffffffffffffffffffff16141515156135a3576040517f08c379a00000000000000000000000000000000000000000000000000000000081526004018080602001828103825260208152602001807f4552433732313a206d696e7420746f20746865207a65726f206164647265737381526020015060200191505060405180910390fd5b6135b28161246763ffffffff16565b15151561362a576040517f08c379a000000000000000000000000000000000000000000000000000000000815260040180806020018281038252601c8152602001807f4552433732313a20746f6b656e20616c7265616479206d696e7465640000000081526020015060200191505060405180910390fd5b816066600050600083815260200190815260200160002060006101000a81548173ffffffffffffffffffffffffffffffffffffffff021916908373ffffffffffffffffffffffffffffffffffffffff1602179055506136d4606860005060008473ffffffffffffffffffffffffffffffffffffffff1673ffffffffffffffffffffffffffffffffffffffff168152602001908152602001600020600050614250909063ffffffff16565b808273ffffffffffffffffffffffffffffffffffffffff16600073ffffffffffffffffffffffffffffffffffffffff167fddf252ad1be2c89b69c2b068fc378daa952ba7f163c4a11628f55a4df523b3ef60405160405180910390a45b5050565b609c60005060008373ffffffffffffffffffffffffffffffffffffffff1673ffffffffffffffffffffffffffffffffffffffff16815260200190815260200160002060005080549050609d6000506000838152602001908152602001600020600050819090905550609c60005060008373ffffffffffffffffffffffffffffffffffffffff1673ffffffffffffffffffffffffffffffffffffffff1681526020019081526020016000206000508190806001815401808255809150509060018203906000526020600020900160005b9091929091909150909055505b5050565b609e60005080549050609f6000506000838152602001908152602001600020600050819090905550609e6000508190806001815401808255809150509060018203906000526020600020900160005b9091929091909150909055505b50565b613884828261278263ffffffff16565b15156138db576040517f08c379a00000000000000000000000000000000000000000000000000000000081526004018080602001828103825260218152602001806146676021913960400191505060405180910390fd5b60008260000160005060008373ffffffffffffffffffffffffffffffffffffffff1673ffffffffffffffffffffffffffffffffffffffff16815260200190815260200160002060006101000a81548160ff0219169083151502179055505b5050565b600060019054906101000a900460ff1680613962575061396161286b63ffffffff16565b5b8061397a5750600060009054906101000a900460ff16155b15156139d1576040517f08c379a000000000000000000000000000000000000000000000000000000000815260040180806020018281038252602e815260200180614702602e913960400191505060405180910390fd5b6000600060019054906101000a900460ff161590508015613a23576001600060016101000a81548160ff0219169083151502179055506001600060006101000a81548160ff0219169083151502179055505b613a396301ffc9a760e01b6128a563ffffffff16565b5b8015613a5c576000600060016101000a81548160ff0219169083151502179055505b505b565b6000613a78635b5e139f60e01b610e9d63ffffffff16565b9050613a7f565b90565b600060019054906101000a900460ff1680613aa75750613aa661286b63ffffffff16565b5b80613abf5750600060009054906101000a900460ff16155b1515613b16576040517f08c379a000000000000000000000000000000000000000000000000000000000815260040180806020018281038252602e815260200180614702602e913960400191505060405180910390fd5b6000600060019054906101000a900460ff161590508015613b68576001600060016101000a81548160ff0219169083151502179055506001600060006101000a81548160ff0219169083151502179055505b613b77826120c463ffffffff16565b1515613b8d57613b8c82612dda63ffffffff16565b5b5b8015613bb0576000600060016101000a81548160ff0219169083151502179055505b505b50565b613bc5828261278263ffffffff16565b151515613c3d576040517f08c379a000000000000000000000000000000000000000000000000000000000815260040180806020018281038252601f8152602001807f526f6c65733a206163636f756e7420616c72656164792068617320726f6c650081526020015060200191505060405180910390fd5b60018260000160005060008373ffffffffffffffffffffffffffffffffffffffff1673ffffffffffffffffffffffffffffffffffffffff16815260200190815260200160002060006101000a81548160ff0219169083151502179055505b5050565b60006000823b905060008111915050613cb456505b919050565b600060019054906101000a900460ff1680613cde5750613cdd61286b63ffffffff16565b5b80613cf65750600060009054906101000a900460ff16155b1515613d4d576040517f08c379a000000000000000000000000000000000000000000000000000000000815260040180806020018281038252602e815260200180614702602e913960400191505060405180910390fd5b6000600060019054906101000a900460ff161590508015613d9f576001600060016101000a81548160ff0219169083151502179055506001600060006101000a81548160ff0219169083151502179055505b613dae8261144663ffffffff16565b1515613dc457613dc382612e3963ffffffff16565b5b5b8015613de7576000600060016101000a81548160ff0219169083151502179055505b505b50565b8273ffffffffffffffffffffffffffffffffffffffff16613e128261173963ffffffff16565b73ffffffffffffffffffffffffffffffffffffffff16141515613e80576040517f08c379a00000000000000000000000000000000000000000000000000000000081526004018080602001828103825260298152602001806147306029913960400191505060405180910390fd5b600073ffffffffffffffffffffffffffffffffffffffff168273ffffffffffffffffffffffffffffffffffffffff1614151515613f08576040517f08c379a000000000000000000000000000000000000000000000000000000000815260040180806020018281038252602481526020018061455c6024913960400191505060405180910390fd5b613f178161426b63ffffffff16565b613f6c606860005060008573ffffffffffffffffffffffffffffffffffffffff1673ffffffffffffffffffffffffffffffffffffffff168152602001908152602001600020600050614332909063ffffffff16565b613fc1606860005060008473ffffffffffffffffffffffffffffffffffffffff1673ffffffffffffffffffffffffffffffffffffffff168152602001908152602001600020600050614250909063ffffffff16565b816066600050600083815260200190815260200160002060006101000a81548173ffffffffffffffffffffffffffffffffffffffff021916908373ffffffffffffffffffffffffffffffffffffffff160217905550808273ffffffffffffffffffffffffffffffffffffffff168473ffffffffffffffffffffffffffffffffffffffff167fddf252ad1be2c89b69c2b068fc378daa952ba7f163c4a11628f55a4df523b3ef60405160405180910390a45b505050565b60006140d56001609c60005060008673ffffffffffffffffffffffffffffffffffffffff1673ffffffffffffffffffffffffffffffffffffffff1681526020019081526020016000206000508054905061435e90919063ffffffff16565b90506000609d600050600084815260200190815260200160002060005054905081811415156141ee576000609c60005060008673ffffffffffffffffffffffffffffffffffffffff1673ffffffffffffffffffffffffffffffffffffffff1681526020019081526020016000206000508381548110151561415257fe5b906000526020600020900160005b5054905080609c60005060008773ffffffffffffffffffffffffffffffffffffffff1673ffffffffffffffffffffffffffffffffffffffff168152602001908152602001600020600050838154811015156141b757fe5b906000526020600020900160005b5081909090555081609d6000506000838152602001908152602001600020600050819090905550505b609c60005060008573ffffffffffffffffffffffffffffffffffffffff1673ffffffffffffffffffffffffffffffffffffffff16815260200190815260200160002060005080548091906001900390906142489190614477565b5050505b5050565b60018160000160008282825054019250508190909055505b50565b600073ffffffffffffffffffffffffffffffffffffffff166067600050600083815260200190815260200160002060009054906101000a900473ffffffffffffffffffffffffffffffffffffffff1673ffffffffffffffffffffffffffffffffffffffff1614151561432e5760006067600050600083815260200190815260200160002060006101000a81548173ffffffffffffffffffffffffffffffffffffffff021916908373ffffffffffffffffffffffffffffffffffffffff1602179055505b5b50565b61434d6001826000016000505461435e90919063ffffffff16565b816000016000508190909055505b50565b60008282111515156143db576040517f08c379a000000000000000000000000000000000000000000000000000000000815260040180806020018281038252601e8152602001807f536166654d6174683a207375627472616374696f6e206f766572666c6f77000081526020015060200191505060405180910390fd5b60008284039050809150506143ec56505b92915050565b828054600181600116156101000203166002900490600052602060002090601f016020900481019282601f1061443357805160ff1916838001178555614466565b82800160010185558215614466579182015b828111156144655782518260005090905591602001919060010190614445565b5b50905061447391906144a3565b5090565b81548183558181111561449e5781836000526020600020918201910161449d91906144a3565b5b505050565b6144cb91906144ad565b808211156144c757600081815060009055506001016144ad565b5090565b9056fe455243373231456e756d657261626c653a206f776e657220696e646578206f7574206f6620626f756e64734552433732313a207472616e7366657220746f206e6f6e20455243373231526563656976657220696d706c656d656e746572506175736572526f6c653a2063616c6c657220646f6573206e6f742068617665207468652050617573657220726f6c654552433732313a207472616e7366657220746f20746865207a65726f20616464726573734552433732313a206f70657261746f7220717565727920666f72206e6f6e6578697374656e7420746f6b656e4552433732313a20617070726f76652063616c6c6572206973206e6f74206f776e6572206e6f7220617070726f76656420666f7220616c6c4552433732313a2062616c616e636520717565727920666f7220746865207a65726f20616464726573734552433732313a206f776e657220717565727920666f72206e6f6e6578697374656e7420746f6b656e4d696e746572526f6c653a2063616c6c657220646f6573206e6f74206861766520746865204d696e74657220726f6c65526f6c65733a206163636f756e7420646f6573206e6f74206861766520726f6c654552433732313a20617070726f76656420717565727920666f72206e6f6e6578697374656e7420746f6b656e4552433732314d657461646174613a2055524920736574206f66206e6f6e6578697374656e7420746f6b656e526f6c65733a206163636f756e7420697320746865207a65726f2061646472657373436f6e747261637420696e7374616e63652068617320616c7265616479206265656e20696e697469616c697a65644552433732313a207472616e73666572206f6620746f6b656e2074686174206973206e6f74206f776e4552433732314d657461646174613a2055524920717565727920666f72206e6f6e6578697374656e7420746f6b656e4552433732313a20617070726f76616c20746f2063757272656e74206f776e65724552433732313a207472616e736665722063616c6c6572206973206e6f74206f776e6572206e6f7220617070726f766564455243373231456e756d657261626c653a20676c6f62616c20696e646578206f7574206f6620626f756e6473a265627a7a72315820e8638727f327e581e5a610aa68c221813c62e29193fff71d8e5b181fc666d2a264736f6c634300050c0032",
  "compiler": {
    "name": "solc",
    "version": "0.5.12+commit.7709ece9.Darwin.appleclang",
    "optimizer": {},
    "evmVersion": "constantinople"
  }
}