{
  "fileName": "MerkleMintCore.sol",
  "contractName": "MerkleMintCore",
  "source": "pragma solidity ^0.5.0;\n\nimport \"@openzeppelin/upgrades/contracts/Initializable.sol\";\nimport \"@openzeppelin/contracts-ethereum-package/contracts/token/ERC721/ERC721.sol\";\nimport \"@openzeppelin/contracts-ethereum-package/contracts/token/ERC721/ERC721Enumerable.sol\";\nimport \"@openzeppelin/contracts-ethereum-package/contracts/token/ERC721/ERC721Metadata.sol\";\nimport \"@openzeppelin/contracts-ethereum-package/contracts/token/ERC721/ERC721MetadataMintable.sol\";\nimport \"@openzeppelin/contracts-ethereum-package/contracts/token/ERC721/ERC721Pausable.sol\";\n\ncontract MerkleMintCore is\n    Initializable,\n    ERC721,\n    ERC721Enumerable,\n    ERC721Metadata,\n    ERC721MetadataMintable,\n    ERC721Pausable\n{\n    uint256 private _currentTokenId;\n    string public tokenURIBase;\n\n    function initialize(address[] memory minters, address[] memory pausers) public initializer {\n        _currentTokenId = 0;\n        ERC721.initialize();\n        ERC721Enumerable.initialize();\n        ERC721Metadata.initialize(\"MerkleMintToken\", \"MMT\");\n\n        // Initialize the minter and pauser roles, and renounce them\n        ERC721MetadataMintable.initialize(address(this));\n        _removeMinter(address(this));\n\n        ERC721Pausable.initialize(address(this));\n        _removePauser(address(this));\n\n        // Add the requested minters and pausers (this can be done after renouncing since\n        // these are the internal calls)\n        for (uint256 i = 0; i < minters.length; ++i) {\n            _addMinter(minters[i]);\n        }\n\n        for (uint256 i = 0; i < pausers.length; ++i) {\n            _addPauser(pausers[i]);\n        }\n    }\n\n}\n",
  "sourcePath": "contracts/MerkleMintCore.sol",
  "abi": [
    {
      "anonymous": false,
      "inputs": [
        {
          "indexed": true,
          "internalType": "address",
          "name": "owner",
          "type": "address"
        },
        {
          "indexed": true,
          "internalType": "address",
          "name": "approved",
          "type": "address"
        },
        {
          "indexed": true,
          "internalType": "uint256",
          "name": "tokenId",
          "type": "uint256"
        }
      ],
      "name": "Approval",
      "type": "event"
    },
    {
      "anonymous": false,
      "inputs": [
        {
          "indexed": true,
          "internalType": "address",
          "name": "owner",
          "type": "address"
        },
        {
          "indexed": true,
          "internalType": "address",
          "name": "operator",
          "type": "address"
        },
        {
          "indexed": false,
          "internalType": "bool",
          "name": "approved",
          "type": "bool"
        }
      ],
      "name": "ApprovalForAll",
      "type": "event"
    },
    {
      "anonymous": false,
      "inputs": [
        {
          "indexed": true,
          "internalType": "address",
          "name": "account",
          "type": "address"
        }
      ],
      "name": "MinterAdded",
      "type": "event"
    },
    {
      "anonymous": false,
      "inputs": [
        {
          "indexed": true,
          "internalType": "address",
          "name": "account",
          "type": "address"
        }
      ],
      "name": "MinterRemoved",
      "type": "event"
    },
    {
      "anonymous": false,
      "inputs": [
        {
          "indexed": false,
          "internalType": "address",
          "name": "account",
          "type": "address"
        }
      ],
      "name": "Paused",
      "type": "event"
    },
    {
      "anonymous": false,
      "inputs": [
        {
          "indexed": true,
          "internalType": "address",
          "name": "account",
          "type": "address"
        }
      ],
      "name": "PauserAdded",
      "type": "event"
    },
    {
      "anonymous": false,
      "inputs": [
        {
          "indexed": true,
          "internalType": "address",
          "name": "account",
          "type": "address"
        }
      ],
      "name": "PauserRemoved",
      "type": "event"
    },
    {
      "anonymous": false,
      "inputs": [
        {
          "indexed": true,
          "internalType": "address",
          "name": "from",
          "type": "address"
        },
        {
          "indexed": true,
          "internalType": "address",
          "name": "to",
          "type": "address"
        },
        {
          "indexed": true,
          "internalType": "uint256",
          "name": "tokenId",
          "type": "uint256"
        }
      ],
      "name": "Transfer",
      "type": "event"
    },
    {
      "anonymous": false,
      "inputs": [
        {
          "indexed": false,
          "internalType": "address",
          "name": "account",
          "type": "address"
        }
      ],
      "name": "Unpaused",
      "type": "event"
    },
    {
      "constant": false,
      "inputs": [
        {
          "internalType": "address",
          "name": "account",
          "type": "address"
        }
      ],
      "name": "addMinter",
      "outputs": [],
      "payable": false,
      "stateMutability": "nonpayable",
      "type": "function"
    },
    {
      "constant": false,
      "inputs": [
        {
          "internalType": "address",
          "name": "account",
          "type": "address"
        }
      ],
      "name": "addPauser",
      "outputs": [],
      "payable": false,
      "stateMutability": "nonpayable",
      "type": "function"
    },
    {
      "constant": false,
      "inputs": [
        {
          "internalType": "address",
          "name": "to",
          "type": "address"
        },
        {
          "internalType": "uint256",
          "name": "tokenId",
          "type": "uint256"
        }
      ],
      "name": "approve",
      "outputs": [],
      "payable": false,
      "stateMutability": "nonpayable",
      "type": "function"
    },
    {
      "constant": true,
      "inputs": [
        {
          "internalType": "address",
          "name": "owner",
          "type": "address"
        }
      ],
      "name": "balanceOf",
      "outputs": [
        {
          "internalType": "uint256",
          "name": "",
          "type": "uint256"
        }
      ],
      "payable": false,
      "stateMutability": "view",
      "type": "function"
    },
    {
      "constant": true,
      "inputs": [
        {
          "internalType": "uint256",
          "name": "tokenId",
          "type": "uint256"
        }
      ],
      "name": "getApproved",
      "outputs": [
        {
          "internalType": "address",
          "name": "",
          "type": "address"
        }
      ],
      "payable": false,
      "stateMutability": "view",
      "type": "function"
    },
    {
      "constant": false,
      "inputs": [
        {
          "internalType": "string",
          "name": "name",
          "type": "string"
        },
        {
          "internalType": "string",
          "name": "symbol",
          "type": "string"
        }
      ],
      "name": "initialize",
      "outputs": [],
      "payable": false,
      "stateMutability": "nonpayable",
      "type": "function"
    },
    {
      "constant": false,
      "inputs": [
        {
          "internalType": "address[]",
          "name": "minters",
          "type": "address[]"
        },
        {
          "internalType": "address[]",
          "name": "pausers",
          "type": "address[]"
        }
      ],
      "name": "initialize",
      "outputs": [],
      "payable": false,
      "stateMutability": "nonpayable",
      "type": "function"
    },
    {
      "constant": false,
      "inputs": [],
      "name": "initialize",
      "outputs": [],
      "payable": false,
      "stateMutability": "nonpayable",
      "type": "function"
    },
    {
      "constant": false,
      "inputs": [
        {
          "internalType": "address",
          "name": "sender",
          "type": "address"
        }
      ],
      "name": "initialize",
      "outputs": [],
      "payable": false,
      "stateMutability": "nonpayable",
      "type": "function"
    },
    {
      "constant": true,
      "inputs": [
        {
          "internalType": "address",
          "name": "owner",
          "type": "address"
        },
        {
          "internalType": "address",
          "name": "operator",
          "type": "address"
        }
      ],
      "name": "isApprovedForAll",
      "outputs": [
        {
          "internalType": "bool",
          "name": "",
          "type": "bool"
        }
      ],
      "payable": false,
      "stateMutability": "view",
      "type": "function"
    },
    {
      "constant": true,
      "inputs": [
        {
          "internalType": "address",
          "name": "account",
          "type": "address"
        }
      ],
      "name": "isMinter",
      "outputs": [
        {
          "internalType": "bool",
          "name": "",
          "type": "bool"
        }
      ],
      "payable": false,
      "stateMutability": "view",
      "type": "function"
    },
    {
      "constant": true,
      "inputs": [
        {
          "internalType": "address",
          "name": "account",
          "type": "address"
        }
      ],
      "name": "isPauser",
      "outputs": [
        {
          "internalType": "bool",
          "name": "",
          "type": "bool"
        }
      ],
      "payable": false,
      "stateMutability": "view",
      "type": "function"
    },
    {
      "constant": false,
      "inputs": [
        {
          "internalType": "address",
          "name": "to",
          "type": "address"
        },
        {
          "internalType": "uint256",
          "name": "tokenId",
          "type": "uint256"
        },
        {
          "internalType": "string",
          "name": "tokenURI",
          "type": "string"
        }
      ],
      "name": "mintWithTokenURI",
      "outputs": [
        {
          "internalType": "bool",
          "name": "",
          "type": "bool"
        }
      ],
      "payable": false,
      "stateMutability": "nonpayable",
      "type": "function"
    },
    {
      "constant": true,
      "inputs": [],
      "name": "name",
      "outputs": [
        {
          "internalType": "string",
          "name": "",
          "type": "string"
        }
      ],
      "payable": false,
      "stateMutability": "view",
      "type": "function"
    },
    {
      "constant": true,
      "inputs": [
        {
          "internalType": "uint256",
          "name": "tokenId",
          "type": "uint256"
        }
      ],
      "name": "ownerOf",
      "outputs": [
        {
          "internalType": "address",
          "name": "",
          "type": "address"
        }
      ],
      "payable": false,
      "stateMutability": "view",
      "type": "function"
    },
    {
      "constant": false,
      "inputs": [],
      "name": "pause",
      "outputs": [],
      "payable": false,
      "stateMutability": "nonpayable",
      "type": "function"
    },
    {
      "constant": true,
      "inputs": [],
      "name": "paused",
      "outputs": [
        {
          "internalType": "bool",
          "name": "",
          "type": "bool"
        }
      ],
      "payable": false,
      "stateMutability": "view",
      "type": "function"
    },
    {
      "constant": false,
      "inputs": [],
      "name": "renounceMinter",
      "outputs": [],
      "payable": false,
      "stateMutability": "nonpayable",
      "type": "function"
    },
    {
      "constant": false,
      "inputs": [],
      "name": "renouncePauser",
      "outputs": [],
      "payable": false,
      "stateMutability": "nonpayable",
      "type": "function"
    },
    {
      "constant": false,
      "inputs": [
        {
          "internalType": "address",
          "name": "from",
          "type": "address"
        },
        {
          "internalType": "address",
          "name": "to",
          "type": "address"
        },
        {
          "internalType": "uint256",
          "name": "tokenId",
          "type": "uint256"
        }
      ],
      "name": "safeTransferFrom",
      "outputs": [],
      "payable": false,
      "stateMutability": "nonpayable",
      "type": "function"
    },
    {
      "constant": false,
      "inputs": [
        {
          "internalType": "address",
          "name": "from",
          "type": "address"
        },
        {
          "internalType": "address",
          "name": "to",
          "type": "address"
        },
        {
          "internalType": "uint256",
          "name": "tokenId",
          "type": "uint256"
        },
        {
          "internalType": "bytes",
          "name": "_data",
          "type": "bytes"
        }
      ],
      "name": "safeTransferFrom",
      "outputs": [],
      "payable": false,
      "stateMutability": "nonpayable",
      "type": "function"
    },
    {
      "constant": false,
      "inputs": [
        {
          "internalType": "address",
          "name": "to",
          "type": "address"
        },
        {
          "internalType": "bool",
          "name": "approved",
          "type": "bool"
        }
      ],
      "name": "setApprovalForAll",
      "outputs": [],
      "payable": false,
      "stateMutability": "nonpayable",
      "type": "function"
    },
    {
      "constant": true,
      "inputs": [
        {
          "internalType": "bytes4",
          "name": "interfaceId",
          "type": "bytes4"
        }
      ],
      "name": "supportsInterface",
      "outputs": [
        {
          "internalType": "bool",
          "name": "",
          "type": "bool"
        }
      ],
      "payable": false,
      "stateMutability": "view",
      "type": "function"
    },
    {
      "constant": true,
      "inputs": [],
      "name": "symbol",
      "outputs": [
        {
          "internalType": "string",
          "name": "",
          "type": "string"
        }
      ],
      "payable": false,
      "stateMutability": "view",
      "type": "function"
    },
    {
      "constant": true,
      "inputs": [
        {
          "internalType": "uint256",
          "name": "index",
          "type": "uint256"
        }
      ],
      "name": "tokenByIndex",
      "outputs": [
        {
          "internalType": "uint256",
          "name": "",
          "type": "uint256"
        }
      ],
      "payable": false,
      "stateMutability": "view",
      "type": "function"
    },
    {
      "constant": true,
      "inputs": [
        {
          "internalType": "address",
          "name": "owner",
          "type": "address"
        },
        {
          "internalType": "uint256",
          "name": "index",
          "type": "uint256"
        }
      ],
      "name": "tokenOfOwnerByIndex",
      "outputs": [
        {
          "internalType": "uint256",
          "name": "",
          "type": "uint256"
        }
      ],
      "payable": false,
      "stateMutability": "view",
      "type": "function"
    },
    {
      "constant": true,
      "inputs": [
        {
          "internalType": "uint256",
          "name": "tokenId",
          "type": "uint256"
        }
      ],
      "name": "tokenURI",
      "outputs": [
        {
          "internalType": "string",
          "name": "",
          "type": "string"
        }
      ],
      "payable": false,
      "stateMutability": "view",
      "type": "function"
    },
    {
      "constant": true,
      "inputs": [],
      "name": "tokenURIBase",
      "outputs": [
        {
          "internalType": "string",
          "name": "",
          "type": "string"
        }
      ],
      "payable": false,
      "stateMutability": "view",
      "type": "function"
    },
    {
      "constant": true,
      "inputs": [],
      "name": "totalSupply",
      "outputs": [
        {
          "internalType": "uint256",
          "name": "",
          "type": "uint256"
        }
      ],
      "payable": false,
      "stateMutability": "view",
      "type": "function"
    },
    {
      "constant": false,
      "inputs": [
        {
          "internalType": "address",
          "name": "from",
          "type": "address"
        },
        {
          "internalType": "address",
          "name": "to",
          "type": "address"
        },
        {
          "internalType": "uint256",
          "name": "tokenId",
          "type": "uint256"
        }
      ],
      "name": "transferFrom",
      "outputs": [],
      "payable": false,
      "stateMutability": "nonpayable",
      "type": "function"
    },
    {
      "constant": false,
      "inputs": [],
      "name": "unpause",
      "outputs": [],
      "payable": false,
      "stateMutability": "nonpayable",
      "type": "function"
    }
  ],
  "bytecode": "0x60806040525b5b61000b565b6149798061001a6000396000f3fe60806040523480156100115760006000fd5b50600436106101ea5760003560e01c80636352211e11610110578063983b2d56116100a3578063b88d4fde11610072578063b88d4fde14610cb4578063c4d66de814610dc1578063c87b56dd14610e06578063e985e9c514610eaf576101ea565b8063983b2d5614610bb75780639865027514610bfc578063a22cb46514610c06578063aa271e1a14610c57576101ea565b80638129fc1c116100df5780638129fc1c14610ada57806382dc1ec414610ae45780638456cb5914610b2957806395d89b4114610b33576101ea565b80636352211e146108ad5780636ef8d66d1461091c57806370a082311461092657806373cf25f81461097f576101ea565b80632f745c59116101885780634cd88b76116101575780634cd88b76146105e25780634f6ccce71461074357806350bb4e7f146107865780635c975abb1461088b576101ea565b80632f745c59146104a95780633f4ba83a1461050c57806342842e0e1461051657806346fbf68e14610585576101ea565b8063095ea7b3116101c4578063095ea7b31461034957806318160ddd1461039857806323b872dd146103b6578063261220a314610425576101ea565b806301ffc9a7146101f057806306fdde0314610256578063081812fc146102da576101ea565b60006000fd5b61023c600480360360208110156102075760006000fd5b8101908080357bffffffffffffffffffffffffffffffffffffffffffffffffffffffff19169060200190929190505050610f2c565b604051808215151515815260200191505060405180910390f35b61025e610f9c565b6040518080602001828103825283818151815260200191508051906020019080838360005b8381101561029f5780820151818401525b602081019050610283565b50505050905090810190601f1680156102cc5780820380516001836020036101000a031916815260200191505b509250505060405180910390f35b610307600480360360208110156102f15760006000fd5b8101908080359060200190929190505050611046565b604051808273ffffffffffffffffffffffffffffffffffffffff1673ffffffffffffffffffffffffffffffffffffffff16815260200191505060405180910390f35b610396600480360360408110156103605760006000fd5b81019080803573ffffffffffffffffffffffffffffffffffffffff169060200190929190803590602001909291905050506110f1565b005b6103a0611190565b6040518082815260200191505060405180910390f35b610423600480360360608110156103cd5760006000fd5b81019080803573ffffffffffffffffffffffffffffffffffffffff169060200190929190803573ffffffffffffffffffffffffffffffffffffffff169060200190929190803590602001909291905050506111a5565b005b61042d611246565b6040518080602001828103825283818151815260200191508051906020019080838360005b8381101561046e5780820151818401525b602081019050610452565b50505050905090810190601f16801561049b5780820380516001836020036101000a031916815260200191505b509250505060405180910390f35b6104f6600480360360408110156104c05760006000fd5b81019080803573ffffffffffffffffffffffffffffffffffffffff169060200190929190803590602001909291905050506112e8565b6040518082815260200191505060405180910390f35b6105146113c1565b005b6105836004803603606081101561052d5760006000fd5b81019080803573ffffffffffffffffffffffffffffffffffffffff169060200190929190803573ffffffffffffffffffffffffffffffffffffffff1690602001909291908035906020019092919050505061154d565b005b6105c86004803603602081101561059c5760006000fd5b81019080803573ffffffffffffffffffffffffffffffffffffffff169060200190929190505050611577565b604051808215151515815260200191505060405180910390f35b610741600480360360408110156105f95760006000fd5b81019080803590602001906401000000008111156106175760006000fd5b82018360208201111561062a5760006000fd5b8035906020019184600183028401116401000000008311171561064d5760006000fd5b91908080601f016020809104026020016040519081016040528093929190818152602001838380828437600081840152601f19601f82011690508083019250505050505050909091929090919290803590602001906401000000008111156106b55760006000fd5b8201836020820111156106c85760006000fd5b803590602001918460018302840111640100000000831117156106eb5760006000fd5b91908080601f016020809104026020016040519081016040528093929190818152602001838380828437600081840152601f19601f8201169050808301925050505050505090909192909091929050505061159d565b005b6107706004803603602081101561075a5760006000fd5b8101908080359060200190929190505050611710565b6040518082815260200191505060405180910390f35b6108716004803603606081101561079d5760006000fd5b81019080803573ffffffffffffffffffffffffffffffffffffffff16906020019092919080359060200190929190803590602001906401000000008111156107e55760006000fd5b8201836020820111156107f85760006000fd5b8035906020019184600183028401116401000000008311171561081b5760006000fd5b91908080601f016020809104026020016040519081016040528093929190818152602001838380828437600081840152601f19601f820116905080830192505050505050509090919290909192905050506117a7565b604051808215151515815260200191505060405180910390f35b61089361184d565b604051808215151515815260200191505060405180910390f35b6108da600480360360208110156108c45760006000fd5b810190808035906020019092919050505061186a565b604051808273ffffffffffffffffffffffffffffffffffffffff1673ffffffffffffffffffffffffffffffffffffffff16815260200191505060405180910390f35b61092461193e565b005b6109696004803603602081101561093d5760006000fd5b81019080803573ffffffffffffffffffffffffffffffffffffffff16906020019092919050505061195d565b6040518082815260200191505060405180910390f35b610ad8600480360360408110156109965760006000fd5b81019080803590602001906401000000008111156109b45760006000fd5b8201836020820111156109c75760006000fd5b803590602001918460208302840111640100000000831117156109ea5760006000fd5b919080806020026020016040519081016040528093929190818152602001838360200280828437600081840152601f19601f8201169050808301925050505050505090909192909091929080359060200190640100000000811115610a4f5760006000fd5b820183602082011115610a625760006000fd5b80359060200191846020830284011164010000000083111715610a855760006000fd5b919080806020026020016040519081016040528093929190818152602001838360200280828437600081840152601f19601f82011690508083019250505050505050909091929090919290505050611a48565b005b610ae2611cc3565b005b610b2760048036036020811015610afb5760006000fd5b81019080803573ffffffffffffffffffffffffffffffffffffffff169060200190929190505050611e00565b005b610b31611e87565b005b610b3b612014565b6040518080602001828103825283818151815260200191508051906020019080838360005b83811015610b7c5780820151818401525b602081019050610b60565b50505050905090810190601f168015610ba95780820380516001836020036101000a031916815260200191505b509250505060405180910390f35b610bfa60048036036020811015610bce5760006000fd5b81019080803573ffffffffffffffffffffffffffffffffffffffff1690602001909291905050506120be565b005b610c04612145565b005b610c5560048036036040811015610c1d5760006000fd5b81019080803573ffffffffffffffffffffffffffffffffffffffff169060200190929190803515159060200190929190505050612164565b005b610c9a60048036036020811015610c6e5760006000fd5b81019080803573ffffffffffffffffffffffffffffffffffffffff169060200190929190505050612203565b604051808215151515815260200191505060405180910390f35b610dbf60048036036080811015610ccb5760006000fd5b81019080803573ffffffffffffffffffffffffffffffffffffffff169060200190929190803573ffffffffffffffffffffffffffffffffffffffff1690602001909291908035906020019092919080359060200190640100000000811115610d335760006000fd5b820183602082011115610d465760006000fd5b80359060200191846001830284011164010000000083111715610d695760006000fd5b91908080601f016020809104026020016040519081016040528093929190818152602001838380828437600081840152601f19601f82011690508083019250505050505050909091929090919290505050612229565b005b610e0460048036036020811015610dd85760006000fd5b81019080803573ffffffffffffffffffffffffffffffffffffffff1690602001909291905050506122aa565b005b610e3360048036036020811015610e1d5760006000fd5b81019080803590602001909291905050506123e1565b6040518080602001828103825283818151815260200191508051906020019080838360005b83811015610e745780820151818401525b602081019050610e58565b50505050905090810190601f168015610ea15780820380516001836020036101000a031916815260200191505b509250505060405180910390f35b610f1260048036036040811015610ec65760006000fd5b81019080803573ffffffffffffffffffffffffffffffffffffffff169060200190929190803573ffffffffffffffffffffffffffffffffffffffff169060200190929190505050612507565b604051808215151515815260200191505060405180910390f35b600060336000506000837bffffffffffffffffffffffffffffffffffffffffffffffffffffffff19167bffffffffffffffffffffffffffffffffffffffffffffffffffffffff1916815260200190815260200160002060009054906101000a900460ff169050610f97565b919050565b606060d26000508054600181600116156101000203166002900480601f0160208091040260200160405190810160405280929190818152602001828054600181600116156101000203166002900480156110375780601f1061100c57610100808354040283529160200191611037565b820191906000526020600020905b81548152906001019060200180831161101a57829003601f168201915b50505050509050611043565b90565b6000611057826125a663ffffffff16565b15156110ae576040517f08c379a000000000000000000000000000000000000000000000000000000000815260040180806020018281038252602c8152602001806147c7602c913960400191505060405180910390fd5b6067600050600083815260200190815260200160002060009054906101000a900473ffffffffffffffffffffffffffffffffffffffff1690506110ec565b919050565b61019f60009054906101000a900460ff1615151561117a576040517f08c379a00000000000000000000000000000000000000000000000000000000081526004018080602001828103825260108152602001807f5061757361626c653a207061757365640000000000000000000000000000000081526020015060200191505060405180910390fd5b61118a828261262263ffffffff16565b5b5b5050565b6000609e6000508054905090506111a2565b90565b61019f60009054906101000a900460ff1615151561122e576040517f08c379a00000000000000000000000000000000000000000000000000000000081526004018080602001828103825260108152602001807f5061757361626c653a207061757365640000000000000000000000000000000081526020015060200191505060405180910390fd5b61123f83838361282963ffffffff16565b5b5b505050565b6102056000508054600181600116156101000203166002900480601f0160208091040260200160405190810160405280929190818152602001828054600181600116156101000203166002900480156112e05780601f106112b5576101008083540402835291602001916112e0565b820191906000526020600020905b8154815290600101906020018083116112c357829003601f168201915b505050505081565b60006112f98361195d63ffffffff16565b82101515611352576040517f08c379a000000000000000000000000000000000000000000000000000000000815260040180806020018281038252602b81526020018061460e602b913960400191505060405180910390fd5b609c60005060008473ffffffffffffffffffffffffffffffffffffffff1673ffffffffffffffffffffffffffffffffffffffff168152602001908152602001600020600050828154811015156113a457fe5b906000526020600020900160005b505490506113bb565b92915050565b6113dd6113d26128b463ffffffff16565b61157763ffffffff16565b1515611434576040517f08c379a000000000000000000000000000000000000000000000000000000000815260040180806020018281038252603081526020018061466b6030913960400191505060405180910390fd5b61019f60009054906101000a900460ff1615156114bc576040517f08c379a00000000000000000000000000000000000000000000000000000000081526004018080602001828103825260148152602001807f5061757361626c653a206e6f742070617573656400000000000000000000000081526020015060200191505060405180910390fd5b600061019f60006101000a81548160ff0219169083151502179055507f5db9ee0a495bf2e6ff9c91a7834c1ba4fdd244a5e8aa4e537bd38aeae4b073aa6115076128b463ffffffff16565b604051808273ffffffffffffffffffffffffffffffffffffffff1673ffffffffffffffffffffffffffffffffffffffff16815260200191505060405180910390a15b5b5b565b6115718383836040518060200160405280600081526020015061222963ffffffff16565b5b505050565b60006115918261016c6000506128c190919063ffffffff16565b9050611598565b919050565b600060019054906101000a900460ff16806115c257506115c16129aa63ffffffff16565b5b806115da5750600060009054906101000a900460ff16155b1515611631576040517f08c379a000000000000000000000000000000000000000000000000000000000815260040180806020018281038252602e815260200180614841602e913960400191505060405180910390fd5b6000600060019054906101000a900460ff161590508015611683576001600060016101000a81548160ff0219169083151502179055506001600060006101000a81548160ff0219169083151502179055505b6116916129c263ffffffff16565b151561169d5760006000fd5b8260d260005090805190602001906116b6929190614531565b508160d360005090805190602001906116d0929190614531565b506116e7635b5e139f60e01b6129e463ffffffff16565b5b801561170a576000600060016101000a81548160ff0219169083151502179055505b505b5050565b600061172061119063ffffffff16565b82101515611779576040517f08c379a000000000000000000000000000000000000000000000000000000000815260040180806020018281038252602c815260200180614919602c913960400191505060405180910390fd5b609e6000508281548110151561178b57fe5b906000526020600020900160005b505490506117a2565b919050565b60006117c56117ba6128b463ffffffff16565b61220363ffffffff16565b151561181c576040517f08c379a00000000000000000000000000000000000000000000000000000000081526004018080602001828103825260308152602001806147766030913960400191505060405180910390fd5b61182c8484612af663ffffffff16565b61183c8383612b2a63ffffffff16565b60019050611845565b5b9392505050565b600061019f60009054906101000a900460ff169050611867565b90565b600060006066600050600084815260200190815260200160002060009054906101000a900473ffffffffffffffffffffffffffffffffffffffff169050600073ffffffffffffffffffffffffffffffffffffffff168173ffffffffffffffffffffffffffffffffffffffff161415151561192f576040517f08c379a000000000000000000000000000000000000000000000000000000000815260040180806020018281038252602981526020018061474d6029913960400191505060405180910390fd5b8091505061193956505b919050565b61195a61194f6128b463ffffffff16565b612bc363ffffffff16565b5b565b6000600073ffffffffffffffffffffffffffffffffffffffff168273ffffffffffffffffffffffffffffffffffffffff16141515156119e7576040517f08c379a000000000000000000000000000000000000000000000000000000000815260040180806020018281038252602a815260200180614723602a913960400191505060405180910390fd5b611a3c606860005060008473ffffffffffffffffffffffffffffffffffffffff1673ffffffffffffffffffffffffffffffffffffffff168152602001908152602001600020600050612c22909063ffffffff16565b9050611a43565b919050565b600060019054906101000a900460ff1680611a6d5750611a6c6129aa63ffffffff16565b5b80611a855750600060009054906101000a900460ff16155b1515611adc576040517f08c379a000000000000000000000000000000000000000000000000000000000815260040180806020018281038252602e815260200180614841602e913960400191505060405180910390fd5b6000600060019054906101000a900460ff161590508015611b2e576001600060016101000a81548160ff0219169083151502179055506001600060006101000a81548160ff0219169083151502179055505b6000610204600050819090905550611b4a612c3863ffffffff16565b611b58611cc363ffffffff16565b611bd86040518060400160405280600f81526020017f4d65726b6c654d696e74546f6b656e00000000000000000000000000000000008152602001506040518060400160405280600381526020017f4d4d54000000000000000000000000000000000000000000000000000000000081526020015061159d63ffffffff16565b611be730612d6963ffffffff16565b611bf630612eba63ffffffff16565b611c05306122aa63ffffffff16565b611c1430612bc363ffffffff16565b6000600090505b8351811015611c5657611c488482815181101515611c3557fe5b6020026020010151612f1963ffffffff16565b5b8060010190508050611c1b565b506000600090505b8251811015611c9957611c8b8382815181101515611c7857fe5b6020026020010151612f7863ffffffff16565b5b8060010190508050611c5e565b505b8015611cbd576000600060016101000a81548160ff0219169083151502179055505b505b5050565b600060019054906101000a900460ff1680611ce85750611ce76129aa63ffffffff16565b5b80611d005750600060009054906101000a900460ff16155b1515611d57576040517f08c379a000000000000000000000000000000000000000000000000000000000815260040180806020018281038252602e815260200180614841602e913960400191505060405180910390fd5b6000600060019054906101000a900460ff161590508015611da9576001600060016101000a81548160ff0219169083151502179055506001600060006101000a81548160ff0219169083151502179055505b611db76129c263ffffffff16565b1515611dc35760006000fd5b611dd963780e9d6360e01b6129e463ffffffff16565b5b8015611dfc576000600060016101000a81548160ff0219169083151502179055505b505b565b611e1c611e116128b463ffffffff16565b61157763ffffffff16565b1515611e73576040517f08c379a000000000000000000000000000000000000000000000000000000000815260040180806020018281038252603081526020018061466b6030913960400191505060405180910390fd5b611e8281612f7863ffffffff16565b5b5b50565b611ea3611e986128b463ffffffff16565b61157763ffffffff16565b1515611efa576040517f08c379a000000000000000000000000000000000000000000000000000000000815260040180806020018281038252603081526020018061466b6030913960400191505060405180910390fd5b61019f60009054906101000a900460ff16151515611f83576040517f08c379a00000000000000000000000000000000000000000000000000000000081526004018080602001828103825260108152602001807f5061757361626c653a207061757365640000000000000000000000000000000081526020015060200191505060405180910390fd5b600161019f60006101000a81548160ff0219169083151502179055507f62e78cea01bee320cd4e420270b5ea74000d11b0c9f74754ebdbfc544b05a258611fce6128b463ffffffff16565b604051808273ffffffffffffffffffffffffffffffffffffffff1673ffffffffffffffffffffffffffffffffffffffff16815260200191505060405180910390a15b5b5b565b606060d36000508054600181600116156101000203166002900480601f0160208091040260200160405190810160405280929190818152602001828054600181600116156101000203166002900480156120af5780601f10612084576101008083540402835291602001916120af565b820191906000526020600020905b81548152906001019060200180831161209257829003601f168201915b505050505090506120bb565b90565b6120da6120cf6128b463ffffffff16565b61220363ffffffff16565b1515612131576040517f08c379a00000000000000000000000000000000000000000000000000000000081526004018080602001828103825260308152602001806147766030913960400191505060405180910390fd5b61214081612f1963ffffffff16565b5b5b50565b6121616121566128b463ffffffff16565b612eba63ffffffff16565b5b565b61019f60009054906101000a900460ff161515156121ed576040517f08c379a00000000000000000000000000000000000000000000000000000000081526004018080602001828103825260108152602001807f5061757361626c653a207061757365640000000000000000000000000000000081526020015060200191505060405180910390fd5b6121fd8282612fd763ffffffff16565b5b5b5050565b600061221d826101076000506128c190919063ffffffff16565b9050612224565b919050565b61223a8484846111a563ffffffff16565b61224c848484846131ad63ffffffff16565b15156122a3576040517f08c379a00000000000000000000000000000000000000000000000000000000081526004018080602001828103825260328152602001806146396032913960400191505060405180910390fd5b5b50505050565b600060019054906101000a900460ff16806122cf57506122ce6129aa63ffffffff16565b5b806122e75750600060009054906101000a900460ff16155b151561233e576040517f08c379a000000000000000000000000000000000000000000000000000000000815260040180806020018281038252602e815260200180614841602e913960400191505060405180910390fd5b6000600060019054906101000a900460ff161590508015612390576001600060016101000a81548160ff0219169083151502179055506001600060006101000a81548160ff0219169083151502179055505b61239e6129c263ffffffff16565b15156123aa5760006000fd5b6123b9826133b663ffffffff16565b5b80156123dc576000600060016101000a81548160ff0219169083151502179055505b505b50565b60606123f2826125a663ffffffff16565b1515612449576040517f08c379a000000000000000000000000000000000000000000000000000000000815260040180806020018281038252602f815260200180614898602f913960400191505060405180910390fd5b60d460005060008381526020019081526020016000206000508054600181600116156101000203166002900480601f0160208091040260200160405190810160405280929190818152602001828054600181600116156101000203166002900480156124f65780601f106124cb576101008083540402835291602001916124f6565b820191906000526020600020905b8154815290600101906020018083116124d957829003601f168201915b50505050509050612502565b919050565b6000606960005060008473ffffffffffffffffffffffffffffffffffffffff1673ffffffffffffffffffffffffffffffffffffffff16815260200190815260200160002060005060008373ffffffffffffffffffffffffffffffffffffffff1673ffffffffffffffffffffffffffffffffffffffff16815260200190815260200160002060009054906101000a900460ff1690506125a0565b92915050565b600060006066600050600084815260200190815260200160002060009054906101000a900473ffffffffffffffffffffffffffffffffffffffff169050600073ffffffffffffffffffffffffffffffffffffffff168173ffffffffffffffffffffffffffffffffffffffff16141591505061261d56505b919050565b60006126338261186a63ffffffff16565b90508073ffffffffffffffffffffffffffffffffffffffff168373ffffffffffffffffffffffffffffffffffffffff16141515156126bc576040517f08c379a00000000000000000000000000000000000000000000000000000000081526004018080602001828103825260218152602001806148c76021913960400191505060405180910390fd5b8073ffffffffffffffffffffffffffffffffffffffff166126e16128b463ffffffff16565b73ffffffffffffffffffffffffffffffffffffffff16148061271c575061271b816127106128b463ffffffff16565b61250763ffffffff16565b5b1515612773576040517f08c379a00000000000000000000000000000000000000000000000000000000081526004018080602001828103825260388152602001806146eb6038913960400191505060405180910390fd5b826067600050600084815260200190815260200160002060006101000a81548173ffffffffffffffffffffffffffffffffffffffff021916908373ffffffffffffffffffffffffffffffffffffffff160217905550818373ffffffffffffffffffffffffffffffffffffffff168273ffffffffffffffffffffffffffffffffffffffff167f8c5be1e5ebec7d5bd14f71427d1e84f3dd0314c0f7b2291e5b200ac8c7c3b92560405160405180910390a4505b5050565b61284661283a6128b463ffffffff16565b826134ef63ffffffff16565b151561289d576040517f08c379a00000000000000000000000000000000000000000000000000000000081526004018080602001828103825260318152602001806148e86031913960400191505060405180910390fd5b6128ae83838361360363ffffffff16565b5b505050565b60003390506128be565b90565b6000600073ffffffffffffffffffffffffffffffffffffffff168273ffffffffffffffffffffffffffffffffffffffff161415151561294b576040517f08c379a000000000000000000000000000000000000000000000000000000000815260040180806020018281038252602281526020018061481f6022913960400191505060405180910390fd5b8260000160005060008373ffffffffffffffffffffffffffffffffffffffff1673ffffffffffffffffffffffffffffffffffffffff16815260200190815260200160002060009054906101000a900460ff1690506129a4565b92915050565b60006000303b9050600081149150506129bf56505b90565b60006129da6380ac58cd60e01b610f2c63ffffffff16565b90506129e1565b90565b63ffffffff60e01b817bffffffffffffffffffffffffffffffffffffffffffffffffffffffff191614151515612a85576040517f08c379a000000000000000000000000000000000000000000000000000000000815260040180806020018281038252601c8152602001807f4552433136353a20696e76616c696420696e746572666163652069640000000081526020015060200191505060405180910390fd5b600160336000506000837bffffffffffffffffffffffffffffffffffffffffffffffffffffffff19167bffffffffffffffffffffffffffffffffffffffffffffffffffffffff1916815260200190815260200160002060006101000a81548160ff0219169083151502179055505b50565b612b06828261363a63ffffffff16565b612b16828261387463ffffffff16565b612b258161395463ffffffff16565b5b5050565b612b39826125a663ffffffff16565b1515612b90576040517f08c379a000000000000000000000000000000000000000000000000000000000815260040180806020018281038252602c8152602001806147f3602c913960400191505060405180910390fd5b8060d460005060008481526020019081526020016000206000509080519060200190612bbd929190614531565b505b5050565b612bdb8161016c6000506139b390919063ffffffff16565b8073ffffffffffffffffffffffffffffffffffffffff167fcd265ebaf09df2871cc7bd4133404a235ba12eff2041bb89d9c714a2621c7c7e60405160405180910390a25b50565b600081600001600050549050612c33565b919050565b600060019054906101000a900460ff1680612c5d5750612c5c6129aa63ffffffff16565b5b80612c755750600060009054906101000a900460ff16155b1515612ccc576040517f08c379a000000000000000000000000000000000000000000000000000000000815260040180806020018281038252602e815260200180614841602e913960400191505060405180910390fd5b6000600060019054906101000a900460ff161590508015612d1e576001600060016101000a81548160ff0219169083151502179055506001600060006101000a81548160ff0219169083151502179055505b612d2c613a7c63ffffffff16565b612d426380ac58cd60e01b6129e463ffffffff16565b5b8015612d65576000600060016101000a81548160ff0219169083151502179055505b505b565b600060019054906101000a900460ff1680612d8e5750612d8d6129aa63ffffffff16565b5b80612da65750600060009054906101000a900460ff16155b1515612dfd576040517f08c379a000000000000000000000000000000000000000000000000000000000815260040180806020018281038252602e815260200180614841602e913960400191505060405180910390fd5b6000600060019054906101000a900460ff161590508015612e4f576001600060016101000a81548160ff0219169083151502179055506001600060006101000a81548160ff0219169083151502179055505b612e5d6129c263ffffffff16565b1515612e695760006000fd5b612e77613b9f63ffffffff16565b1515612e835760006000fd5b612e9282613bc163ffffffff16565b5b8015612eb5576000600060016101000a81548160ff0219169083151502179055505b505b50565b612ed2816101076000506139b390919063ffffffff16565b8073ffffffffffffffffffffffffffffffffffffffff167fe94479a9f7e1952cc78f2d6baab678adc1b772d936c6583def489e524cb6669260405160405180910390a25b50565b612f3181610107600050613cf490919063ffffffff16565b8073ffffffffffffffffffffffffffffffffffffffff167f6ae172837ea30b801fbfcdd4108aa1d5bf8ff775444fd70256b44e6bf3dfc3f660405160405180910390a25b50565b612f908161016c600050613cf490919063ffffffff16565b8073ffffffffffffffffffffffffffffffffffffffff167f6719d08c1888103bea251a4ed56406bd0c3e69723c8a1686e017e7bbe159b6f860405160405180910390a25b50565b612fe56128b463ffffffff16565b73ffffffffffffffffffffffffffffffffffffffff168273ffffffffffffffffffffffffffffffffffffffff161415151561308b576040517f08c379a00000000000000000000000000000000000000000000000000000000081526004018080602001828103825260198152602001807f4552433732313a20617070726f766520746f2063616c6c65720000000000000081526020015060200191505060405180910390fd5b80606960005060006130a16128b463ffffffff16565b73ffffffffffffffffffffffffffffffffffffffff1673ffffffffffffffffffffffffffffffffffffffff16815260200190815260200160002060005060008473ffffffffffffffffffffffffffffffffffffffff1673ffffffffffffffffffffffffffffffffffffffff16815260200190815260200160002060006101000a81548160ff0219169083151502179055508173ffffffffffffffffffffffffffffffffffffffff166131576128b463ffffffff16565b73ffffffffffffffffffffffffffffffffffffffff167f17307eab39ab6107e8899845ad3d59bd9653f200f220920489ca2b5937696c3183604051808215151515815260200191505060405180910390a35b5050565b60006131d68473ffffffffffffffffffffffffffffffffffffffff16613dde909063ffffffff16565b15156131e557600190506133ae565b60008473ffffffffffffffffffffffffffffffffffffffff1663150b7a026132116128b463ffffffff16565b8887876040518563ffffffff1660e01b8152600401808573ffffffffffffffffffffffffffffffffffffffff1673ffffffffffffffffffffffffffffffffffffffff1681526020018473ffffffffffffffffffffffffffffffffffffffff1673ffffffffffffffffffffffffffffffffffffffff16815260200183815260200180602001828103825283818151815260200191508051906020019080838360005b838110156132ce5780820151818401525b6020810190506132b2565b50505050905090810190601f1680156132fb5780820380516001836020036101000a031916815260200191505b5095505050505050602060405180830381600087803b15801561331e5760006000fd5b505af1158015613333573d600060003e3d6000fd5b505050506040513d602081101561334a5760006000fd5b8101908080519060200190929190505050905063150b7a0260e01b7bffffffffffffffffffffffffffffffffffffffffffffffffffffffff1916817bffffffffffffffffffffffffffffffffffffffffffffffffffffffff1916149150506133ae56505b949350505050565b600060019054906101000a900460ff16806133db57506133da6129aa63ffffffff16565b5b806133f35750600060009054906101000a900460ff16155b151561344a576040517f08c379a000000000000000000000000000000000000000000000000000000000815260040180806020018281038252602e815260200180614841602e913960400191505060405180910390fd5b6000600060019054906101000a900460ff16159050801561349c576001600060016101000a81548160ff0219169083151502179055506001600060006101000a81548160ff0219169083151502179055505b6134ab82613df863ffffffff16565b600061019f60006101000a81548160ff0219169083151502179055505b80156134ea576000600060016101000a81548160ff0219169083151502179055505b505b50565b6000613500826125a663ffffffff16565b1515613557576040517f08c379a000000000000000000000000000000000000000000000000000000000815260040180806020018281038252602c8152602001806146bf602c913960400191505060405180910390fd5b60006135688361186a63ffffffff16565b90508073ffffffffffffffffffffffffffffffffffffffff168473ffffffffffffffffffffffffffffffffffffffff1614806135dd57508373ffffffffffffffffffffffffffffffffffffffff166135c58461104663ffffffff16565b73ffffffffffffffffffffffffffffffffffffffff16145b806135f457506135f3818561250763ffffffff16565b5b9150506135fd56505b92915050565b613614838383613f2b63ffffffff16565b61362483826141b663ffffffff16565b613634828261387463ffffffff16565b5b505050565b600073ffffffffffffffffffffffffffffffffffffffff168273ffffffffffffffffffffffffffffffffffffffff16141515156136e2576040517f08c379a00000000000000000000000000000000000000000000000000000000081526004018080602001828103825260208152602001807f4552433732313a206d696e7420746f20746865207a65726f206164647265737381526020015060200191505060405180910390fd5b6136f1816125a663ffffffff16565b151515613769576040517f08c379a000000000000000000000000000000000000000000000000000000000815260040180806020018281038252601c8152602001807f4552433732313a20746f6b656e20616c7265616479206d696e7465640000000081526020015060200191505060405180910390fd5b816066600050600083815260200190815260200160002060006101000a81548173ffffffffffffffffffffffffffffffffffffffff021916908373ffffffffffffffffffffffffffffffffffffffff160217905550613813606860005060008473ffffffffffffffffffffffffffffffffffffffff1673ffffffffffffffffffffffffffffffffffffffff16815260200190815260200160002060005061438f909063ffffffff16565b808273ffffffffffffffffffffffffffffffffffffffff16600073ffffffffffffffffffffffffffffffffffffffff167fddf252ad1be2c89b69c2b068fc378daa952ba7f163c4a11628f55a4df523b3ef60405160405180910390a45b5050565b609c60005060008373ffffffffffffffffffffffffffffffffffffffff1673ffffffffffffffffffffffffffffffffffffffff16815260200190815260200160002060005080549050609d6000506000838152602001908152602001600020600050819090905550609c60005060008373ffffffffffffffffffffffffffffffffffffffff1673ffffffffffffffffffffffffffffffffffffffff1681526020019081526020016000206000508190806001815401808255809150509060018203906000526020600020900160005b9091929091909150909055505b5050565b609e60005080549050609f6000506000838152602001908152602001600020600050819090905550609e6000508190806001815401808255809150509060018203906000526020600020900160005b9091929091909150909055505b50565b6139c382826128c163ffffffff16565b1515613a1a576040517f08c379a00000000000000000000000000000000000000000000000000000000081526004018080602001828103825260218152602001806147a66021913960400191505060405180910390fd5b60008260000160005060008373ffffffffffffffffffffffffffffffffffffffff1673ffffffffffffffffffffffffffffffffffffffff16815260200190815260200160002060006101000a81548160ff0219169083151502179055505b5050565b600060019054906101000a900460ff1680613aa15750613aa06129aa63ffffffff16565b5b80613ab95750600060009054906101000a900460ff16155b1515613b10576040517f08c379a000000000000000000000000000000000000000000000000000000000815260040180806020018281038252602e815260200180614841602e913960400191505060405180910390fd5b6000600060019054906101000a900460ff161590508015613b62576001600060016101000a81548160ff0219169083151502179055506001600060006101000a81548160ff0219169083151502179055505b613b786301ffc9a760e01b6129e463ffffffff16565b5b8015613b9b576000600060016101000a81548160ff0219169083151502179055505b505b565b6000613bb7635b5e139f60e01b610f2c63ffffffff16565b9050613bbe565b90565b600060019054906101000a900460ff1680613be65750613be56129aa63ffffffff16565b5b80613bfe5750600060009054906101000a900460ff16155b1515613c55576040517f08c379a000000000000000000000000000000000000000000000000000000000815260040180806020018281038252602e815260200180614841602e913960400191505060405180910390fd5b6000600060019054906101000a900460ff161590508015613ca7576001600060016101000a81548160ff0219169083151502179055506001600060006101000a81548160ff0219169083151502179055505b613cb68261220363ffffffff16565b1515613ccc57613ccb82612f1963ffffffff16565b5b5b8015613cef576000600060016101000a81548160ff0219169083151502179055505b505b50565b613d0482826128c163ffffffff16565b151515613d7c576040517f08c379a000000000000000000000000000000000000000000000000000000000815260040180806020018281038252601f8152602001807f526f6c65733a206163636f756e7420616c72656164792068617320726f6c650081526020015060200191505060405180910390fd5b60018260000160005060008373ffffffffffffffffffffffffffffffffffffffff1673ffffffffffffffffffffffffffffffffffffffff16815260200190815260200160002060006101000a81548160ff0219169083151502179055505b5050565b60006000823b905060008111915050613df356505b919050565b600060019054906101000a900460ff1680613e1d5750613e1c6129aa63ffffffff16565b5b80613e355750600060009054906101000a900460ff16155b1515613e8c576040517f08c379a000000000000000000000000000000000000000000000000000000000815260040180806020018281038252602e815260200180614841602e913960400191505060405180910390fd5b6000600060019054906101000a900460ff161590508015613ede576001600060016101000a81548160ff0219169083151502179055506001600060006101000a81548160ff0219169083151502179055505b613eed8261157763ffffffff16565b1515613f0357613f0282612f7863ffffffff16565b5b5b8015613f26576000600060016101000a81548160ff0219169083151502179055505b505b50565b8273ffffffffffffffffffffffffffffffffffffffff16613f518261186a63ffffffff16565b73ffffffffffffffffffffffffffffffffffffffff16141515613fbf576040517f08c379a000000000000000000000000000000000000000000000000000000000815260040180806020018281038252602981526020018061486f6029913960400191505060405180910390fd5b600073ffffffffffffffffffffffffffffffffffffffff168273ffffffffffffffffffffffffffffffffffffffff1614151515614047576040517f08c379a000000000000000000000000000000000000000000000000000000000815260040180806020018281038252602481526020018061469b6024913960400191505060405180910390fd5b614056816143aa63ffffffff16565b6140ab606860005060008573ffffffffffffffffffffffffffffffffffffffff1673ffffffffffffffffffffffffffffffffffffffff168152602001908152602001600020600050614471909063ffffffff16565b614100606860005060008473ffffffffffffffffffffffffffffffffffffffff1673ffffffffffffffffffffffffffffffffffffffff16815260200190815260200160002060005061438f909063ffffffff16565b816066600050600083815260200190815260200160002060006101000a81548173ffffffffffffffffffffffffffffffffffffffff021916908373ffffffffffffffffffffffffffffffffffffffff160217905550808273ffffffffffffffffffffffffffffffffffffffff168473ffffffffffffffffffffffffffffffffffffffff167fddf252ad1be2c89b69c2b068fc378daa952ba7f163c4a11628f55a4df523b3ef60405160405180910390a45b505050565b60006142146001609c60005060008673ffffffffffffffffffffffffffffffffffffffff1673ffffffffffffffffffffffffffffffffffffffff1681526020019081526020016000206000508054905061449d90919063ffffffff16565b90506000609d6000506000848152602001908152602001600020600050549050818114151561432d576000609c60005060008673ffffffffffffffffffffffffffffffffffffffff1673ffffffffffffffffffffffffffffffffffffffff1681526020019081526020016000206000508381548110151561429157fe5b906000526020600020900160005b5054905080609c60005060008773ffffffffffffffffffffffffffffffffffffffff1673ffffffffffffffffffffffffffffffffffffffff168152602001908152602001600020600050838154811015156142f657fe5b906000526020600020900160005b5081909090555081609d6000506000838152602001908152602001600020600050819090905550505b609c60005060008573ffffffffffffffffffffffffffffffffffffffff1673ffffffffffffffffffffffffffffffffffffffff168152602001908152602001600020600050805480919060019003909061438791906145b6565b5050505b5050565b60018160000160008282825054019250508190909055505b50565b600073ffffffffffffffffffffffffffffffffffffffff166067600050600083815260200190815260200160002060009054906101000a900473ffffffffffffffffffffffffffffffffffffffff1673ffffffffffffffffffffffffffffffffffffffff1614151561446d5760006067600050600083815260200190815260200160002060006101000a81548173ffffffffffffffffffffffffffffffffffffffff021916908373ffffffffffffffffffffffffffffffffffffffff1602179055505b5b50565b61448c6001826000016000505461449d90919063ffffffff16565b816000016000508190909055505b50565b600082821115151561451a576040517f08c379a000000000000000000000000000000000000000000000000000000000815260040180806020018281038252601e8152602001807f536166654d6174683a207375627472616374696f6e206f766572666c6f77000081526020015060200191505060405180910390fd5b600082840390508091505061452b56505b92915050565b828054600181600116156101000203166002900490600052602060002090601f016020900481019282601f1061457257805160ff19168380011785556145a5565b828001600101855582156145a5579182015b828111156145a45782518260005090905591602001919060010190614584565b5b5090506145b291906145e2565b5090565b8154818355818111156145dd578183600052602060002091820191016145dc91906145e2565b5b505050565b61460a91906145ec565b8082111561460657600081815060009055506001016145ec565b5090565b9056fe455243373231456e756d657261626c653a206f776e657220696e646578206f7574206f6620626f756e64734552433732313a207472616e7366657220746f206e6f6e20455243373231526563656976657220696d706c656d656e746572506175736572526f6c653a2063616c6c657220646f6573206e6f742068617665207468652050617573657220726f6c654552433732313a207472616e7366657220746f20746865207a65726f20616464726573734552433732313a206f70657261746f7220717565727920666f72206e6f6e6578697374656e7420746f6b656e4552433732313a20617070726f76652063616c6c6572206973206e6f74206f776e6572206e6f7220617070726f76656420666f7220616c6c4552433732313a2062616c616e636520717565727920666f7220746865207a65726f20616464726573734552433732313a206f776e657220717565727920666f72206e6f6e6578697374656e7420746f6b656e4d696e746572526f6c653a2063616c6c657220646f6573206e6f74206861766520746865204d696e74657220726f6c65526f6c65733a206163636f756e7420646f6573206e6f74206861766520726f6c654552433732313a20617070726f76656420717565727920666f72206e6f6e6578697374656e7420746f6b656e4552433732314d657461646174613a2055524920736574206f66206e6f6e6578697374656e7420746f6b656e526f6c65733a206163636f756e7420697320746865207a65726f2061646472657373436f6e747261637420696e7374616e63652068617320616c7265616479206265656e20696e697469616c697a65644552433732313a207472616e73666572206f6620746f6b656e2074686174206973206e6f74206f776e4552433732314d657461646174613a2055524920717565727920666f72206e6f6e6578697374656e7420746f6b656e4552433732313a20617070726f76616c20746f2063757272656e74206f776e65724552433732313a207472616e736665722063616c6c6572206973206e6f74206f776e6572206e6f7220617070726f766564455243373231456e756d657261626c653a20676c6f62616c20696e646578206f7574206f6620626f756e6473a265627a7a72315820c41cf8732991ce7f7f2c079a3206aa68bcf2f88bd7581e91cbd55d52ae741e4e64736f6c634300050c0032",
  "compiler": {
    "name": "solc",
    "version": "0.5.12+commit.7709ece9.Darwin.appleclang",
    "optimizer": {},
    "evmVersion": "constantinople"
  }
}