{
  "fileName": "PauserRole.sol",
  "contractName": "PauserRole",
  "source": "pragma solidity ^0.5.0;\n\nimport \"@openzeppelin/upgrades/contracts/Initializable.sol\";\n\nimport \"../../GSN/Context.sol\";\nimport \"../Roles.sol\";\n\ncontract PauserRole is Initializable, Context {\n    using Roles for Roles.Role;\n\n    event PauserAdded(address indexed account);\n    event PauserRemoved(address indexed account);\n\n    Roles.Role private _pausers;\n\n    function initialize(address sender) public initializer {\n        if (!isPauser(sender)) {\n            _addPauser(sender);\n        }\n    }\n\n    modifier onlyPauser() {\n        require(isPauser(_msgSender()), \"PauserRole: caller does not have the Pauser role\");\n        _;\n    }\n\n    function isPauser(address account) public view returns (bool) {\n        return _pausers.has(account);\n    }\n\n    function addPauser(address account) public onlyPauser {\n        _addPauser(account);\n    }\n\n    function renouncePauser() public {\n        _removePauser(_msgSender());\n    }\n\n    function _addPauser(address account) internal {\n        _pausers.add(account);\n        emit PauserAdded(account);\n    }\n\n    function _removePauser(address account) internal {\n        _pausers.remove(account);\n        emit PauserRemoved(account);\n    }\n\n    uint256[50] private ______gap;\n}\n",
  "sourcePath": "@openzeppelin/contracts-ethereum-package/contracts/access/roles/PauserRole.sol",
  "abi": [
    {
      "anonymous": false,
      "inputs": [
        {
          "indexed": true,
          "internalType": "address",
          "name": "account",
          "type": "address"
        }
      ],
      "name": "PauserAdded",
      "type": "event"
    },
    {
      "anonymous": false,
      "inputs": [
        {
          "indexed": true,
          "internalType": "address",
          "name": "account",
          "type": "address"
        }
      ],
      "name": "PauserRemoved",
      "type": "event"
    },
    {
      "constant": false,
      "inputs": [
        {
          "internalType": "address",
          "name": "account",
          "type": "address"
        }
      ],
      "name": "addPauser",
      "outputs": [],
      "payable": false,
      "stateMutability": "nonpayable",
      "type": "function"
    },
    {
      "constant": false,
      "inputs": [
        {
          "internalType": "address",
          "name": "sender",
          "type": "address"
        }
      ],
      "name": "initialize",
      "outputs": [],
      "payable": false,
      "stateMutability": "nonpayable",
      "type": "function"
    },
    {
      "constant": true,
      "inputs": [
        {
          "internalType": "address",
          "name": "account",
          "type": "address"
        }
      ],
      "name": "isPauser",
      "outputs": [
        {
          "internalType": "bool",
          "name": "",
          "type": "bool"
        }
      ],
      "payable": false,
      "stateMutability": "view",
      "type": "function"
    },
    {
      "constant": false,
      "inputs": [],
      "name": "renouncePauser",
      "outputs": [],
      "payable": false,
      "stateMutability": "nonpayable",
      "type": "function"
    }
  ],
  "bytecode": "0x60806040525b5b61000b565b6107998061001a6000396000f3fe60806040523480156100115760006000fd5b50600436106100515760003560e01c806346fbf68e146100575780636ef8d66d146100b457806382dc1ec4146100be578063c4d66de81461010357610051565b60006000fd5b61009a6004803603602081101561006e5760006000fd5b81019080803573ffffffffffffffffffffffffffffffffffffffff169060200190929190505050610148565b604051808215151515815260200191505060405180910390f35b6100bc61016d565b005b610101600480360360208110156100d55760006000fd5b81019080803573ffffffffffffffffffffffffffffffffffffffff16906020019092919050505061018c565b005b6101466004803603602081101561011a5760006000fd5b81019080803573ffffffffffffffffffffffffffffffffffffffff169060200190929190505050610213565b005b600061016182603360005061034690919063ffffffff16565b9050610168565b919050565b61018961017e61042f63ffffffff16565b61043c63ffffffff16565b5b565b6101a861019d61042f63ffffffff16565b61014863ffffffff16565b15156101ff576040517f08c379a00000000000000000000000000000000000000000000000000000000081526004018080602001828103825260308152602001806106c46030913960400191505060405180910390fd5b61020e8161049a63ffffffff16565b5b5b50565b600060019054906101000a900460ff168061023857506102376104f863ffffffff16565b5b806102505750600060009054906101000a900460ff16155b15156102a7576040517f08c379a000000000000000000000000000000000000000000000000000000000815260040180806020018281038252602e815260200180610737602e913960400191505060405180910390fd5b6000600060019054906101000a900460ff1615905080156102f9576001600060016101000a81548160ff0219169083151502179055506001600060006101000a81548160ff0219169083151502179055505b6103088261014863ffffffff16565b151561031e5761031d8261049a63ffffffff16565b5b5b8015610341576000600060016101000a81548160ff0219169083151502179055505b505b50565b6000600073ffffffffffffffffffffffffffffffffffffffff168273ffffffffffffffffffffffffffffffffffffffff16141515156103d0576040517f08c379a00000000000000000000000000000000000000000000000000000000081526004018080602001828103825260228152602001806107156022913960400191505060405180910390fd5b8260000160005060008373ffffffffffffffffffffffffffffffffffffffff1673ffffffffffffffffffffffffffffffffffffffff16815260200190815260200160002060009054906101000a900460ff169050610429565b92915050565b6000339050610439565b90565b61045381603360005061051090919063ffffffff16565b8073ffffffffffffffffffffffffffffffffffffffff167fcd265ebaf09df2871cc7bd4133404a235ba12eff2041bb89d9c714a2621c7c7e60405160405180910390a25b50565b6104b18160336000506105d990919063ffffffff16565b8073ffffffffffffffffffffffffffffffffffffffff167f6719d08c1888103bea251a4ed56406bd0c3e69723c8a1686e017e7bbe159b6f860405160405180910390a25b50565b60006000303b90506000811491505061050d56505b90565b610520828261034663ffffffff16565b1515610577576040517f08c379a00000000000000000000000000000000000000000000000000000000081526004018080602001828103825260218152602001806106f46021913960400191505060405180910390fd5b60008260000160005060008373ffffffffffffffffffffffffffffffffffffffff1673ffffffffffffffffffffffffffffffffffffffff16815260200190815260200160002060006101000a81548160ff0219169083151502179055505b5050565b6105e9828261034663ffffffff16565b151515610661576040517f08c379a000000000000000000000000000000000000000000000000000000000815260040180806020018281038252601f8152602001807f526f6c65733a206163636f756e7420616c72656164792068617320726f6c650081526020015060200191505060405180910390fd5b60018260000160005060008373ffffffffffffffffffffffffffffffffffffffff1673ffffffffffffffffffffffffffffffffffffffff16815260200190815260200160002060006101000a81548160ff0219169083151502179055505b505056fe506175736572526f6c653a2063616c6c657220646f6573206e6f742068617665207468652050617573657220726f6c65526f6c65733a206163636f756e7420646f6573206e6f74206861766520726f6c65526f6c65733a206163636f756e7420697320746865207a65726f2061646472657373436f6e747261637420696e7374616e63652068617320616c7265616479206265656e20696e697469616c697a6564a265627a7a723158203f4f3dafa24453504d9ea61c30329aae766b7b266292ea64b60e5852ccbf592b64736f6c634300050c0032",
  "compiler": {
    "name": "solc",
    "version": "0.5.12+commit.7709ece9.Darwin.appleclang",
    "optimizer": {},
    "evmVersion": "constantinople"
  }
}