{
  "fileName": "StandaloneERC721.sol",
  "contractName": "StandaloneERC721",
  "source": "pragma solidity ^0.5.0;\n\nimport \"@openzeppelin/upgrades/contracts/Initializable.sol\";\nimport \"./ERC721.sol\";\nimport \"./ERC721Enumerable.sol\";\nimport \"./ERC721Metadata.sol\";\nimport \"./ERC721MetadataMintable.sol\";\nimport \"./ERC721Pausable.sol\";\n\n\n/**\n * @title Standard ERC721 token, with minting and pause functionality.\n *\n */\ncontract StandaloneERC721\n    is Initializable, ERC721, ERC721Enumerable, ERC721Metadata, ERC721MetadataMintable, ERC721Pausable\n{\n    function initialize(string memory name, string memory symbol, address[] memory minters, address[] memory pausers) public initializer {\n        ERC721.initialize();\n        ERC721Enumerable.initialize();\n        ERC721Metadata.initialize(name, symbol);\n\n        // Initialize the minter and pauser roles, and renounce them\n        ERC721MetadataMintable.initialize(address(this));\n        _removeMinter(address(this));\n\n        ERC721Pausable.initialize(address(this));\n        _removePauser(address(this));\n\n        // Add the requested minters and pausers (this can be done after renouncing since\n        // these are the internal calls)\n        for (uint256 i = 0; i < minters.length; ++i) {\n            _addMinter(minters[i]);\n        }\n\n        for (uint256 i = 0; i < pausers.length; ++i) {\n            _addPauser(pausers[i]);\n        }\n    }\n}\n",
  "sourcePath": "@openzeppelin/contracts-ethereum-package/contracts/token/ERC721/StandaloneERC721.sol",
  "abi": [
    {
      "anonymous": false,
      "inputs": [
        {
          "indexed": true,
          "internalType": "address",
          "name": "owner",
          "type": "address"
        },
        {
          "indexed": true,
          "internalType": "address",
          "name": "approved",
          "type": "address"
        },
        {
          "indexed": true,
          "internalType": "uint256",
          "name": "tokenId",
          "type": "uint256"
        }
      ],
      "name": "Approval",
      "type": "event"
    },
    {
      "anonymous": false,
      "inputs": [
        {
          "indexed": true,
          "internalType": "address",
          "name": "owner",
          "type": "address"
        },
        {
          "indexed": true,
          "internalType": "address",
          "name": "operator",
          "type": "address"
        },
        {
          "indexed": false,
          "internalType": "bool",
          "name": "approved",
          "type": "bool"
        }
      ],
      "name": "ApprovalForAll",
      "type": "event"
    },
    {
      "anonymous": false,
      "inputs": [
        {
          "indexed": true,
          "internalType": "address",
          "name": "account",
          "type": "address"
        }
      ],
      "name": "MinterAdded",
      "type": "event"
    },
    {
      "anonymous": false,
      "inputs": [
        {
          "indexed": true,
          "internalType": "address",
          "name": "account",
          "type": "address"
        }
      ],
      "name": "MinterRemoved",
      "type": "event"
    },
    {
      "anonymous": false,
      "inputs": [
        {
          "indexed": false,
          "internalType": "address",
          "name": "account",
          "type": "address"
        }
      ],
      "name": "Paused",
      "type": "event"
    },
    {
      "anonymous": false,
      "inputs": [
        {
          "indexed": true,
          "internalType": "address",
          "name": "account",
          "type": "address"
        }
      ],
      "name": "PauserAdded",
      "type": "event"
    },
    {
      "anonymous": false,
      "inputs": [
        {
          "indexed": true,
          "internalType": "address",
          "name": "account",
          "type": "address"
        }
      ],
      "name": "PauserRemoved",
      "type": "event"
    },
    {
      "anonymous": false,
      "inputs": [
        {
          "indexed": true,
          "internalType": "address",
          "name": "from",
          "type": "address"
        },
        {
          "indexed": true,
          "internalType": "address",
          "name": "to",
          "type": "address"
        },
        {
          "indexed": true,
          "internalType": "uint256",
          "name": "tokenId",
          "type": "uint256"
        }
      ],
      "name": "Transfer",
      "type": "event"
    },
    {
      "anonymous": false,
      "inputs": [
        {
          "indexed": false,
          "internalType": "address",
          "name": "account",
          "type": "address"
        }
      ],
      "name": "Unpaused",
      "type": "event"
    },
    {
      "constant": false,
      "inputs": [
        {
          "internalType": "address",
          "name": "account",
          "type": "address"
        }
      ],
      "name": "addMinter",
      "outputs": [],
      "payable": false,
      "stateMutability": "nonpayable",
      "type": "function"
    },
    {
      "constant": false,
      "inputs": [
        {
          "internalType": "address",
          "name": "account",
          "type": "address"
        }
      ],
      "name": "addPauser",
      "outputs": [],
      "payable": false,
      "stateMutability": "nonpayable",
      "type": "function"
    },
    {
      "constant": false,
      "inputs": [
        {
          "internalType": "address",
          "name": "to",
          "type": "address"
        },
        {
          "internalType": "uint256",
          "name": "tokenId",
          "type": "uint256"
        }
      ],
      "name": "approve",
      "outputs": [],
      "payable": false,
      "stateMutability": "nonpayable",
      "type": "function"
    },
    {
      "constant": true,
      "inputs": [
        {
          "internalType": "address",
          "name": "owner",
          "type": "address"
        }
      ],
      "name": "balanceOf",
      "outputs": [
        {
          "internalType": "uint256",
          "name": "",
          "type": "uint256"
        }
      ],
      "payable": false,
      "stateMutability": "view",
      "type": "function"
    },
    {
      "constant": true,
      "inputs": [
        {
          "internalType": "uint256",
          "name": "tokenId",
          "type": "uint256"
        }
      ],
      "name": "getApproved",
      "outputs": [
        {
          "internalType": "address",
          "name": "",
          "type": "address"
        }
      ],
      "payable": false,
      "stateMutability": "view",
      "type": "function"
    },
    {
      "constant": false,
      "inputs": [
        {
          "internalType": "string",
          "name": "name",
          "type": "string"
        },
        {
          "internalType": "string",
          "name": "symbol",
          "type": "string"
        }
      ],
      "name": "initialize",
      "outputs": [],
      "payable": false,
      "stateMutability": "nonpayable",
      "type": "function"
    },
    {
      "constant": false,
      "inputs": [],
      "name": "initialize",
      "outputs": [],
      "payable": false,
      "stateMutability": "nonpayable",
      "type": "function"
    },
    {
      "constant": false,
      "inputs": [
        {
          "internalType": "address",
          "name": "sender",
          "type": "address"
        }
      ],
      "name": "initialize",
      "outputs": [],
      "payable": false,
      "stateMutability": "nonpayable",
      "type": "function"
    },
    {
      "constant": false,
      "inputs": [
        {
          "internalType": "string",
          "name": "name",
          "type": "string"
        },
        {
          "internalType": "string",
          "name": "symbol",
          "type": "string"
        },
        {
          "internalType": "address[]",
          "name": "minters",
          "type": "address[]"
        },
        {
          "internalType": "address[]",
          "name": "pausers",
          "type": "address[]"
        }
      ],
      "name": "initialize",
      "outputs": [],
      "payable": false,
      "stateMutability": "nonpayable",
      "type": "function"
    },
    {
      "constant": true,
      "inputs": [
        {
          "internalType": "address",
          "name": "owner",
          "type": "address"
        },
        {
          "internalType": "address",
          "name": "operator",
          "type": "address"
        }
      ],
      "name": "isApprovedForAll",
      "outputs": [
        {
          "internalType": "bool",
          "name": "",
          "type": "bool"
        }
      ],
      "payable": false,
      "stateMutability": "view",
      "type": "function"
    },
    {
      "constant": true,
      "inputs": [
        {
          "internalType": "address",
          "name": "account",
          "type": "address"
        }
      ],
      "name": "isMinter",
      "outputs": [
        {
          "internalType": "bool",
          "name": "",
          "type": "bool"
        }
      ],
      "payable": false,
      "stateMutability": "view",
      "type": "function"
    },
    {
      "constant": true,
      "inputs": [
        {
          "internalType": "address",
          "name": "account",
          "type": "address"
        }
      ],
      "name": "isPauser",
      "outputs": [
        {
          "internalType": "bool",
          "name": "",
          "type": "bool"
        }
      ],
      "payable": false,
      "stateMutability": "view",
      "type": "function"
    },
    {
      "constant": false,
      "inputs": [
        {
          "internalType": "address",
          "name": "to",
          "type": "address"
        },
        {
          "internalType": "uint256",
          "name": "tokenId",
          "type": "uint256"
        },
        {
          "internalType": "string",
          "name": "tokenURI",
          "type": "string"
        }
      ],
      "name": "mintWithTokenURI",
      "outputs": [
        {
          "internalType": "bool",
          "name": "",
          "type": "bool"
        }
      ],
      "payable": false,
      "stateMutability": "nonpayable",
      "type": "function"
    },
    {
      "constant": true,
      "inputs": [],
      "name": "name",
      "outputs": [
        {
          "internalType": "string",
          "name": "",
          "type": "string"
        }
      ],
      "payable": false,
      "stateMutability": "view",
      "type": "function"
    },
    {
      "constant": true,
      "inputs": [
        {
          "internalType": "uint256",
          "name": "tokenId",
          "type": "uint256"
        }
      ],
      "name": "ownerOf",
      "outputs": [
        {
          "internalType": "address",
          "name": "",
          "type": "address"
        }
      ],
      "payable": false,
      "stateMutability": "view",
      "type": "function"
    },
    {
      "constant": false,
      "inputs": [],
      "name": "pause",
      "outputs": [],
      "payable": false,
      "stateMutability": "nonpayable",
      "type": "function"
    },
    {
      "constant": true,
      "inputs": [],
      "name": "paused",
      "outputs": [
        {
          "internalType": "bool",
          "name": "",
          "type": "bool"
        }
      ],
      "payable": false,
      "stateMutability": "view",
      "type": "function"
    },
    {
      "constant": false,
      "inputs": [],
      "name": "renounceMinter",
      "outputs": [],
      "payable": false,
      "stateMutability": "nonpayable",
      "type": "function"
    },
    {
      "constant": false,
      "inputs": [],
      "name": "renouncePauser",
      "outputs": [],
      "payable": false,
      "stateMutability": "nonpayable",
      "type": "function"
    },
    {
      "constant": false,
      "inputs": [
        {
          "internalType": "address",
          "name": "from",
          "type": "address"
        },
        {
          "internalType": "address",
          "name": "to",
          "type": "address"
        },
        {
          "internalType": "uint256",
          "name": "tokenId",
          "type": "uint256"
        }
      ],
      "name": "safeTransferFrom",
      "outputs": [],
      "payable": false,
      "stateMutability": "nonpayable",
      "type": "function"
    },
    {
      "constant": false,
      "inputs": [
        {
          "internalType": "address",
          "name": "from",
          "type": "address"
        },
        {
          "internalType": "address",
          "name": "to",
          "type": "address"
        },
        {
          "internalType": "uint256",
          "name": "tokenId",
          "type": "uint256"
        },
        {
          "internalType": "bytes",
          "name": "_data",
          "type": "bytes"
        }
      ],
      "name": "safeTransferFrom",
      "outputs": [],
      "payable": false,
      "stateMutability": "nonpayable",
      "type": "function"
    },
    {
      "constant": false,
      "inputs": [
        {
          "internalType": "address",
          "name": "to",
          "type": "address"
        },
        {
          "internalType": "bool",
          "name": "approved",
          "type": "bool"
        }
      ],
      "name": "setApprovalForAll",
      "outputs": [],
      "payable": false,
      "stateMutability": "nonpayable",
      "type": "function"
    },
    {
      "constant": true,
      "inputs": [
        {
          "internalType": "bytes4",
          "name": "interfaceId",
          "type": "bytes4"
        }
      ],
      "name": "supportsInterface",
      "outputs": [
        {
          "internalType": "bool",
          "name": "",
          "type": "bool"
        }
      ],
      "payable": false,
      "stateMutability": "view",
      "type": "function"
    },
    {
      "constant": true,
      "inputs": [],
      "name": "symbol",
      "outputs": [
        {
          "internalType": "string",
          "name": "",
          "type": "string"
        }
      ],
      "payable": false,
      "stateMutability": "view",
      "type": "function"
    },
    {
      "constant": true,
      "inputs": [
        {
          "internalType": "uint256",
          "name": "index",
          "type": "uint256"
        }
      ],
      "name": "tokenByIndex",
      "outputs": [
        {
          "internalType": "uint256",
          "name": "",
          "type": "uint256"
        }
      ],
      "payable": false,
      "stateMutability": "view",
      "type": "function"
    },
    {
      "constant": true,
      "inputs": [
        {
          "internalType": "address",
          "name": "owner",
          "type": "address"
        },
        {
          "internalType": "uint256",
          "name": "index",
          "type": "uint256"
        }
      ],
      "name": "tokenOfOwnerByIndex",
      "outputs": [
        {
          "internalType": "uint256",
          "name": "",
          "type": "uint256"
        }
      ],
      "payable": false,
      "stateMutability": "view",
      "type": "function"
    },
    {
      "constant": true,
      "inputs": [
        {
          "internalType": "uint256",
          "name": "tokenId",
          "type": "uint256"
        }
      ],
      "name": "tokenURI",
      "outputs": [
        {
          "internalType": "string",
          "name": "",
          "type": "string"
        }
      ],
      "payable": false,
      "stateMutability": "view",
      "type": "function"
    },
    {
      "constant": true,
      "inputs": [],
      "name": "totalSupply",
      "outputs": [
        {
          "internalType": "uint256",
          "name": "",
          "type": "uint256"
        }
      ],
      "payable": false,
      "stateMutability": "view",
      "type": "function"
    },
    {
      "constant": false,
      "inputs": [
        {
          "internalType": "address",
          "name": "from",
          "type": "address"
        },
        {
          "internalType": "address",
          "name": "to",
          "type": "address"
        },
        {
          "internalType": "uint256",
          "name": "tokenId",
          "type": "uint256"
        }
      ],
      "name": "transferFrom",
      "outputs": [],
      "payable": false,
      "stateMutability": "nonpayable",
      "type": "function"
    },
    {
      "constant": false,
      "inputs": [],
      "name": "unpause",
      "outputs": [],
      "payable": false,
      "stateMutability": "nonpayable",
      "type": "function"
    }
  ],
  "bytecode": "0x60806040525b5b61000b565b6149088061001a6000396000f3fe60806040523480156100115760006000fd5b50600436106101df5760003560e01c80636ef8d66d1161010557806398650275116100a3578063c4d66de811610072578063c4d66de814610bd7578063c87b56dd14610c1c578063d94cc0e014610cc5578063e985e9c514610f5c576101df565b80639865027514610a12578063a22cb46514610a1c578063aa271e1a14610a6d578063b88d4fde14610aca576101df565b806382dc1ec4116100df57806382dc1ec4146108fa5780638456cb591461093f57806395d89b4114610949578063983b2d56146109cd576101df565b80636ef8d66d1461088d57806370a08231146108975780638129fc1c146108f0576101df565b80633f4ba83a1161017d5780634f6ccce71161014c5780634f6ccce7146106b457806350bb4e7f146106f75780635c975abb146107fc5780636352211e1461081e576101df565b80633f4ba83a1461047d57806342842e0e1461048757806346fbf68e146104f65780634cd88b7614610553576101df565b8063095ea7b3116101b9578063095ea7b31461033e57806318160ddd1461038d57806323b872dd146103ab5780632f745c591461041a576101df565b806301ffc9a7146101e557806306fdde031461024b578063081812fc146102cf576101df565b60006000fd5b610231600480360360208110156101fc5760006000fd5b8101908080357bffffffffffffffffffffffffffffffffffffffffffffffffffffffff19169060200190929190505050610fd9565b604051808215151515815260200191505060405180910390f35b610253611049565b6040518080602001828103825283818151815260200191508051906020019080838360005b838110156102945780820151818401525b602081019050610278565b50505050905090810190601f1680156102c15780820380516001836020036101000a031916815260200191505b509250505060405180910390f35b6102fc600480360360208110156102e65760006000fd5b81019080803590602001909291905050506110f3565b604051808273ffffffffffffffffffffffffffffffffffffffff1673ffffffffffffffffffffffffffffffffffffffff16815260200191505060405180910390f35b61038b600480360360408110156103555760006000fd5b81019080803573ffffffffffffffffffffffffffffffffffffffff1690602001909291908035906020019092919050505061119e565b005b61039561123d565b6040518082815260200191505060405180910390f35b610418600480360360608110156103c25760006000fd5b81019080803573ffffffffffffffffffffffffffffffffffffffff169060200190929190803573ffffffffffffffffffffffffffffffffffffffff16906020019092919080359060200190929190505050611252565b005b610467600480360360408110156104315760006000fd5b81019080803573ffffffffffffffffffffffffffffffffffffffff169060200190929190803590602001909291905050506112f3565b6040518082815260200191505060405180910390f35b6104856113cc565b005b6104f46004803603606081101561049e5760006000fd5b81019080803573ffffffffffffffffffffffffffffffffffffffff169060200190929190803573ffffffffffffffffffffffffffffffffffffffff16906020019092919080359060200190929190505050611558565b005b6105396004803603602081101561050d5760006000fd5b81019080803573ffffffffffffffffffffffffffffffffffffffff169060200190929190505050611582565b604051808215151515815260200191505060405180910390f35b6106b26004803603604081101561056a5760006000fd5b81019080803590602001906401000000008111156105885760006000fd5b82018360208201111561059b5760006000fd5b803590602001918460018302840111640100000000831117156105be5760006000fd5b91908080601f016020809104026020016040519081016040528093929190818152602001838380828437600081840152601f19601f82011690508083019250505050505050909091929090919290803590602001906401000000008111156106265760006000fd5b8201836020820111156106395760006000fd5b8035906020019184600183028401116401000000008311171561065c5760006000fd5b91908080601f016020809104026020016040519081016040528093929190818152602001838380828437600081840152601f19601f820116905080830192505050505050509090919290909192905050506115a8565b005b6106e1600480360360208110156106cb5760006000fd5b810190808035906020019092919050505061171b565b6040518082815260200191505060405180910390f35b6107e26004803603606081101561070e5760006000fd5b81019080803573ffffffffffffffffffffffffffffffffffffffff16906020019092919080359060200190929190803590602001906401000000008111156107565760006000fd5b8201836020820111156107695760006000fd5b8035906020019184600183028401116401000000008311171561078c5760006000fd5b91908080601f016020809104026020016040519081016040528093929190818152602001838380828437600081840152601f19601f820116905080830192505050505050509090919290909192905050506117b2565b604051808215151515815260200191505060405180910390f35b610804611858565b604051808215151515815260200191505060405180910390f35b61084b600480360360208110156108355760006000fd5b8101908080359060200190929190505050611875565b604051808273ffffffffffffffffffffffffffffffffffffffff1673ffffffffffffffffffffffffffffffffffffffff16815260200191505060405180910390f35b610895611949565b005b6108da600480360360208110156108ae5760006000fd5b81019080803573ffffffffffffffffffffffffffffffffffffffff169060200190929190505050611968565b6040518082815260200191505060405180910390f35b6108f8611a53565b005b61093d600480360360208110156109115760006000fd5b81019080803573ffffffffffffffffffffffffffffffffffffffff169060200190929190505050611b90565b005b610947611c17565b005b610951611da4565b6040518080602001828103825283818151815260200191508051906020019080838360005b838110156109925780820151818401525b602081019050610976565b50505050905090810190601f1680156109bf5780820380516001836020036101000a031916815260200191505b509250505060405180910390f35b610a10600480360360208110156109e45760006000fd5b81019080803573ffffffffffffffffffffffffffffffffffffffff169060200190929190505050611e4e565b005b610a1a611ed5565b005b610a6b60048036036040811015610a335760006000fd5b81019080803573ffffffffffffffffffffffffffffffffffffffff169060200190929190803515159060200190929190505050611ef4565b005b610ab060048036036020811015610a845760006000fd5b81019080803573ffffffffffffffffffffffffffffffffffffffff169060200190929190505050611f93565b604051808215151515815260200191505060405180910390f35b610bd560048036036080811015610ae15760006000fd5b81019080803573ffffffffffffffffffffffffffffffffffffffff169060200190929190803573ffffffffffffffffffffffffffffffffffffffff1690602001909291908035906020019092919080359060200190640100000000811115610b495760006000fd5b820183602082011115610b5c5760006000fd5b80359060200191846001830284011164010000000083111715610b7f5760006000fd5b91908080601f016020809104026020016040519081016040528093929190818152602001838380828437600081840152601f19601f82011690508083019250505050505050909091929090919290505050611fb9565b005b610c1a60048036036020811015610bee5760006000fd5b81019080803573ffffffffffffffffffffffffffffffffffffffff16906020019092919050505061203a565b005b610c4960048036036020811015610c335760006000fd5b8101908080359060200190929190505050612171565b6040518080602001828103825283818151815260200191508051906020019080838360005b83811015610c8a5780820151818401525b602081019050610c6e565b50505050905090810190601f168015610cb75780820380516001836020036101000a031916815260200191505b509250505060405180910390f35b610f5a60048036036080811015610cdc5760006000fd5b8101908080359060200190640100000000811115610cfa5760006000fd5b820183602082011115610d0d5760006000fd5b80359060200191846001830284011164010000000083111715610d305760006000fd5b91908080601f016020809104026020016040519081016040528093929190818152602001838380828437600081840152601f19601f8201169050808301925050505050505090909192909091929080359060200190640100000000811115610d985760006000fd5b820183602082011115610dab5760006000fd5b80359060200191846001830284011164010000000083111715610dce5760006000fd5b91908080601f016020809104026020016040519081016040528093929190818152602001838380828437600081840152601f19601f8201169050808301925050505050505090909192909091929080359060200190640100000000811115610e365760006000fd5b820183602082011115610e495760006000fd5b80359060200191846020830284011164010000000083111715610e6c5760006000fd5b919080806020026020016040519081016040528093929190818152602001838360200280828437600081840152601f19601f8201169050808301925050505050505090909192909091929080359060200190640100000000811115610ed15760006000fd5b820183602082011115610ee45760006000fd5b80359060200191846020830284011164010000000083111715610f075760006000fd5b919080806020026020016040519081016040528093929190818152602001838360200280828437600081840152601f19601f82011690508083019250505050505050909091929090919290505050612297565b005b610fbf60048036036040811015610f735760006000fd5b81019080803573ffffffffffffffffffffffffffffffffffffffff169060200190929190803573ffffffffffffffffffffffffffffffffffffffff169060200190929190505050612496565b604051808215151515815260200191505060405180910390f35b600060336000506000837bffffffffffffffffffffffffffffffffffffffffffffffffffffffff19167bffffffffffffffffffffffffffffffffffffffffffffffffffffffff1916815260200190815260200160002060009054906101000a900460ff169050611044565b919050565b606060d26000508054600181600116156101000203166002900480601f0160208091040260200160405190810160405280929190818152602001828054600181600116156101000203166002900480156110e45780601f106110b9576101008083540402835291602001916110e4565b820191906000526020600020905b8154815290600101906020018083116110c757829003601f168201915b505050505090506110f0565b90565b60006111048261253563ffffffff16565b151561115b576040517f08c379a000000000000000000000000000000000000000000000000000000000815260040180806020018281038252602c815260200180614756602c913960400191505060405180910390fd5b6067600050600083815260200190815260200160002060009054906101000a900473ffffffffffffffffffffffffffffffffffffffff169050611199565b919050565b61019f60009054906101000a900460ff16151515611227576040517f08c379a00000000000000000000000000000000000000000000000000000000081526004018080602001828103825260108152602001807f5061757361626c653a207061757365640000000000000000000000000000000081526020015060200191505060405180910390fd5b61123782826125b163ffffffff16565b5b5b5050565b6000609e60005080549050905061124f565b90565b61019f60009054906101000a900460ff161515156112db576040517f08c379a00000000000000000000000000000000000000000000000000000000081526004018080602001828103825260108152602001807f5061757361626c653a207061757365640000000000000000000000000000000081526020015060200191505060405180910390fd5b6112ec8383836127b863ffffffff16565b5b5b505050565b60006113048361196863ffffffff16565b8210151561135d576040517f08c379a000000000000000000000000000000000000000000000000000000000815260040180806020018281038252602b81526020018061459d602b913960400191505060405180910390fd5b609c60005060008473ffffffffffffffffffffffffffffffffffffffff1673ffffffffffffffffffffffffffffffffffffffff168152602001908152602001600020600050828154811015156113af57fe5b906000526020600020900160005b505490506113c6565b92915050565b6113e86113dd61284363ffffffff16565b61158263ffffffff16565b151561143f576040517f08c379a00000000000000000000000000000000000000000000000000000000081526004018080602001828103825260308152602001806145fa6030913960400191505060405180910390fd5b61019f60009054906101000a900460ff1615156114c7576040517f08c379a00000000000000000000000000000000000000000000000000000000081526004018080602001828103825260148152602001807f5061757361626c653a206e6f742070617573656400000000000000000000000081526020015060200191505060405180910390fd5b600061019f60006101000a81548160ff0219169083151502179055507f5db9ee0a495bf2e6ff9c91a7834c1ba4fdd244a5e8aa4e537bd38aeae4b073aa61151261284363ffffffff16565b604051808273ffffffffffffffffffffffffffffffffffffffff1673ffffffffffffffffffffffffffffffffffffffff16815260200191505060405180910390a15b5b5b565b61157c83838360405180602001604052806000815260200150611fb963ffffffff16565b5b505050565b600061159c8261016c60005061285090919063ffffffff16565b90506115a3565b919050565b600060019054906101000a900460ff16806115cd57506115cc61293963ffffffff16565b5b806115e55750600060009054906101000a900460ff16155b151561163c576040517f08c379a000000000000000000000000000000000000000000000000000000000815260040180806020018281038252602e8152602001806147d0602e913960400191505060405180910390fd5b6000600060019054906101000a900460ff16159050801561168e576001600060016101000a81548160ff0219169083151502179055506001600060006101000a81548160ff0219169083151502179055505b61169c61295163ffffffff16565b15156116a85760006000fd5b8260d260005090805190602001906116c19291906144c0565b508160d360005090805190602001906116db9291906144c0565b506116f2635b5e139f60e01b61297363ffffffff16565b5b8015611715576000600060016101000a81548160ff0219169083151502179055505b505b5050565b600061172b61123d63ffffffff16565b82101515611784576040517f08c379a000000000000000000000000000000000000000000000000000000000815260040180806020018281038252602c8152602001806148a8602c913960400191505060405180910390fd5b609e6000508281548110151561179657fe5b906000526020600020900160005b505490506117ad565b919050565b60006117d06117c561284363ffffffff16565b611f9363ffffffff16565b1515611827576040517f08c379a00000000000000000000000000000000000000000000000000000000081526004018080602001828103825260308152602001806147056030913960400191505060405180910390fd5b6118378484612a8563ffffffff16565b6118478383612ab963ffffffff16565b60019050611850565b5b9392505050565b600061019f60009054906101000a900460ff169050611872565b90565b600060006066600050600084815260200190815260200160002060009054906101000a900473ffffffffffffffffffffffffffffffffffffffff169050600073ffffffffffffffffffffffffffffffffffffffff168173ffffffffffffffffffffffffffffffffffffffff161415151561193a576040517f08c379a00000000000000000000000000000000000000000000000000000000081526004018080602001828103825260298152602001806146dc6029913960400191505060405180910390fd5b8091505061194456505b919050565b61196561195a61284363ffffffff16565b612b5263ffffffff16565b5b565b6000600073ffffffffffffffffffffffffffffffffffffffff168273ffffffffffffffffffffffffffffffffffffffff16141515156119f2576040517f08c379a000000000000000000000000000000000000000000000000000000000815260040180806020018281038252602a8152602001806146b2602a913960400191505060405180910390fd5b611a47606860005060008473ffffffffffffffffffffffffffffffffffffffff1673ffffffffffffffffffffffffffffffffffffffff168152602001908152602001600020600050612bb1909063ffffffff16565b9050611a4e565b919050565b600060019054906101000a900460ff1680611a785750611a7761293963ffffffff16565b5b80611a905750600060009054906101000a900460ff16155b1515611ae7576040517f08c379a000000000000000000000000000000000000000000000000000000000815260040180806020018281038252602e8152602001806147d0602e913960400191505060405180910390fd5b6000600060019054906101000a900460ff161590508015611b39576001600060016101000a81548160ff0219169083151502179055506001600060006101000a81548160ff0219169083151502179055505b611b4761295163ffffffff16565b1515611b535760006000fd5b611b6963780e9d6360e01b61297363ffffffff16565b5b8015611b8c576000600060016101000a81548160ff0219169083151502179055505b505b565b611bac611ba161284363ffffffff16565b61158263ffffffff16565b1515611c03576040517f08c379a00000000000000000000000000000000000000000000000000000000081526004018080602001828103825260308152602001806145fa6030913960400191505060405180910390fd5b611c1281612bc763ffffffff16565b5b5b50565b611c33611c2861284363ffffffff16565b61158263ffffffff16565b1515611c8a576040517f08c379a00000000000000000000000000000000000000000000000000000000081526004018080602001828103825260308152602001806145fa6030913960400191505060405180910390fd5b61019f60009054906101000a900460ff16151515611d13576040517f08c379a00000000000000000000000000000000000000000000000000000000081526004018080602001828103825260108152602001807f5061757361626c653a207061757365640000000000000000000000000000000081526020015060200191505060405180910390fd5b600161019f60006101000a81548160ff0219169083151502179055507f62e78cea01bee320cd4e420270b5ea74000d11b0c9f74754ebdbfc544b05a258611d5e61284363ffffffff16565b604051808273ffffffffffffffffffffffffffffffffffffffff1673ffffffffffffffffffffffffffffffffffffffff16815260200191505060405180910390a15b5b5b565b606060d36000508054600181600116156101000203166002900480601f016020809104026020016040519081016040528092919081815260200182805460018160011615610100020316600290048015611e3f5780601f10611e1457610100808354040283529160200191611e3f565b820191906000526020600020905b815481529060010190602001808311611e2257829003601f168201915b50505050509050611e4b565b90565b611e6a611e5f61284363ffffffff16565b611f9363ffffffff16565b1515611ec1576040517f08c379a00000000000000000000000000000000000000000000000000000000081526004018080602001828103825260308152602001806147056030913960400191505060405180910390fd5b611ed081612c2663ffffffff16565b5b5b50565b611ef1611ee661284363ffffffff16565b612c8563ffffffff16565b5b565b61019f60009054906101000a900460ff16151515611f7d576040517f08c379a00000000000000000000000000000000000000000000000000000000081526004018080602001828103825260108152602001807f5061757361626c653a207061757365640000000000000000000000000000000081526020015060200191505060405180910390fd5b611f8d8282612ce463ffffffff16565b5b5b5050565b6000611fad8261010760005061285090919063ffffffff16565b9050611fb4565b919050565b611fca84848461125263ffffffff16565b611fdc84848484612eba63ffffffff16565b1515612033576040517f08c379a00000000000000000000000000000000000000000000000000000000081526004018080602001828103825260328152602001806145c86032913960400191505060405180910390fd5b5b50505050565b600060019054906101000a900460ff168061205f575061205e61293963ffffffff16565b5b806120775750600060009054906101000a900460ff16155b15156120ce576040517f08c379a000000000000000000000000000000000000000000000000000000000815260040180806020018281038252602e8152602001806147d0602e913960400191505060405180910390fd5b6000600060019054906101000a900460ff161590508015612120576001600060016101000a81548160ff0219169083151502179055506001600060006101000a81548160ff0219169083151502179055505b61212e61295163ffffffff16565b151561213a5760006000fd5b612149826130c363ffffffff16565b5b801561216c576000600060016101000a81548160ff0219169083151502179055505b505b50565b60606121828261253563ffffffff16565b15156121d9576040517f08c379a000000000000000000000000000000000000000000000000000000000815260040180806020018281038252602f815260200180614827602f913960400191505060405180910390fd5b60d460005060008381526020019081526020016000206000508054600181600116156101000203166002900480601f0160208091040260200160405190810160405280929190818152602001828054600181600116156101000203166002900480156122865780601f1061225b57610100808354040283529160200191612286565b820191906000526020600020905b81548152906001019060200180831161226957829003601f168201915b50505050509050612292565b919050565b600060019054906101000a900460ff16806122bc57506122bb61293963ffffffff16565b5b806122d45750600060009054906101000a900460ff16155b151561232b576040517f08c379a000000000000000000000000000000000000000000000000000000000815260040180806020018281038252602e8152602001806147d0602e913960400191505060405180910390fd5b6000600060019054906101000a900460ff16159050801561237d576001600060016101000a81548160ff0219169083151502179055506001600060006101000a81548160ff0219169083151502179055505b61238b6131fc63ffffffff16565b612399611a5363ffffffff16565b6123a985856115a863ffffffff16565b6123b83061332d63ffffffff16565b6123c730612c8563ffffffff16565b6123d63061203a63ffffffff16565b6123e530612b5263ffffffff16565b6000600090505b835181101561242757612419848281518110151561240657fe5b6020026020010151612c2663ffffffff16565b5b80600101905080506123ec565b506000600090505b825181101561246a5761245c838281518110151561244957fe5b6020026020010151612bc763ffffffff16565b5b806001019050805061242f565b505b801561248e576000600060016101000a81548160ff0219169083151502179055505b505b50505050565b6000606960005060008473ffffffffffffffffffffffffffffffffffffffff1673ffffffffffffffffffffffffffffffffffffffff16815260200190815260200160002060005060008373ffffffffffffffffffffffffffffffffffffffff1673ffffffffffffffffffffffffffffffffffffffff16815260200190815260200160002060009054906101000a900460ff16905061252f565b92915050565b600060006066600050600084815260200190815260200160002060009054906101000a900473ffffffffffffffffffffffffffffffffffffffff169050600073ffffffffffffffffffffffffffffffffffffffff168173ffffffffffffffffffffffffffffffffffffffff1614159150506125ac56505b919050565b60006125c28261187563ffffffff16565b90508073ffffffffffffffffffffffffffffffffffffffff168373ffffffffffffffffffffffffffffffffffffffff161415151561264b576040517f08c379a00000000000000000000000000000000000000000000000000000000081526004018080602001828103825260218152602001806148566021913960400191505060405180910390fd5b8073ffffffffffffffffffffffffffffffffffffffff1661267061284363ffffffff16565b73ffffffffffffffffffffffffffffffffffffffff1614806126ab57506126aa8161269f61284363ffffffff16565b61249663ffffffff16565b5b1515612702576040517f08c379a000000000000000000000000000000000000000000000000000000000815260040180806020018281038252603881526020018061467a6038913960400191505060405180910390fd5b826067600050600084815260200190815260200160002060006101000a81548173ffffffffffffffffffffffffffffffffffffffff021916908373ffffffffffffffffffffffffffffffffffffffff160217905550818373ffffffffffffffffffffffffffffffffffffffff168273ffffffffffffffffffffffffffffffffffffffff167f8c5be1e5ebec7d5bd14f71427d1e84f3dd0314c0f7b2291e5b200ac8c7c3b92560405160405180910390a4505b5050565b6127d56127c961284363ffffffff16565b8261347e63ffffffff16565b151561282c576040517f08c379a00000000000000000000000000000000000000000000000000000000081526004018080602001828103825260318152602001806148776031913960400191505060405180910390fd5b61283d83838361359263ffffffff16565b5b505050565b600033905061284d565b90565b6000600073ffffffffffffffffffffffffffffffffffffffff168273ffffffffffffffffffffffffffffffffffffffff16141515156128da576040517f08c379a00000000000000000000000000000000000000000000000000000000081526004018080602001828103825260228152602001806147ae6022913960400191505060405180910390fd5b8260000160005060008373ffffffffffffffffffffffffffffffffffffffff1673ffffffffffffffffffffffffffffffffffffffff16815260200190815260200160002060009054906101000a900460ff169050612933565b92915050565b60006000303b90506000811491505061294e56505b90565b60006129696380ac58cd60e01b610fd963ffffffff16565b9050612970565b90565b63ffffffff60e01b817bffffffffffffffffffffffffffffffffffffffffffffffffffffffff191614151515612a14576040517f08c379a000000000000000000000000000000000000000000000000000000000815260040180806020018281038252601c8152602001807f4552433136353a20696e76616c696420696e746572666163652069640000000081526020015060200191505060405180910390fd5b600160336000506000837bffffffffffffffffffffffffffffffffffffffffffffffffffffffff19167bffffffffffffffffffffffffffffffffffffffffffffffffffffffff1916815260200190815260200160002060006101000a81548160ff0219169083151502179055505b50565b612a9582826135c963ffffffff16565b612aa5828261380363ffffffff16565b612ab4816138e363ffffffff16565b5b5050565b612ac88261253563ffffffff16565b1515612b1f576040517f08c379a000000000000000000000000000000000000000000000000000000000815260040180806020018281038252602c815260200180614782602c913960400191505060405180910390fd5b8060d460005060008481526020019081526020016000206000509080519060200190612b4c9291906144c0565b505b5050565b612b6a8161016c60005061394290919063ffffffff16565b8073ffffffffffffffffffffffffffffffffffffffff167fcd265ebaf09df2871cc7bd4133404a235ba12eff2041bb89d9c714a2621c7c7e60405160405180910390a25b50565b600081600001600050549050612bc2565b919050565b612bdf8161016c600050613a0b90919063ffffffff16565b8073ffffffffffffffffffffffffffffffffffffffff167f6719d08c1888103bea251a4ed56406bd0c3e69723c8a1686e017e7bbe159b6f860405160405180910390a25b50565b612c3e81610107600050613a0b90919063ffffffff16565b8073ffffffffffffffffffffffffffffffffffffffff167f6ae172837ea30b801fbfcdd4108aa1d5bf8ff775444fd70256b44e6bf3dfc3f660405160405180910390a25b50565b612c9d8161010760005061394290919063ffffffff16565b8073ffffffffffffffffffffffffffffffffffffffff167fe94479a9f7e1952cc78f2d6baab678adc1b772d936c6583def489e524cb6669260405160405180910390a25b50565b612cf261284363ffffffff16565b73ffffffffffffffffffffffffffffffffffffffff168273ffffffffffffffffffffffffffffffffffffffff1614151515612d98576040517f08c379a00000000000000000000000000000000000000000000000000000000081526004018080602001828103825260198152602001807f4552433732313a20617070726f766520746f2063616c6c65720000000000000081526020015060200191505060405180910390fd5b8060696000506000612dae61284363ffffffff16565b73ffffffffffffffffffffffffffffffffffffffff1673ffffffffffffffffffffffffffffffffffffffff16815260200190815260200160002060005060008473ffffffffffffffffffffffffffffffffffffffff1673ffffffffffffffffffffffffffffffffffffffff16815260200190815260200160002060006101000a81548160ff0219169083151502179055508173ffffffffffffffffffffffffffffffffffffffff16612e6461284363ffffffff16565b73ffffffffffffffffffffffffffffffffffffffff167f17307eab39ab6107e8899845ad3d59bd9653f200f220920489ca2b5937696c3183604051808215151515815260200191505060405180910390a35b5050565b6000612ee38473ffffffffffffffffffffffffffffffffffffffff16613af5909063ffffffff16565b1515612ef257600190506130bb565b60008473ffffffffffffffffffffffffffffffffffffffff1663150b7a02612f1e61284363ffffffff16565b8887876040518563ffffffff1660e01b8152600401808573ffffffffffffffffffffffffffffffffffffffff1673ffffffffffffffffffffffffffffffffffffffff1681526020018473ffffffffffffffffffffffffffffffffffffffff1673ffffffffffffffffffffffffffffffffffffffff16815260200183815260200180602001828103825283818151815260200191508051906020019080838360005b83811015612fdb5780820151818401525b602081019050612fbf565b50505050905090810190601f1680156130085780820380516001836020036101000a031916815260200191505b5095505050505050602060405180830381600087803b15801561302b5760006000fd5b505af1158015613040573d600060003e3d6000fd5b505050506040513d60208110156130575760006000fd5b8101908080519060200190929190505050905063150b7a0260e01b7bffffffffffffffffffffffffffffffffffffffffffffffffffffffff1916817bffffffffffffffffffffffffffffffffffffffffffffffffffffffff1916149150506130bb56505b949350505050565b600060019054906101000a900460ff16806130e857506130e761293963ffffffff16565b5b806131005750600060009054906101000a900460ff16155b1515613157576040517f08c379a000000000000000000000000000000000000000000000000000000000815260040180806020018281038252602e8152602001806147d0602e913960400191505060405180910390fd5b6000600060019054906101000a900460ff1615905080156131a9576001600060016101000a81548160ff0219169083151502179055506001600060006101000a81548160ff0219169083151502179055505b6131b882613b0f63ffffffff16565b600061019f60006101000a81548160ff0219169083151502179055505b80156131f7576000600060016101000a81548160ff0219169083151502179055505b505b50565b600060019054906101000a900460ff1680613221575061322061293963ffffffff16565b5b806132395750600060009054906101000a900460ff16155b1515613290576040517f08c379a000000000000000000000000000000000000000000000000000000000815260040180806020018281038252602e8152602001806147d0602e913960400191505060405180910390fd5b6000600060019054906101000a900460ff1615905080156132e2576001600060016101000a81548160ff0219169083151502179055506001600060006101000a81548160ff0219169083151502179055505b6132f0613c4263ffffffff16565b6133066380ac58cd60e01b61297363ffffffff16565b5b8015613329576000600060016101000a81548160ff0219169083151502179055505b505b565b600060019054906101000a900460ff1680613352575061335161293963ffffffff16565b5b8061336a5750600060009054906101000a900460ff16155b15156133c1576040517f08c379a000000000000000000000000000000000000000000000000000000000815260040180806020018281038252602e8152602001806147d0602e913960400191505060405180910390fd5b6000600060019054906101000a900460ff161590508015613413576001600060016101000a81548160ff0219169083151502179055506001600060006101000a81548160ff0219169083151502179055505b61342161295163ffffffff16565b151561342d5760006000fd5b61343b613d6563ffffffff16565b15156134475760006000fd5b61345682613d8763ffffffff16565b5b8015613479576000600060016101000a81548160ff0219169083151502179055505b505b50565b600061348f8261253563ffffffff16565b15156134e6576040517f08c379a000000000000000000000000000000000000000000000000000000000815260040180806020018281038252602c81526020018061464e602c913960400191505060405180910390fd5b60006134f78361187563ffffffff16565b90508073ffffffffffffffffffffffffffffffffffffffff168473ffffffffffffffffffffffffffffffffffffffff16148061356c57508373ffffffffffffffffffffffffffffffffffffffff16613554846110f363ffffffff16565b73ffffffffffffffffffffffffffffffffffffffff16145b806135835750613582818561249663ffffffff16565b5b91505061358c56505b92915050565b6135a3838383613eba63ffffffff16565b6135b3838261414563ffffffff16565b6135c3828261380363ffffffff16565b5b505050565b600073ffffffffffffffffffffffffffffffffffffffff168273ffffffffffffffffffffffffffffffffffffffff1614151515613671576040517f08c379a00000000000000000000000000000000000000000000000000000000081526004018080602001828103825260208152602001807f4552433732313a206d696e7420746f20746865207a65726f206164647265737381526020015060200191505060405180910390fd5b6136808161253563ffffffff16565b1515156136f8576040517f08c379a000000000000000000000000000000000000000000000000000000000815260040180806020018281038252601c8152602001807f4552433732313a20746f6b656e20616c7265616479206d696e7465640000000081526020015060200191505060405180910390fd5b816066600050600083815260200190815260200160002060006101000a81548173ffffffffffffffffffffffffffffffffffffffff021916908373ffffffffffffffffffffffffffffffffffffffff1602179055506137a2606860005060008473ffffffffffffffffffffffffffffffffffffffff1673ffffffffffffffffffffffffffffffffffffffff16815260200190815260200160002060005061431e909063ffffffff16565b808273ffffffffffffffffffffffffffffffffffffffff16600073ffffffffffffffffffffffffffffffffffffffff167fddf252ad1be2c89b69c2b068fc378daa952ba7f163c4a11628f55a4df523b3ef60405160405180910390a45b5050565b609c60005060008373ffffffffffffffffffffffffffffffffffffffff1673ffffffffffffffffffffffffffffffffffffffff16815260200190815260200160002060005080549050609d6000506000838152602001908152602001600020600050819090905550609c60005060008373ffffffffffffffffffffffffffffffffffffffff1673ffffffffffffffffffffffffffffffffffffffff1681526020019081526020016000206000508190806001815401808255809150509060018203906000526020600020900160005b9091929091909150909055505b5050565b609e60005080549050609f6000506000838152602001908152602001600020600050819090905550609e6000508190806001815401808255809150509060018203906000526020600020900160005b9091929091909150909055505b50565b613952828261285063ffffffff16565b15156139a9576040517f08c379a00000000000000000000000000000000000000000000000000000000081526004018080602001828103825260218152602001806147356021913960400191505060405180910390fd5b60008260000160005060008373ffffffffffffffffffffffffffffffffffffffff1673ffffffffffffffffffffffffffffffffffffffff16815260200190815260200160002060006101000a81548160ff0219169083151502179055505b5050565b613a1b828261285063ffffffff16565b151515613a93576040517f08c379a000000000000000000000000000000000000000000000000000000000815260040180806020018281038252601f8152602001807f526f6c65733a206163636f756e7420616c72656164792068617320726f6c650081526020015060200191505060405180910390fd5b60018260000160005060008373ffffffffffffffffffffffffffffffffffffffff1673ffffffffffffffffffffffffffffffffffffffff16815260200190815260200160002060006101000a81548160ff0219169083151502179055505b5050565b60006000823b905060008111915050613b0a56505b919050565b600060019054906101000a900460ff1680613b345750613b3361293963ffffffff16565b5b80613b4c5750600060009054906101000a900460ff16155b1515613ba3576040517f08c379a000000000000000000000000000000000000000000000000000000000815260040180806020018281038252602e8152602001806147d0602e913960400191505060405180910390fd5b6000600060019054906101000a900460ff161590508015613bf5576001600060016101000a81548160ff0219169083151502179055506001600060006101000a81548160ff0219169083151502179055505b613c048261158263ffffffff16565b1515613c1a57613c1982612bc763ffffffff16565b5b5b8015613c3d576000600060016101000a81548160ff0219169083151502179055505b505b50565b600060019054906101000a900460ff1680613c675750613c6661293963ffffffff16565b5b80613c7f5750600060009054906101000a900460ff16155b1515613cd6576040517f08c379a000000000000000000000000000000000000000000000000000000000815260040180806020018281038252602e8152602001806147d0602e913960400191505060405180910390fd5b6000600060019054906101000a900460ff161590508015613d28576001600060016101000a81548160ff0219169083151502179055506001600060006101000a81548160ff0219169083151502179055505b613d3e6301ffc9a760e01b61297363ffffffff16565b5b8015613d61576000600060016101000a81548160ff0219169083151502179055505b505b565b6000613d7d635b5e139f60e01b610fd963ffffffff16565b9050613d84565b90565b600060019054906101000a900460ff1680613dac5750613dab61293963ffffffff16565b5b80613dc45750600060009054906101000a900460ff16155b1515613e1b576040517f08c379a000000000000000000000000000000000000000000000000000000000815260040180806020018281038252602e8152602001806147d0602e913960400191505060405180910390fd5b6000600060019054906101000a900460ff161590508015613e6d576001600060016101000a81548160ff0219169083151502179055506001600060006101000a81548160ff0219169083151502179055505b613e7c82611f9363ffffffff16565b1515613e9257613e9182612c2663ffffffff16565b5b5b8015613eb5576000600060016101000a81548160ff0219169083151502179055505b505b50565b8273ffffffffffffffffffffffffffffffffffffffff16613ee08261187563ffffffff16565b73ffffffffffffffffffffffffffffffffffffffff16141515613f4e576040517f08c379a00000000000000000000000000000000000000000000000000000000081526004018080602001828103825260298152602001806147fe6029913960400191505060405180910390fd5b600073ffffffffffffffffffffffffffffffffffffffff168273ffffffffffffffffffffffffffffffffffffffff1614151515613fd6576040517f08c379a000000000000000000000000000000000000000000000000000000000815260040180806020018281038252602481526020018061462a6024913960400191505060405180910390fd5b613fe58161433963ffffffff16565b61403a606860005060008573ffffffffffffffffffffffffffffffffffffffff1673ffffffffffffffffffffffffffffffffffffffff168152602001908152602001600020600050614400909063ffffffff16565b61408f606860005060008473ffffffffffffffffffffffffffffffffffffffff1673ffffffffffffffffffffffffffffffffffffffff16815260200190815260200160002060005061431e909063ffffffff16565b816066600050600083815260200190815260200160002060006101000a81548173ffffffffffffffffffffffffffffffffffffffff021916908373ffffffffffffffffffffffffffffffffffffffff160217905550808273ffffffffffffffffffffffffffffffffffffffff168473ffffffffffffffffffffffffffffffffffffffff167fddf252ad1be2c89b69c2b068fc378daa952ba7f163c4a11628f55a4df523b3ef60405160405180910390a45b505050565b60006141a36001609c60005060008673ffffffffffffffffffffffffffffffffffffffff1673ffffffffffffffffffffffffffffffffffffffff1681526020019081526020016000206000508054905061442c90919063ffffffff16565b90506000609d600050600084815260200190815260200160002060005054905081811415156142bc576000609c60005060008673ffffffffffffffffffffffffffffffffffffffff1673ffffffffffffffffffffffffffffffffffffffff1681526020019081526020016000206000508381548110151561422057fe5b906000526020600020900160005b5054905080609c60005060008773ffffffffffffffffffffffffffffffffffffffff1673ffffffffffffffffffffffffffffffffffffffff1681526020019081526020016000206000508381548110151561428557fe5b906000526020600020900160005b5081909090555081609d6000506000838152602001908152602001600020600050819090905550505b609c60005060008573ffffffffffffffffffffffffffffffffffffffff1673ffffffffffffffffffffffffffffffffffffffff16815260200190815260200160002060005080548091906001900390906143169190614545565b5050505b5050565b60018160000160008282825054019250508190909055505b50565b600073ffffffffffffffffffffffffffffffffffffffff166067600050600083815260200190815260200160002060009054906101000a900473ffffffffffffffffffffffffffffffffffffffff1673ffffffffffffffffffffffffffffffffffffffff161415156143fc5760006067600050600083815260200190815260200160002060006101000a81548173ffffffffffffffffffffffffffffffffffffffff021916908373ffffffffffffffffffffffffffffffffffffffff1602179055505b5b50565b61441b6001826000016000505461442c90919063ffffffff16565b816000016000508190909055505b50565b60008282111515156144a9576040517f08c379a000000000000000000000000000000000000000000000000000000000815260040180806020018281038252601e8152602001807f536166654d6174683a207375627472616374696f6e206f766572666c6f77000081526020015060200191505060405180910390fd5b60008284039050809150506144ba56505b92915050565b828054600181600116156101000203166002900490600052602060002090601f016020900481019282601f1061450157805160ff1916838001178555614534565b82800160010185558215614534579182015b828111156145335782518260005090905591602001919060010190614513565b5b5090506145419190614571565b5090565b81548183558181111561456c5781836000526020600020918201910161456b9190614571565b5b505050565b614599919061457b565b80821115614595576000818150600090555060010161457b565b5090565b9056fe455243373231456e756d657261626c653a206f776e657220696e646578206f7574206f6620626f756e64734552433732313a207472616e7366657220746f206e6f6e20455243373231526563656976657220696d706c656d656e746572506175736572526f6c653a2063616c6c657220646f6573206e6f742068617665207468652050617573657220726f6c654552433732313a207472616e7366657220746f20746865207a65726f20616464726573734552433732313a206f70657261746f7220717565727920666f72206e6f6e6578697374656e7420746f6b656e4552433732313a20617070726f76652063616c6c6572206973206e6f74206f776e6572206e6f7220617070726f76656420666f7220616c6c4552433732313a2062616c616e636520717565727920666f7220746865207a65726f20616464726573734552433732313a206f776e657220717565727920666f72206e6f6e6578697374656e7420746f6b656e4d696e746572526f6c653a2063616c6c657220646f6573206e6f74206861766520746865204d696e74657220726f6c65526f6c65733a206163636f756e7420646f6573206e6f74206861766520726f6c654552433732313a20617070726f76656420717565727920666f72206e6f6e6578697374656e7420746f6b656e4552433732314d657461646174613a2055524920736574206f66206e6f6e6578697374656e7420746f6b656e526f6c65733a206163636f756e7420697320746865207a65726f2061646472657373436f6e747261637420696e7374616e63652068617320616c7265616479206265656e20696e697469616c697a65644552433732313a207472616e73666572206f6620746f6b656e2074686174206973206e6f74206f776e4552433732314d657461646174613a2055524920717565727920666f72206e6f6e6578697374656e7420746f6b656e4552433732313a20617070726f76616c20746f2063757272656e74206f776e65724552433732313a207472616e736665722063616c6c6572206973206e6f74206f776e6572206e6f7220617070726f766564455243373231456e756d657261626c653a20676c6f62616c20696e646578206f7574206f6620626f756e6473a265627a7a723158209d3daa983ee508d25a0ffc4b5ef3d7e283f1fe04170ef06340f0dbaea037f8b064736f6c634300050c0032",
  "compiler": {
    "name": "solc",
    "version": "0.5.12+commit.7709ece9.Darwin.appleclang",
    "optimizer": {},
    "evmVersion": "constantinople"
  }
}