{
  "fileName": "Verify.sol",
  "contractName": "Verify",
  "source": "pragma solidity ^0.5.0;\nimport \"./MerkleProof.sol\";\n\ncontract Verify is MerkleProof {\n    function isValidData(\n        string memory _word,\n        bytes32 _root,\n        bytes32 _leaf,\n        bytes32[] memory _proof,\n        uint256[] memory _positions\n    ) public pure returns (bool) {\n        if (keccak256(abi.encodePacked(_word)) == _leaf) {\n            return merkleVerify(_root, _leaf, _proof, _positions);\n        } else {\n            return false;\n        }\n    }\n}\n",
  "sourcePath": "contracts/merkleProof/Verify.sol",
  "abi": [
    {
      "constant": true,
      "inputs": [
        {
          "internalType": "string",
          "name": "_word",
          "type": "string"
        },
        {
          "internalType": "bytes32",
          "name": "_root",
          "type": "bytes32"
        },
        {
          "internalType": "bytes32",
          "name": "_leaf",
          "type": "bytes32"
        },
        {
          "internalType": "bytes32[]",
          "name": "_proof",
          "type": "bytes32[]"
        },
        {
          "internalType": "uint256[]",
          "name": "_positions",
          "type": "uint256[]"
        }
      ],
      "name": "isValidData",
      "outputs": [
        {
          "internalType": "bool",
          "name": "",
          "type": "bool"
        }
      ],
      "payable": false,
      "stateMutability": "pure",
      "type": "function"
    },
    {
      "constant": true,
      "inputs": [
        {
          "internalType": "bytes32",
          "name": "root",
          "type": "bytes32"
        },
        {
          "internalType": "bytes32",
          "name": "leaf",
          "type": "bytes32"
        },
        {
          "internalType": "bytes32[]",
          "name": "proof",
          "type": "bytes32[]"
        },
        {
          "internalType": "uint256[]",
          "name": "positions",
          "type": "uint256[]"
        }
      ],
      "name": "merkleVerify",
      "outputs": [
        {
          "internalType": "bool",
          "name": "",
          "type": "bool"
        }
      ],
      "payable": false,
      "stateMutability": "pure",
      "type": "function"
    }
  ],
  "bytecode": "0x60806040523480156100115760006000fd5b50610017565b6105ef806100266000396000f3fe60806040523480156100115760006000fd5b506004361061003b5760003560e01c80630e499d201461004157806387b8d1e2146101d05761003b565b60006000fd5b6101b6600480360360808110156100585760006000fd5b8101908080356000191690602001909291908035600019169060200190929190803590602001906401000000008111156100925760006000fd5b8201836020820111156100a55760006000fd5b803590602001918460208302840111640100000000831117156100c85760006000fd5b919080806020026020016040519081016040528093929190818152602001838360200280828437600081840152601f19601f820116905080830192505050505050509090919290909192908035906020019064010000000081111561012d5760006000fd5b8201836020820111156101405760006000fd5b803590602001918460208302840111640100000000831117156101635760006000fd5b919080806020026020016040519081016040528093929190818152602001838360200280828437600081840152601f19601f820116905080830192505050505050509090919290909192905050506103fd565b604051808215151515815260200191505060405180910390f35b6103e3600480360360a08110156101e75760006000fd5b81019080803590602001906401000000008111156102055760006000fd5b8201836020820111156102185760006000fd5b8035906020019184600183028401116401000000008311171561023b5760006000fd5b91908080601f016020809104026020016040519081016040528093929190818152602001838380828437600081840152601f19601f8201169050808301925050505050505090909192909091929080356000191690602001909291908035600019169060200190929190803590602001906401000000008111156102bf5760006000fd5b8201836020820111156102d25760006000fd5b803590602001918460208302840111640100000000831117156102f55760006000fd5b919080806020026020016040519081016040528093929190818152602001838360200280828437600081840152601f19601f820116905080830192505050505050509090919290909192908035906020019064010000000081111561035a5760006000fd5b82018360208201111561036d5760006000fd5b803590602001918460208302840111640100000000831117156103905760006000fd5b919080806020026020016040519081016040528093929190818152602001838360200280828437600081840152601f19601f82011690508083019250505050505050909091929090919290505050610504565b604051808215151515815260200191505060405180910390f35b600060008490506000600090505b84518110156104e7576000858281518110151561042457fe5b602002602001015190506001858381518110151561043e57fe5b6020026020010151141561049457828160405160200180836000191660001916815260200182600019166000191681526020019250505060405160208183030381529060405280519060200120925082506104d8565b808360405160200180836000191660001916815260200182600019166000191681526020019250505060405160208183030381529060405280519060200120925082505b505b808060010191505061040b565b5085600019168160001916149150506104fc56505b949350505050565b60008360001916866040516020018082805190602001908083835b60208310151561054557805182525b60208201915060208101905060208303925061051f565b6001836020036101000a038019825116818451168082178552505050505050905001915050604051602081830303815290604052805190602001206000191614156105a75761059c858585856103fd63ffffffff16565b90506105b1566105b0565b600090506105b1565b5b9594505050505056fea265627a7a72315820c2a91303c6d57c15470dc339366d1b82ec21bf4bbc07b702059558d2c4b4d92664736f6c634300050c0032",
  "compiler": {
    "name": "solc",
    "version": "0.5.12+commit.7709ece9.Darwin.appleclang",
    "optimizer": {},
    "evmVersion": "constantinople"
  }
}